{"abi":[{"type":"constructor","inputs":[],"stateMutability":"nonpayable"},{"type":"function","name":"approve","inputs":[{"name":"to","type":"address","internalType":"address"},{"name":"tokenId","type":"uint256","internalType":"uint256"}],"outputs":[],"stateMutability":"nonpayable"},{"type":"function","name":"balanceOf","inputs":[{"name":"owner","type":"address","internalType":"address"}],"outputs":[{"name":"","type":"uint256","internalType":"uint256"}],"stateMutability":"view"},{"type":"function","name":"createEvent","inputs":[{"name":"eventName","type":"string","internalType":"string"},{"name":"eventDate","type":"string","internalType":"string"},{"name":"eventLocation","type":"string","internalType":"string"},{"name":"price","type":"uint256","internalType":"uint256"},{"name":"totalSupply","type":"uint256","internalType":"uint256"}],"outputs":[{"name":"eventId","type":"uint256","internalType":"uint256"}],"stateMutability":"nonpayable"},{"type":"function","name":"eventCounter","inputs":[],"outputs":[{"name":"","type":"uint256","internalType":"uint256"}],"stateMutability":"view"},{"type":"function","name":"eventTicketCount","inputs":[{"name":"","type":"uint256","internalType":"uint256"}],"outputs":[{"name":"","type":"uint256","internalType":"uint256"}],"stateMutability":"view"},{"type":"function","name":"events","inputs":[{"name":"","type":"uint256","internalType":"uint256"}],"outputs":[{"name":"eventName","type":"string","internalType":"string"},{"name":"eventDate","type":"string","internalType":"string"},{"name":"eventLocation","type":"string","internalType":"string"},{"name":"price","type":"uint256","internalType":"uint256"},{"name":"totalSupply","type":"uint256","internalType":"uint256"},{"name":"isActive","type":"bool","internalType":"bool"}],"stateMutability":"view"},{"type":"function","name":"getAllEvents","inputs":[],"outputs":[{"name":"","type":"tuple[]","internalType":"struct TicketNFT.TicketMetadata[]","components":[{"name":"eventName","type":"string","internalType":"string"},{"name":"eventDate","type":"string","internalType":"string"},{"name":"eventLocation","type":"string","internalType":"string"},{"name":"price","type":"uint256","internalType":"uint256"},{"name":"totalSupply","type":"uint256","internalType":"uint256"},{"name":"isActive","type":"bool","internalType":"bool"}]}],"stateMutability":"view"},{"type":"function","name":"getApproved","inputs":[{"name":"tokenId","type":"uint256","internalType":"uint256"}],"outputs":[{"name":"","type":"address","internalType":"address"}],"stateMutability":"view"},{"type":"function","name":"getEvent","inputs":[{"name":"eventId","type":"uint256","internalType":"uint256"}],"outputs":[{"name":"","type":"tuple","internalType":"struct TicketNFT.TicketMetadata","components":[{"name":"eventName","type":"string","internalType":"string"},{"name":"eventDate","type":"string","internalType":"string"},{"name":"eventLocation","type":"string","internalType":"string"},{"name":"price","type":"uint256","internalType":"uint256"},{"name":"totalSupply","type":"uint256","internalType":"uint256"},{"name":"isActive","type":"bool","internalType":"bool"}]}],"stateMutability":"view"},{"type":"function","name":"getTicket","inputs":[{"name":"tokenId","type":"uint256","internalType":"uint256"}],"outputs":[{"name":"","type":"tuple","internalType":"struct TicketNFT.Ticket","components":[{"name":"eventId","type":"uint256","internalType":"uint256"},{"name":"ticketNumber","type":"uint256","internalType":"uint256"},{"name":"mintedAt","type":"uint256","internalType":"uint256"},{"name":"isUsed","type":"bool","internalType":"bool"}]}],"stateMutability":"view"},{"type":"function","name":"getTicketInfo","inputs":[{"name":"tokenId","type":"uint256","internalType":"uint256"}],"outputs":[{"name":"eventName","type":"string","internalType":"string"},{"name":"eventDate","type":"string","internalType":"string"},{"name":"eventLocation","type":"string","internalType":"string"},{"name":"ticketNumber","type":"uint256","internalType":"uint256"},{"name":"isUsed","type":"bool","internalType":"bool"}],"stateMutability":"view"},{"type":"function","name":"isApprovedForAll","inputs":[{"name":"owner","type":"address","internalType":"address"},{"name":"operator","type":"address","internalType":"address"}],"outputs":[{"name":"","type":"bool","internalType":"bool"}],"stateMutability":"view"},{"type":"function","name":"markTicketAsUsed","inputs":[{"name":"tokenId","type":"uint256","internalType":"uint256"}],"outputs":[],"stateMutability":"nonpayable"},{"type":"function","name":"mintTicket","inputs":[{"name":"eventId","type":"uint256","internalType":"uint256"},{"name":"to","type":"address","internalType":"address"}],"outputs":[{"name":"tokenId","type":"uint256","internalType":"uint256"}],"stateMutability":"payable"},{"type":"function","name":"name","inputs":[],"outputs":[{"name":"","type":"string","internalType":"string"}],"stateMutability":"view"},{"type":"function","name":"owner","inputs":[],"outputs":[{"name":"","type":"address","internalType":"address"}],"stateMutability":"view"},{"type":"function","name":"ownerOf","inputs":[{"name":"tokenId","type":"uint256","internalType":"uint256"}],"outputs":[{"name":"","type":"address","internalType":"address"}],"stateMutability":"view"},{"type":"function","name":"renounceOwnership","inputs":[],"outputs":[],"stateMutability":"nonpayable"},{"type":"function","name":"safeTransferFrom","inputs":[{"name":"from","type":"address","internalType":"address"},{"name":"to","type":"address","internalType":"address"},{"name":"tokenId","type":"uint256","internalType":"uint256"}],"outputs":[],"stateMutability":"nonpayable"},{"type":"function","name":"safeTransferFrom","inputs":[{"name":"from","type":"address","internalType":"address"},{"name":"to","type":"address","internalType":"address"},{"name":"tokenId","type":"uint256","internalType":"uint256"},{"name":"data","type":"bytes","internalType":"bytes"}],"outputs":[],"stateMutability":"nonpayable"},{"type":"function","name":"setApprovalForAll","inputs":[{"name":"operator","type":"address","internalType":"address"},{"name":"approved","type":"bool","internalType":"bool"}],"outputs":[],"stateMutability":"nonpayable"},{"type":"function","name":"setVerifier","inputs":[{"name":"_verifier","type":"address","internalType":"address"}],"outputs":[],"stateMutability":"nonpayable"},{"type":"function","name":"supportsInterface","inputs":[{"name":"interfaceId","type":"bytes4","internalType":"bytes4"}],"outputs":[{"name":"","type":"bool","internalType":"bool"}],"stateMutability":"view"},{"type":"function","name":"symbol","inputs":[],"outputs":[{"name":"","type":"string","internalType":"string"}],"stateMutability":"view"},{"type":"function","name":"tickets","inputs":[{"name":"","type":"uint256","internalType":"uint256"}],"outputs":[{"name":"eventId","type":"uint256","internalType":"uint256"},{"name":"ticketNumber","type":"uint256","internalType":"uint256"},{"name":"mintedAt","type":"uint256","internalType":"uint256"},{"name":"isUsed","type":"bool","internalType":"bool"}],"stateMutability":"view"},{"type":"function","name":"toggleEventStatus","inputs":[{"name":"eventId","type":"uint256","internalType":"uint256"}],"outputs":[],"stateMutability":"nonpayable"},{"type":"function","name":"tokenCounter","inputs":[],"outputs":[{"name":"","type":"uint256","internalType":"uint256"}],"stateMutability":"view"},{"type":"function","name":"tokenURI","inputs":[{"name":"tokenId","type":"uint256","internalType":"uint256"}],"outputs":[{"name":"","type":"string","internalType":"string"}],"stateMutability":"view"},{"type":"function","name":"transferFrom","inputs":[{"name":"from","type":"address","internalType":"address"},{"name":"to","type":"address","internalType":"address"},{"name":"tokenId","type":"uint256","internalType":"uint256"}],"outputs":[],"stateMutability":"nonpayable"},{"type":"function","name":"transferOwnership","inputs":[{"name":"newOwner","type":"address","internalType":"address"}],"outputs":[],"stateMutability":"nonpayable"},{"type":"function","name":"verifier","inputs":[],"outputs":[{"name":"","type":"address","internalType":"address"}],"stateMutability":"view"},{"type":"function","name":"withdraw","inputs":[],"outputs":[],"stateMutability":"nonpayable"},{"type":"event","name":"Approval","inputs":[{"name":"owner","type":"address","indexed":true,"internalType":"address"},{"name":"approved","type":"address","indexed":true,"internalType":"address"},{"name":"tokenId","type":"uint256","indexed":true,"internalType":"uint256"}],"anonymous":false},{"type":"event","name":"ApprovalForAll","inputs":[{"name":"owner","type":"address","indexed":true,"internalType":"address"},{"name":"operator","type":"address","indexed":true,"internalType":"address"},{"name":"approved","type":"bool","indexed":false,"internalType":"bool"}],"anonymous":false},{"type":"event","name":"EventCreated","inputs":[{"name":"eventId","type":"uint256","indexed":true,"internalType":"uint256"},{"name":"eventName","type":"string","indexed":false,"internalType":"string"},{"name":"totalSupply","type":"uint256","indexed":false,"internalType":"uint256"},{"name":"price","type":"uint256","indexed":false,"internalType":"uint256"}],"anonymous":false},{"type":"event","name":"OwnershipTransferred","inputs":[{"name":"previousOwner","type":"address","indexed":true,"internalType":"address"},{"name":"newOwner","type":"address","indexed":true,"internalType":"address"}],"anonymous":false},{"type":"event","name":"TicketMinted","inputs":[{"name":"tokenId","type":"uint256","indexed":true,"internalType":"uint256"},{"name":"eventId","type":"uint256","indexed":true,"internalType":"uint256"},{"name":"owner","type":"address","indexed":true,"internalType":"address"},{"name":"ticketNumber","type":"uint256","indexed":false,"internalType":"uint256"}],"anonymous":false},{"type":"event","name":"TicketUsed","inputs":[{"name":"tokenId","type":"uint256","indexed":true,"internalType":"uint256"},{"name":"owner","type":"address","indexed":true,"internalType":"address"},{"name":"timestamp","type":"uint256","indexed":false,"internalType":"uint256"}],"anonymous":false},{"type":"event","name":"Transfer","inputs":[{"name":"from","type":"address","indexed":true,"internalType":"address"},{"name":"to","type":"address","indexed":true,"internalType":"address"},{"name":"tokenId","type":"uint256","indexed":true,"internalType":"uint256"}],"anonymous":false},{"type":"error","name":"ERC721IncorrectOwner","inputs":[{"name":"sender","type":"address","internalType":"address"},{"name":"tokenId","type":"uint256","internalType":"uint256"},{"name":"owner","type":"address","internalType":"address"}]},{"type":"error","name":"ERC721InsufficientApproval","inputs":[{"name":"operator","type":"address","internalType":"address"},{"name":"tokenId","type":"uint256","internalType":"uint256"}]},{"type":"error","name":"ERC721InvalidApprover","inputs":[{"name":"approver","type":"address","internalType":"address"}]},{"type":"error","name":"ERC721InvalidOperator","inputs":[{"name":"operator","type":"address","internalType":"address"}]},{"type":"error","name":"ERC721InvalidOwner","inputs":[{"name":"owner","type":"address","internalType":"address"}]},{"type":"error","name":"ERC721InvalidReceiver","inputs":[{"name":"receiver","type":"address","internalType":"address"}]},{"type":"error","name":"ERC721InvalidSender","inputs":[{"name":"sender","type":"address","internalType":"address"}]},{"type":"error","name":"ERC721NonexistentToken","inputs":[{"name":"tokenId","type":"uint256","internalType":"uint256"}]},{"type":"error","name":"EventNotActive","inputs":[]},{"type":"error","name":"InsufficientPayment","inputs":[]},{"type":"error","name":"InvalidEventId","inputs":[]},{"type":"error","name":"OwnableInvalidOwner","inputs":[{"name":"owner","type":"address","internalType":"address"}]},{"type":"error","name":"OwnableUnauthorizedAccount","inputs":[{"name":"account","type":"address","internalType":"address"}]},{"type":"error","name":"SoldOut","inputs":[]},{"type":"error","name":"TicketAlreadyUsed","inputs":[]},{"type":"error","name":"Unauthorized","inputs":[]}],"bytecode":{"object":"0x60803462000375576001600160401b03906040908082018381118282101762000361578252600b815260206a115d995b9d151a58dad95d60aa1b8183015282519383850185811082821117620003615784526004918286526308aa892b60e31b818701528351908282116200026d575f54916001958684811c9416801562000356575b8385101462000343578190601f94858111620002f0575b5083908583116001146200028c575f9262000280575b50505f19600383901b1c191690861b175f555b86519283116200026d5784548581811c9116801562000262575b828210146200024f5782811162000207575b50809183116001146200019f575081929394955f9262000193575b50505f19600383901b1c191690831b1782555b33156200017d575060068054336001600160a01b0319821681179092559251926001600160a01b03167f8be0079c531659141344cd1fd0a4f28419497f9722a3daafe3b4186f6b6457e05f80a38060075560085561224690816200037a8239f35b6024905f845191631e4fbdf760e01b8352820152fd5b015190505f8062000109565b90601f19831696855f52825f20925f905b898210620001ef5750508386979896959610620001d6575b505050811b0182556200011c565b01515f1960f88460031b161c191690555f8080620001c8565b808885968294968601518155019501930190620001b0565b855f52815f208380860160051c82019284871062000245575b0160051c019086905b82811062000239575050620000ee565b5f815501869062000229565b9250819262000220565b602285634e487b7160e01b5f525260245ffd5b90607f1690620000dc565b604184634e487b7160e01b5f525260245ffd5b015190505f80620000af565b90889350601f198316915f8052855f20925f5b87828210620002d95750508411620002c0575b505050811b015f55620000c2565b01515f1960f88460031b161c191690555f8080620002b2565b8385015186558c979095019493840193016200029f565b9091505f8052835f208580850160051c82019286861062000339575b918a91869594930160051c01915b8281106200032a57505062000099565b5f81558594508a91016200031a565b925081926200030c565b602286634e487b7160e01b5f525260245ffd5b93607f169362000082565b634e487b7160e01b5f52604160045260245ffd5b5f80fdfe6080806040526004361015610012575f80fd5b5f3560e01c90816301ffc9a71461184f5750806306fdde03146117a8578063081812fc1461176c578063095ea7b31461168b5780630a15fa8b146115d65780630b791430146115315780631af32d781461150757806323b872dd146114f05780632b7ac3f3146114c85780633ccfd60b1461145657806342842e0e1461142957806350b44712146113d857806352c55db9146113af5780635437988d1461136c5780636352211e1461133c5780636d1884e0146112ca57806370a0823114611274578063715018a6146112195780637dc379fa146111775780638da5cb5b1461114f57806395d89b4114611085578063a22cb46514610fdb578063a718205114610c8d578063b88d4fde14610c22578063c27a500d14610af8578063c87b56dd146108c9578063d082e3811461088c578063e13102e91461084a578063e985e9c5146107f8578063f2fde38b1461076c578063f5f00d841461024f5763ff99a0631461017c575f80fd5b3461024b5760208060031936011261024b576102219060043561019e81611e1d565b505f52600a815260405f20604051906101b682611964565b8054808352606060ff600360018501549487870195865260028101546040880152015416930192151583525f526009835261023c6101f660405f20611d70565b9161022e8351956040818601519501519251955115159460405198899860a08a5260a08a01906118db565b91888303908901526118db565b9085820360408701526118db565b91606084015260808301520390f35b5f80fd5b3461024b5760a036600319011261024b576004356001600160401b03811161024b5761027f903690600401611b5e565b906024356001600160401b03811161024b5761029f903690600401611b5e565b6044929192356001600160401b03811161024b576102c461030c913690600401611b5e565b6102cc611e57565b610300600854966102dc88611dd0565b600855604051956102ec8761197f565b6102f7368b8a611b28565b87523691611b28565b60208501523691611b28565b604082015260643560608201526084356080820152600160a0820152825f52600960205260405f209080518051906001600160401b0382116105cf578190610354855461192c565b601f811161071f575b50602090601f83116001146106b7575f926106ac575b50508160011b915f199060031b1c19161782555b60208101518051906001600160401b0382116105cf5781906103ac600186015461192c565b601f811161065c575b50602090601f83116001146105ee575f926105e3575b50508160011b915f199060031b1c19161760018301555b60408101518051906001600160401b0382116105cf57610405600285015461192c565b601f811161058b575b509160209693918695938890601f83116001146104ea5760a07f42e6867e52299b45991308391cccb9ee79466d194059ff10fc15c2d88f0ea0619796948461049f95608098956005955f926104df575b50508160011b915f199060031b1c19161760028501555b606081015160038501558681015160048501550151151591019060ff801983541691151516179055565b8260405193849260608452816060850152848401375f828201840152608435888301526064356040830152601f01601f19168101030190a2604051908152f35b015190508e8061045e565b60028594939298979695015f52895f20905f5b601f1984168110610571575061049f936001846005947f42e6867e52299b45991308391cccb9ee79466d194059ff10fc15c2d88f0ea0619b9c60a09560809b9a98601f19811610610559575b505050811b016002850155610475565b01515f1960f88460031b161c191690558e8080610549565b818a01518355988b01988a98506001909201918b016104fd565b600285015f5260205f20601f840160051c8101602085106105c8575b601f830160051c820181106105bd57505061040e565b5f81556001016105a7565b50806105a7565b634e487b7160e01b5f52604160045260245ffd5b0151905087806103cb565b9250600185015f5260205f20905f935b601f1984168510610641576001945083601f19811610610629575b505050811b0160018301556103e2565b01515f1960f88460031b161c19169055878080610619565b818101518355602094850194600190930192909101906105fe565b909150600185015f5260205f20601f840160051c8101602085106106a5575b90849392915b601f830160051c820181106106975750506103b5565b5f8155859450600101610681565b508061067b565b015190508780610373565b9250845f5260205f20905f935b601f1984168510610704576001945083601f198116106106ec575b505050811b018255610387565b01515f1960f88460031b161c191690558780806106df565b818101518355602094850194600190930192909101906106c4565b909150845f5260205f20601f840160051c810160208510610765575b90849392915b601f830160051c8201811061075757505061035d565b5f8155859450600101610741565b508061073b565b3461024b57602036600319011261024b57610785611900565b61078d611e57565b6001600160a01b039081169081156107e057600654826bffffffffffffffffffffffff60a01b821617600655167f8be0079c531659141344cd1fd0a4f28419497f9722a3daafe3b4186f6b6457e05f80a3005b604051631e4fbdf760e01b81525f6004820152602490fd5b3461024b57604036600319011261024b57610811611900565b610819611916565b9060018060a01b038091165f52600560205260405f2091165f52602052602060ff60405f2054166040519015158152f35b3461024b57602036600319011261024b57610863611e57565b6004355f908152600960205260409020600501805460ff818116151660ff19909116179055005b005b3461024b575f36600319011261024b576007545f1981019081116108b557602090604051908152f35b634e487b7160e01b5f52601160045260245ffd5b3461024b5760208060031936011261024b576004356108e781611e1d565b505f52600a815260405f206040516108fe81611964565b815490818152606060ff60036001860154958785019687526002810154604086015201541615159101525f5260098252610a19604a61093f60405f20611d70565b80519061095661094f8651611fcf565b9551611fcf565b905190604051958693683d913730b6b2911d1160b91b89860152610983815180928b6029890191016118ba565b840161202360f01b60298201526109a3825180938b602b850191016118ba565b017f222c226465736372697074696f6e223a225469636b6574200000000000000000602b8201526109dd825180938a6043850191016118ba565b01640103337b9160dd1b60438201526109ff82518093896048850191016118ba565b0161227d60f01b604882015203602a8101845201826119b5565b60405160608101918183106001600160401b038411176105cf57610a8e92604052604082527f4142434445464748494a4b4c4d4e4f505152535455565758595a616263646566848301527f6768696a6b6c6d6e6f707172737475767778797a303132333435363738392b2f6040830152612111565b90610ae0603d60405180947f646174613a6170706c69636174696f6e2f6a736f6e3b6261736536342c00000085830152610ad0815180928786860191016118ba565b810103601d8101855201836119b5565b610af46040519282849384528301906118db565b0390f35b3461024b575f36600319011261024b576008545f19908181019081116108b557610b2181611dde565b91610b2f60405193846119b5565b818352610b3b82611dde565b60209290601f19015f5b818110610c0657505060019160015b82811115610bbd5750505060405191808301818452845180915260408401918060408360051b8701019601925f905b838210610b905786880387f35b90919293948380610bac839a603f198b82030186528951611aad565b999701959493919091019101610b83565b805f969496526009855260405f2090828101918183116108b557610bfe92610be7610bf892611d70565b610bf18289611df5565b5286611df5565b50611dd0565b949294610b54565b8490610c13969496611d3d565b82828701015201949294610b45565b3461024b57608036600319011261024b57610c3b611900565b610c43611916565b90604435606435926001600160401b03841161024b573660238501121561024b57610c7b61088a943690602481600401359101611b28565b92610c87838383611b8b565b33611e83565b604036600319011261024b57600435610ca4611916565b90805f5260209160098352610cbb60405f20611d70565b60a081015115610fc957825f52600b845260405f205460808201511115610fb757606001513410610fa55760075491610cf383611dd0565b600755805f52600b845260405f20610d0b8154611dd0565b809155610d68604051610d1d81611964565b83815260038782018481526040830142815260608401915f8352895f52600a8b5260405f209451855551600185015551600284015551151591019060ff801983541691151516179055565b604051610d748161199a565b5f81526001600160a01b0384811694908515610f8d57865f526002885260405f20541686868215159283610f5c575b5f82815260038c5260408082208054600101905584825260028d52812080546001600160a01b031916841790557fddf252ad1be2c89b69c2b068fc378daa952ba7f163c4a11628f55a4df523b3ef9080a4610f4457859187913b610e35575b507f4fe0f5bb11eb6ab81c428fb83261719e5b22f84b3e1942cd491c3777504bb8519192604051908152a4604051908152f35b915050604051868180610e70630a85bd0160e11b958683523360048401525f60248401528a60448401526080606484015260848301906118db565b03815f895af15f9181610f04575b50610eb4578685610e8d611d0e565b8051929083610eaf57604051633250574960e11b815260048101849052602490fd5b019050fd5b6001600160e01b03191603610eeb5783857f4fe0f5bb11eb6ab81c428fb83261719e5b22f84b3e1942cd491c3777504bb851610e02565b604051633250574960e11b815260048101849052602490fd5b9091508781813d8311610f3d575b610f1c81836119b5565b8101031261024b57516001600160e01b03198116810361024b579088610e7e565b503d610f12565b6040516339e3563760e11b81525f6004820152602490fd5b5f8381526004602052604080822080546001600160a01b031916905582825260038d52902080545f19019055610da3565b604051633250574960e11b81525f6004820152602490fd5b60405163cd1c886760e01b8152600490fd5b6040516352df9fe560e01b8152600490fd5b6040516301e1837960e31b8152600490fd5b3461024b57604036600319011261024b57610ff4611900565b602435908115159081830361024b576001600160a01b031691821561106c5761103e90335f52600560205260405f20845f5260205260405f209060ff801983541691151516179055565b6040519081527f17307eab39ab6107e8899845ad3d59bd9653f200f220920489ca2b5937696c3160203392a3005b604051630b61174360e31b815260048101849052602490fd5b3461024b575f36600319011261024b576040515f600182600154926110a98461192c565b92838352602094856001821691825f1461112f5750506001146110d4575b50610ae0925003836119b5565b84915060015f527fb10e2d527612073b26eecdfd717e6a320cf44b4afac2b0732d9fcbe2b7fa0cf6905f915b858310611117575050610ae09350820101856110c7565b80548389018501528794508693909201918101611100565b60ff191685820152610ae095151560051b85010192508791506110c79050565b3461024b575f36600319011261024b576006546040516001600160a01b039091168152602090f35b3461024b57602036600319011261024b576004355f606060405161119a81611964565b82815282602082015282604082015201526111b481611e1d565b505f52600a602052608060405f206040516111ce81611964565b815491828252600181015460208301908152606060ff600360028501549460408701958652015416930192151583526040519384525160208401525160408301525115156060820152f35b3461024b575f36600319011261024b57611231611e57565b600680546001600160a01b031981169091555f906001600160a01b03167f8be0079c531659141344cd1fd0a4f28419497f9722a3daafe3b4186f6b6457e08280a3005b3461024b57602036600319011261024b576001600160a01b03611295611900565b1680156112b2575f526003602052602060405f2054604051908152f35b6040516322718ad960e21b81525f6004820152602490fd5b3461024b57602036600319011261024b576004356112e6611d3d565b5080158015611330575b61131e575f526009602052610af461130a60405f20611d70565b604051918291602083526020830190611aad565b604051630c93477d60e41b8152600490fd5b506008548110156112f0565b3461024b57602036600319011261024b57602061135a600435611e1d565b6040516001600160a01b039091168152f35b3461024b57602036600319011261024b57611385611900565b61138d611e57565b600c80546001600160a01b0319166001600160a01b0392909216919091179055005b3461024b575f36600319011261024b576008545f1981019081116108b557602090604051908152f35b3461024b57602036600319011261024b576004355f52600a602052608060405f2080549060018101549060ff6003600283015492015416916040519384526020840152604083015215156060820152f35b3461024b5761088a61143a36611a78565b90604051926114488461199a565b5f8452610c87838383611b8b565b3461024b575f36600319011261024b5761146e611e57565b5f80808060018060a01b036006541647905af1611489611d0e565b501561149157005b60405162461bcd60e51b815260206004820152600f60248201526e1dda5d1a191c985dc819985a5b1959608a1b6044820152606490fd5b3461024b575f36600319011261024b57600c546040516001600160a01b039091168152602090f35b3461024b5761088a61150136611a78565b91611b8b565b3461024b57602036600319011261024b576004355f52600b602052602060405f2054604051908152f35b3461024b57602036600319011261024b576004355f5260096020526115a460405f2061155c816119d6565b90611569600182016119d6565b611575600283016119d6565b916115c06003820154936115b260ff60056004860154950154169460405198899860c08a5260c08a01906118db565b9088820360208a01526118db565b9086820360408801526118db565b9260608501526080840152151560a08301520390f35b3461024b57602036600319011261024b57600c546001600160a01b0390600435908216330361167a57805f52600a60205260ff600360405f2001541661166857805f52600a602052600360405f2001600160ff198254161790557f4f9c6210874b14266ea0f64418a0f7403a875226eae9483f5d9cd7663234db9a602061165c83611e1d565b604051428152941693a3005b604051630869773360e41b8152600490fd5b6040516282b42960e81b8152600490fd5b3461024b57604036600319011261024b576116a4611900565b6024356116b081611e1d565b33151580611759575b80611730575b611718576001600160a01b039283169282918491167f8c5be1e5ebec7d5bd14f71427d1e84f3dd0314c0f7b2291e5b200ac8c7c3b9255f80a45f90815260046020526040902080546001600160a01b0319169091179055005b60405163a9fbf51f60e01b8152336004820152602490fd5b5060018060a01b0381165f52600560205260405f20335f5260205260ff60405f205416156116bf565b506001600160a01b0381163314156116b9565b3461024b57602036600319011261024b5760043561178981611e1d565b505f526004602052602060018060a01b0360405f205416604051908152f35b3461024b575f36600319011261024b576040515f805490826117c98361192c565b91828252602093600190856001821691825f1461112f5750506001146117f65750610ae0925003836119b5565b5f808052859250907f290decd9548b62a8d60345a988386fc84ba6bc95484008f6362f93160ef3e5635b858310611837575050610ae09350820101856110c7565b80548389018501528794508693909201918101611820565b3461024b57602036600319011261024b576004359063ffffffff60e01b821680920361024b576020916380ac58cd60e01b81149081156118a9575b8115611898575b5015158152f35b6301ffc9a760e01b14905083611891565b635b5e139f60e01b8114915061188a565b5f5b8381106118cb5750505f910152565b81810151838201526020016118bc565b906020916118f4815180928185528580860191016118ba565b601f01601f1916010190565b600435906001600160a01b038216820361024b57565b602435906001600160a01b038216820361024b57565b90600182811c9216801561195a575b602083101461194657565b634e487b7160e01b5f52602260045260245ffd5b91607f169161193b565b608081019081106001600160401b038211176105cf57604052565b60c081019081106001600160401b038211176105cf57604052565b602081019081106001600160401b038211176105cf57604052565b90601f801991011681019081106001600160401b038211176105cf57604052565b9060405191825f82546119e88161192c565b908184526020946001916001811690815f14611a565750600114611a18575b505050611a16925003836119b5565b565b5f90815285812095935091905b818310611a3e575050611a1693508201015f8080611a07565b85548884018501529485019487945091830191611a25565b92505050611a1694925060ff191682840152151560051b8201015f8080611a07565b606090600319011261024b576001600160a01b0390600435828116810361024b5791602435908116810361024b579060443590565b9060a080611aee611adc611aca865160c0875260c08701906118db565b602087015186820360208801526118db565b604086015185820360408701526118db565b9360608101516060850152608081015160808501520151151591015290565b6001600160401b0381116105cf57601f01601f191660200190565b929192611b3482611b0d565b91611b4260405193846119b5565b82948184528183011161024b578281602093845f960137010152565b9181601f8401121561024b578235916001600160401b03831161024b576020838186019501011161024b57565b6001600160a01b039182169290918315610f8d57815f52602092600284528260409583875f2054169533151580611c7c575b5060029087611c4b575b825f5260038152885f2060018154019055835f5252865f20816bffffffffffffffffffffffff60a01b825416179055857fddf252ad1be2c89b69c2b068fc378daa952ba7f163c4a11628f55a4df523b3ef5f80a41692838303611c2a5750505050565b6064945051926364283d7b60e01b8452600484015260248301526044820152fd5b5f84815260046020526040812080546001600160a01b03191690558881526003825289902080545f19019055611bc7565b9192509080611ccd575b15611c94579084915f611bbd565b868587611cb1576024915190637e27328960e01b82526004820152fd5b604491519063177e802f60e01b82523360048301526024820152fd5b503386148015611cf2575b80611c865750845f52600481523384885f20541614611c86565b50855f5260058152865f20335f52815260ff875f205416611cd8565b3d15611d38573d90611d1f82611b0d565b91611d2d60405193846119b5565b82523d5f602084013e565b606090565b60405190611d4a8261197f565b5f60a0836060815260606020820152606060408201528260608201528260808201520152565b90604051611d7d8161197f565b60a060ff60058395611d8e816119d6565b8552611d9c600182016119d6565b6020860152611dad600282016119d6565b604086015260038101546060860152600481015460808601520154161515910152565b5f1981146108b55760010190565b6001600160401b0381116105cf5760051b60200190565b8051821015611e095760209160051b010190565b634e487b7160e01b5f52603260045260245ffd5b5f818152600260205260409020546001600160a01b0316908115611e3f575090565b60249060405190637e27328960e01b82526004820152fd5b6006546001600160a01b03163303611e6b57565b60405163118cdaa760e01b8152336004820152602490fd5b9291803b611e93575b5050505050565b604051630a85bd0160e11b8082526001600160a01b03958616600483015292851660248201526044810193909352608060648401529092169260209082908190611ee19060848301906118db565b03815f875af15f9181611f58575b50611f265782611efd611d0e565b8051919082611f1f57604051633250574960e11b815260048101839052602490fd5b6020915001fd5b6001600160e01b03191603611f4057505f80808080611e8c565b60249060405190633250574960e11b82526004820152fd5b9091506020813d602011611f95575b81611f74602093836119b5565b8101031261024b57516001600160e01b03198116810361024b57905f611eef565b3d9150611f67565b90611fa782611b0d565b611fb460405191826119b5565b8281528092611fc5601f1991611b0d565b0190602036910137565b805f917a184f03e93ff9f4daa797ed6e38ed64bf6a1f01000000000000000080821015612103575b506d04ee2d6d415b85acef8100000000808310156120f4575b50662386f26fc10000808310156120e5575b506305f5e100808310156120d6575b50612710808310156120c7575b5060648210156120b7575b600a809210156120ad575b60019081602161206660018701611f9d565b95860101905b612078575b5050505090565b5f19019083906f181899199a1a9b1b9c1cb0b131b232b360811b8282061a8353049182156120a85791908261206c565b612071565b9160010191612054565b9190606460029104910191612049565b6004919392049101915f61203e565b6008919392049101915f612031565b6010919392049101915f612022565b6020919392049101915f612010565b60409350810491505f611ff7565b9190918051156121fb57805192600291600285018095116108b5576003948590046001600160fe1b03811681036108b5576121519060029694961b611f9d565b9260208401928291835184019760208901928351945f85525b8a81106121ae5750505050600393949596505251068060011461219c57600214612192575090565b603d905f19015390565b50603d90815f19820153600119015390565b836004919b989b019a8b51600190603f9082828260121c16870101518453828282600c1c16870101518385015382828260061c16870101518785015316840101518582015301969961216a565b50905060405161220a8161199a565b5f81529056fea2646970667358221220f0d0d88fddba0a3dbf267369426dfd1fe843753ba7b6dc78663c71d530018b5364736f6c63430008180033","linkReferences":{}},"methodIdentifiers":{"approve(address,uint256)":"095ea7b3","balanceOf(address)":"70a08231","createEvent(string,string,string,uint256,uint256)":"f5f00d84","eventCounter()":"52c55db9","eventTicketCount(uint256)":"1af32d78","events(uint256)":"0b791430","getAllEvents()":"c27a500d","getApproved(uint256)":"081812fc","getEvent(uint256)":"6d1884e0","getTicket(uint256)":"7dc379fa","getTicketInfo(uint256)":"ff99a063","isApprovedForAll(address,address)":"e985e9c5","markTicketAsUsed(uint256)":"0a15fa8b","mintTicket(uint256,address)":"a7182051","name()":"06fdde03","owner()":"8da5cb5b","ownerOf(uint256)":"6352211e","renounceOwnership()":"715018a6","safeTransferFrom(address,address,uint256)":"42842e0e","safeTransferFrom(address,address,uint256,bytes)":"b88d4fde","setApprovalForAll(address,bool)":"a22cb465","setVerifier(address)":"5437988d","supportsInterface(bytes4)":"01ffc9a7","symbol()":"95d89b41","tickets(uint256)":"50b44712","toggleEventStatus(uint256)":"e13102e9","tokenCounter()":"d082e381","tokenURI(uint256)":"c87b56dd","transferFrom(address,address,uint256)":"23b872dd","transferOwnership(address)":"f2fde38b","verifier()":"2b7ac3f3","withdraw()":"3ccfd60b"},"id":33}