{"abi":[{"type":"constructor","inputs":[],"stateMutability":"nonpayable"},{"type":"function","name":"approve","inputs":[{"name":"to","type":"address","internalType":"address"},{"name":"tokenId","type":"uint256","internalType":"uint256"}],"outputs":[],"stateMutability":"nonpayable"},{"type":"function","name":"balanceOf","inputs":[{"name":"owner","type":"address","internalType":"address"}],"outputs":[{"name":"","type":"uint256","internalType":"uint256"}],"stateMutability":"view"},{"type":"function","name":"createEvent","inputs":[{"name":"eventName","type":"string","internalType":"string"},{"name":"eventDate","type":"string","internalType":"string"},{"name":"eventLocation","type":"string","internalType":"string"},{"name":"price","type":"uint256","internalType":"uint256"},{"name":"totalSupply","type":"uint256","internalType":"uint256"}],"outputs":[{"name":"eventId","type":"uint256","internalType":"uint256"}],"stateMutability":"nonpayable"},{"type":"function","name":"eventTicketCount","inputs":[{"name":"","type":"uint256","internalType":"uint256"}],"outputs":[{"name":"","type":"uint256","internalType":"uint256"}],"stateMutability":"view"},{"type":"function","name":"events","inputs":[{"name":"","type":"uint256","internalType":"uint256"}],"outputs":[{"name":"eventName","type":"string","internalType":"string"},{"name":"eventDate","type":"string","internalType":"string"},{"name":"eventLocation","type":"string","internalType":"string"},{"name":"price","type":"uint256","internalType":"uint256"},{"name":"totalSupply","type":"uint256","internalType":"uint256"},{"name":"isActive","type":"bool","internalType":"bool"}],"stateMutability":"view"},{"type":"function","name":"getApproved","inputs":[{"name":"tokenId","type":"uint256","internalType":"uint256"}],"outputs":[{"name":"","type":"address","internalType":"address"}],"stateMutability":"view"},{"type":"function","name":"getEvent","inputs":[{"name":"eventId","type":"uint256","internalType":"uint256"}],"outputs":[{"name":"","type":"tuple","internalType":"struct TicketNFT.TicketMetadata","components":[{"name":"eventName","type":"string","internalType":"string"},{"name":"eventDate","type":"string","internalType":"string"},{"name":"eventLocation","type":"string","internalType":"string"},{"name":"price","type":"uint256","internalType":"uint256"},{"name":"totalSupply","type":"uint256","internalType":"uint256"},{"name":"isActive","type":"bool","internalType":"bool"}]}],"stateMutability":"view"},{"type":"function","name":"getTicket","inputs":[{"name":"tokenId","type":"uint256","internalType":"uint256"}],"outputs":[{"name":"","type":"tuple","internalType":"struct TicketNFT.Ticket","components":[{"name":"eventId","type":"uint256","internalType":"uint256"},{"name":"ticketNumber","type":"uint256","internalType":"uint256"},{"name":"mintedAt","type":"uint256","internalType":"uint256"},{"name":"isUsed","type":"bool","internalType":"bool"}]}],"stateMutability":"view"},{"type":"function","name":"isApprovedForAll","inputs":[{"name":"owner","type":"address","internalType":"address"},{"name":"operator","type":"address","internalType":"address"}],"outputs":[{"name":"","type":"bool","internalType":"bool"}],"stateMutability":"view"},{"type":"function","name":"isTicketUsed","inputs":[{"name":"tokenId","type":"uint256","internalType":"uint256"}],"outputs":[{"name":"","type":"bool","internalType":"bool"}],"stateMutability":"view"},{"type":"function","name":"markTicketAsUsed","inputs":[{"name":"tokenId","type":"uint256","internalType":"uint256"}],"outputs":[],"stateMutability":"nonpayable"},{"type":"function","name":"mintTicket","inputs":[{"name":"eventId","type":"uint256","internalType":"uint256"},{"name":"to","type":"address","internalType":"address"}],"outputs":[{"name":"tokenId","type":"uint256","internalType":"uint256"}],"stateMutability":"payable"},{"type":"function","name":"name","inputs":[],"outputs":[{"name":"","type":"string","internalType":"string"}],"stateMutability":"view"},{"type":"function","name":"owner","inputs":[],"outputs":[{"name":"","type":"address","internalType":"address"}],"stateMutability":"view"},{"type":"function","name":"ownerOf","inputs":[{"name":"tokenId","type":"uint256","internalType":"uint256"}],"outputs":[{"name":"","type":"address","internalType":"address"}],"stateMutability":"view"},{"type":"function","name":"renounceOwnership","inputs":[],"outputs":[],"stateMutability":"nonpayable"},{"type":"function","name":"safeTransferFrom","inputs":[{"name":"from","type":"address","internalType":"address"},{"name":"to","type":"address","internalType":"address"},{"name":"tokenId","type":"uint256","internalType":"uint256"}],"outputs":[],"stateMutability":"nonpayable"},{"type":"function","name":"safeTransferFrom","inputs":[{"name":"from","type":"address","internalType":"address"},{"name":"to","type":"address","internalType":"address"},{"name":"tokenId","type":"uint256","internalType":"uint256"},{"name":"data","type":"bytes","internalType":"bytes"}],"outputs":[],"stateMutability":"nonpayable"},{"type":"function","name":"setApprovalForAll","inputs":[{"name":"operator","type":"address","internalType":"address"},{"name":"approved","type":"bool","internalType":"bool"}],"outputs":[],"stateMutability":"nonpayable"},{"type":"function","name":"setTokenURI","inputs":[{"name":"tokenId","type":"uint256","internalType":"uint256"},{"name":"uri","type":"string","internalType":"string"}],"outputs":[],"stateMutability":"nonpayable"},{"type":"function","name":"supportsInterface","inputs":[{"name":"interfaceId","type":"bytes4","internalType":"bytes4"}],"outputs":[{"name":"","type":"bool","internalType":"bool"}],"stateMutability":"view"},{"type":"function","name":"symbol","inputs":[],"outputs":[{"name":"","type":"string","internalType":"string"}],"stateMutability":"view"},{"type":"function","name":"tickets","inputs":[{"name":"","type":"uint256","internalType":"uint256"}],"outputs":[{"name":"eventId","type":"uint256","internalType":"uint256"},{"name":"ticketNumber","type":"uint256","internalType":"uint256"},{"name":"mintedAt","type":"uint256","internalType":"uint256"},{"name":"isUsed","type":"bool","internalType":"bool"}],"stateMutability":"view"},{"type":"function","name":"toggleEventStatus","inputs":[{"name":"eventId","type":"uint256","internalType":"uint256"}],"outputs":[],"stateMutability":"nonpayable"},{"type":"function","name":"tokenURI","inputs":[{"name":"tokenId","type":"uint256","internalType":"uint256"}],"outputs":[{"name":"","type":"string","internalType":"string"}],"stateMutability":"view"},{"type":"function","name":"transferFrom","inputs":[{"name":"from","type":"address","internalType":"address"},{"name":"to","type":"address","internalType":"address"},{"name":"tokenId","type":"uint256","internalType":"uint256"}],"outputs":[],"stateMutability":"nonpayable"},{"type":"function","name":"transferOwnership","inputs":[{"name":"newOwner","type":"address","internalType":"address"}],"outputs":[],"stateMutability":"nonpayable"},{"type":"function","name":"withdraw","inputs":[],"outputs":[],"stateMutability":"nonpayable"},{"type":"event","name":"Approval","inputs":[{"name":"owner","type":"address","indexed":true,"internalType":"address"},{"name":"approved","type":"address","indexed":true,"internalType":"address"},{"name":"tokenId","type":"uint256","indexed":true,"internalType":"uint256"}],"anonymous":false},{"type":"event","name":"ApprovalForAll","inputs":[{"name":"owner","type":"address","indexed":true,"internalType":"address"},{"name":"operator","type":"address","indexed":true,"internalType":"address"},{"name":"approved","type":"bool","indexed":false,"internalType":"bool"}],"anonymous":false},{"type":"event","name":"EventCreated","inputs":[{"name":"eventId","type":"uint256","indexed":true,"internalType":"uint256"},{"name":"eventName","type":"string","indexed":false,"internalType":"string"},{"name":"totalSupply","type":"uint256","indexed":false,"internalType":"uint256"},{"name":"price","type":"uint256","indexed":false,"internalType":"uint256"}],"anonymous":false},{"type":"event","name":"OwnershipTransferred","inputs":[{"name":"previousOwner","type":"address","indexed":true,"internalType":"address"},{"name":"newOwner","type":"address","indexed":true,"internalType":"address"}],"anonymous":false},{"type":"event","name":"TicketMinted","inputs":[{"name":"tokenId","type":"uint256","indexed":true,"internalType":"uint256"},{"name":"eventId","type":"uint256","indexed":true,"internalType":"uint256"},{"name":"owner","type":"address","indexed":true,"internalType":"address"},{"name":"ticketNumber","type":"uint256","indexed":false,"internalType":"uint256"}],"anonymous":false},{"type":"event","name":"TicketUsed","inputs":[{"name":"tokenId","type":"uint256","indexed":true,"internalType":"uint256"},{"name":"owner","type":"address","indexed":true,"internalType":"address"},{"name":"timestamp","type":"uint256","indexed":false,"internalType":"uint256"}],"anonymous":false},{"type":"event","name":"Transfer","inputs":[{"name":"from","type":"address","indexed":true,"internalType":"address"},{"name":"to","type":"address","indexed":true,"internalType":"address"},{"name":"tokenId","type":"uint256","indexed":true,"internalType":"uint256"}],"anonymous":false},{"type":"error","name":"ERC721IncorrectOwner","inputs":[{"name":"sender","type":"address","internalType":"address"},{"name":"tokenId","type":"uint256","internalType":"uint256"},{"name":"owner","type":"address","internalType":"address"}]},{"type":"error","name":"ERC721InsufficientApproval","inputs":[{"name":"operator","type":"address","internalType":"address"},{"name":"tokenId","type":"uint256","internalType":"uint256"}]},{"type":"error","name":"ERC721InvalidApprover","inputs":[{"name":"approver","type":"address","internalType":"address"}]},{"type":"error","name":"ERC721InvalidOperator","inputs":[{"name":"operator","type":"address","internalType":"address"}]},{"type":"error","name":"ERC721InvalidOwner","inputs":[{"name":"owner","type":"address","internalType":"address"}]},{"type":"error","name":"ERC721InvalidReceiver","inputs":[{"name":"receiver","type":"address","internalType":"address"}]},{"type":"error","name":"ERC721InvalidSender","inputs":[{"name":"sender","type":"address","internalType":"address"}]},{"type":"error","name":"ERC721NonexistentToken","inputs":[{"name":"tokenId","type":"uint256","internalType":"uint256"}]},{"type":"error","name":"EventNotActive","inputs":[]},{"type":"error","name":"InsufficientPayment","inputs":[]},{"type":"error","name":"InvalidEventId","inputs":[]},{"type":"error","name":"OwnableInvalidOwner","inputs":[{"name":"owner","type":"address","internalType":"address"}]},{"type":"error","name":"OwnableUnauthorizedAccount","inputs":[{"name":"account","type":"address","internalType":"address"}]},{"type":"error","name":"SoldOut","inputs":[]},{"type":"error","name":"TicketAlreadyUsed","inputs":[]}],"bytecode":{"object":"0x608060405234801562000010575f80fd5b50336040518060400160405280600b81526020016a115d995b9d151a58dad95d60aa1b8152506040518060400160405280600481526020016308aa892b60e31b815250815f9081620000639190620001ae565b506001620000728282620001ae565b5050506001600160a01b038116620000a357604051631e4fbdf760e01b81525f600482015260240160405180910390fd5b620000ae81620000bf565b50600160078190556008556200027a565b600680546001600160a01b038381166001600160a01b0319831681179093556040519116919082907f8be0079c531659141344cd1fd0a4f28419497f9722a3daafe3b4186f6b6457e0905f90a35050565b634e487b7160e01b5f52604160045260245ffd5b600181811c908216806200013957607f821691505b6020821081036200015857634e487b7160e01b5f52602260045260245ffd5b50919050565b601f821115620001a957805f5260205f20601f840160051c81016020851015620001855750805b601f840160051c820191505b81811015620001a6575f815560010162000191565b50505b505050565b81516001600160401b03811115620001ca57620001ca62000110565b620001e281620001db845462000124565b846200015e565b602080601f83116001811462000218575f8415620002005750858301515b5f19600386901b1c1916600185901b17855562000272565b5f85815260208120601f198616915b82811015620002485788860151825594840194600190910190840162000227565b50858210156200026657878501515f19600388901b60f8161c191681555b505060018460011b0185555b505050505050565b61220080620002885f395ff3fe6080604052600436106101af575f3560e01c80636d1884e0116100e7578063a718205111610087578063e13102e911610062578063e13102e914610563578063e985e9c514610582578063f2fde38b146105a1578063f5f00d84146105c0575f80fd5b8063a718205114610512578063b88d4fde14610525578063c87b56dd14610544575f80fd5b80637dc379fa116100c25780637dc379fa1461046e5780638da5cb5b146104c257806395d89b41146104df578063a22cb465146104f3575f80fd5b80636d1884e01461040f57806370a082311461043b578063715018a61461045a575f80fd5b80631af32d78116101525780633ccfd60b1161012d5780633ccfd60b1461035857806342842e0e1461036c57806350b447121461038b5780636352211e146103f0575f80fd5b80631af32d78146102cf57806323b872dd146103085780632cd1d35c14610327575f80fd5b8063095ea7b31161018d578063095ea7b31461023f5780630a15fa8b146102605780630b7914301461027f578063162094c4146102b0575f80fd5b806301ffc9a7146101b357806306fdde03146101e7578063081812fc14610208575b5f80fd5b3480156101be575f80fd5b506101d26101cd366004611a62565b6105df565b60405190151581526020015b60405180910390f35b3480156101f2575f80fd5b506101fb610630565b6040516101de9190611ac7565b348015610213575f80fd5b50610227610222366004611ad9565b6106bf565b6040516001600160a01b0390911681526020016101de565b34801561024a575f80fd5b5061025e610259366004611b0b565b6106e6565b005b34801561026b575f80fd5b5061025e61027a366004611ad9565b6106f5565b34801561028a575f80fd5b5061029e610299366004611ad9565b610791565b6040516101de96959493929190611b33565b3480156102bb575f80fd5b5061025e6102ca366004611bd1565b61095b565b3480156102da575f80fd5b506102fa6102e9366004611ad9565b600b6020525f908152604090205481565b6040519081526020016101de565b348015610313575f80fd5b5061025e610322366004611c19565b610981565b348015610332575f80fd5b506101d2610341366004611ad9565b5f908152600a602052604090206003015460ff1690565b348015610363575f80fd5b5061025e610a09565b348015610377575f80fd5b5061025e610386366004611c19565b610ab8565b348015610396575f80fd5b506103ce6103a5366004611ad9565b600a6020525f908152604090208054600182015460028301546003909301549192909160ff1684565b60408051948552602085019390935291830152151560608201526080016101de565b3480156103fb575f80fd5b5061022761040a366004611ad9565b610ad7565b34801561041a575f80fd5b5061042e610429366004611ad9565b610ae1565b6040516101de9190611c52565b348015610446575f80fd5b506102fa610455366004611cd6565b610d37565b348015610465575f80fd5b5061025e610d7c565b348015610479575f80fd5b5061048d610488366004611ad9565b610d8f565b6040516101de919081518152602080830151908201526040808301519082015260609182015115159181019190915260800190565b3480156104cd575f80fd5b506006546001600160a01b0316610227565b3480156104ea575f80fd5b506101fb610e01565b3480156104fe575f80fd5b5061025e61050d366004611cef565b610e10565b6102fa610520366004611d28565b610e1b565b348015610530575f80fd5b5061025e61053f366004611d66565b611180565b34801561054f575f80fd5b506101fb61055e366004611ad9565b611198565b34801561056e575f80fd5b5061025e61057d366004611ad9565b61123f565b34801561058d575f80fd5b506101d261059c366004611e3b565b611269565b3480156105ac575f80fd5b5061025e6105bb366004611cd6565b611296565b3480156105cb575f80fd5b506102fa6105da366004611e63565b6112d0565b5f6001600160e01b031982166380ac58cd60e01b148061060f57506001600160e01b03198216635b5e139f60e01b145b8061062a57506301ffc9a760e01b6001600160e01b03198316145b92915050565b60605f805461063e90611f04565b80601f016020809104026020016040519081016040528092919081815260200182805461066a90611f04565b80156106b55780601f1061068c576101008083540402835291602001916106b5565b820191905f5260205f20905b81548152906001019060200180831161069857829003601f168201915b5050505050905090565b5f6106c982611475565b505f828152600460205260409020546001600160a01b031661062a565b6106f18282336114ad565b5050565b5f818152600a602052604090206003015460ff161561072757604051630869773360e41b815260040160405180910390fd5b5f818152600a60205260409020600301805460ff1916600117905561074b81610ad7565b6001600160a01b0316817f4f9c6210874b14266ea0f64418a0f7403a875226eae9483f5d9cd7663234db9a4260405161078691815260200190565b60405180910390a350565b60096020525f90815260409020805481906107ab90611f04565b80601f01602080910402602001604051908101604052809291908181526020018280546107d790611f04565b80156108225780601f106107f957610100808354040283529160200191610822565b820191905f5260205f20905b81548152906001019060200180831161080557829003601f168201915b50505050509080600101805461083790611f04565b80601f016020809104026020016040519081016040528092919081815260200182805461086390611f04565b80156108ae5780601f10610885576101008083540402835291602001916108ae565b820191905f5260205f20905b81548152906001019060200180831161089157829003601f168201915b5050505050908060020180546108c390611f04565b80601f01602080910402602001604051908101604052809291908181526020018280546108ef90611f04565b801561093a5780601f106109115761010080835404028352916020019161093a565b820191905f5260205f20905b81548152906001019060200180831161091d57829003601f168201915b50505050600383015460048401546005909401549293909290915060ff1686565b6109636114ba565b5f838152600c6020526040902061097b828483611f80565b50505050565b6001600160a01b0382166109af57604051633250574960e11b81525f60048201526024015b60405180910390fd5b5f6109bb8383336114e7565b9050836001600160a01b0316816001600160a01b03161461097b576040516364283d7b60e01b81526001600160a01b03808616600483015260248201849052821660448201526064016109a6565b610a116114ba565b5f610a246006546001600160a01b031690565b6001600160a01b0316476040515f6040518083038185875af1925050503d805f8114610a6b576040519150601f19603f3d011682016040523d82523d5f602084013e610a70565b606091505b5050905080610ab55760405162461bcd60e51b815260206004820152601160248201527015da5d1a191c985dd85b0819985a5b1959607a1b60448201526064016109a6565b50565b610ad283838360405180602001604052805f815250611180565b505050565b5f61062a82611475565b610b196040518060c001604052806060815260200160608152602001606081526020015f81526020015f81526020015f151581525090565b811580610b2857506008548210155b15610b4657604051630c93477d60e41b815260040160405180910390fd5b5f8281526009602052604090819020815160c08101909252805482908290610b6d90611f04565b80601f0160208091040260200160405190810160405280929190818152602001828054610b9990611f04565b8015610be45780601f10610bbb57610100808354040283529160200191610be4565b820191905f5260205f20905b815481529060010190602001808311610bc757829003601f168201915b50505050508152602001600182018054610bfd90611f04565b80601f0160208091040260200160405190810160405280929190818152602001828054610c2990611f04565b8015610c745780601f10610c4b57610100808354040283529160200191610c74565b820191905f5260205f20905b815481529060010190602001808311610c5757829003601f168201915b50505050508152602001600282018054610c8d90611f04565b80601f0160208091040260200160405190810160405280929190818152602001828054610cb990611f04565b8015610d045780601f10610cdb57610100808354040283529160200191610d04565b820191905f5260205f20905b815481529060010190602001808311610ce757829003601f168201915b5050509183525050600382015460208201526004820154604082015260059091015460ff16151560609091015292915050565b5f6001600160a01b038216610d61576040516322718ad960e21b81525f60048201526024016109a6565b506001600160a01b03165f9081526003602052604090205490565b610d846114ba565b610d8d5f6115d9565b565b610db860405180608001604052805f81526020015f81526020015f81526020015f151581525090565b505f908152600a602090815260409182902082516080810184528154815260018201549281019290925260028101549282019290925260039091015460ff161515606082015290565b60606001805461063e90611f04565b6106f133838361162a565b5f82815260096020526040808220815160c0810190925280548392919082908290610e4590611f04565b80601f0160208091040260200160405190810160405280929190818152602001828054610e7190611f04565b8015610ebc5780601f10610e9357610100808354040283529160200191610ebc565b820191905f5260205f20905b815481529060010190602001808311610e9f57829003601f168201915b50505050508152602001600182018054610ed590611f04565b80601f0160208091040260200160405190810160405280929190818152602001828054610f0190611f04565b8015610f4c5780601f10610f2357610100808354040283529160200191610f4c565b820191905f5260205f20905b815481529060010190602001808311610f2f57829003601f168201915b50505050508152602001600282018054610f6590611f04565b80601f0160208091040260200160405190810160405280929190818152602001828054610f9190611f04565b8015610fdc5780601f10610fb357610100808354040283529160200191610fdc565b820191905f5260205f20905b815481529060010190602001808311610fbf57829003601f168201915b5050509183525050600382015460208201526004820154604082015260059091015460ff16151560609091015260a081015190915061102e576040516301e1837960e31b815260040160405180910390fd5b60808101515f858152600b60205260409020541061105f576040516352df9fe560e01b815260040160405180910390fd5b80606001513410156110845760405163cd1c886760e01b815260040160405180910390fd5b60078054905f6110938361204e565b909155505f858152600b6020526040812054919350906110b4906001612066565b604080516080810182528781526020808201848152428385019081525f606085018181528a8252600a855286822095518655925160018601559051600285015590516003909301805460ff191693151593909317909255888252600b90529081208054929350906111248361204e565b919050555061113384846116c8565b836001600160a01b031685847f4fe0f5bb11eb6ab81c428fb83261719e5b22f84b3e1942cd491c3777504bb8518460405161117091815260200190565b60405180910390a4505092915050565b61118b848484610981565b61097b33858585856116e1565b60606111a382611475565b505f828152600c6020526040902080546111bc90611f04565b80601f01602080910402602001604051908101604052809291908181526020018280546111e890611f04565b80156112335780601f1061120a57610100808354040283529160200191611233565b820191905f5260205f20905b81548152906001019060200180831161121657829003601f168201915b50505050509050919050565b6112476114ba565b5f908152600960205260409020600501805460ff19811660ff90911615179055565b6001600160a01b039182165f90815260056020908152604080832093909416825291909152205460ff1690565b61129e6114ba565b6001600160a01b0381166112c757604051631e4fbdf760e01b81525f60048201526024016109a6565b610ab5816115d9565b5f6112d96114ba565b60088054905f6112e88361204e565b909155506040805160e06020601f8d01819004028201810190925260c081018b81529293509182918c908c90819085018382808284375f92019190915250505090825250604080516020601f8b0181900481028201810190925289815291810191908a908a90819084018382808284375f92019190915250505090825250604080516020601f8901819004810282018101909252878152918101919088908890819084018382808284375f9201829052509385525050506020808301879052604080840187905260016060909401939093528482526009905220815181906113d09082612079565b50602082015160018201906113e59082612079565b50604082015160028201906113fa9082612079565b50606082015160038201556080820151600482015560a0909101516005909101805460ff191691151591909117905560405181907f42e6867e52299b45991308391cccb9ee79466d194059ff10fc15c2d88f0ea06190611461908c908c9087908990612135565b60405180910390a298975050505050505050565b5f818152600260205260408120546001600160a01b03168061062a57604051637e27328960e01b8152600481018490526024016109a6565b610ad28383836001611809565b6006546001600160a01b03163314610d8d5760405163118cdaa760e01b81523360048201526024016109a6565b5f828152600260205260408120546001600160a01b03908116908316156115135761151381848661190d565b6001600160a01b0381161561154d5761152e5f855f80611809565b6001600160a01b0381165f90815260036020526040902080545f190190555b6001600160a01b0385161561157b576001600160a01b0385165f908152600360205260409020805460010190555b5f8481526002602052604080822080546001600160a01b0319166001600160a01b0389811691821790925591518793918516917fddf252ad1be2c89b69c2b068fc378daa952ba7f163c4a11628f55a4df523b3ef91a4949350505050565b600680546001600160a01b038381166001600160a01b0319831681179093556040519116919082907f8be0079c531659141344cd1fd0a4f28419497f9722a3daafe3b4186f6b6457e0905f90a35050565b6001600160a01b03821661165c57604051630b61174360e31b81526001600160a01b03831660048201526024016109a6565b6001600160a01b038381165f81815260056020908152604080832094871680845294825291829020805460ff191686151590811790915591519182527f17307eab39ab6107e8899845ad3d59bd9653f200f220920489ca2b5937696c31910160405180910390a3505050565b6106f1828260405180602001604052805f815250611971565b6001600160a01b0383163b1561180257604051630a85bd0160e11b81526001600160a01b0384169063150b7a0290611723908890889087908790600401612173565b6020604051808303815f875af192505050801561175d575060408051601f3d908101601f1916820190925261175a918101906121af565b60015b6117c4573d80801561178a576040519150601f19603f3d011682016040523d82523d5f602084013e61178f565b606091505b5080515f036117bc57604051633250574960e11b81526001600160a01b03851660048201526024016109a6565b805160208201fd5b6001600160e01b03198116630a85bd0160e11b1461180057604051633250574960e11b81526001600160a01b03851660048201526024016109a6565b505b5050505050565b808061181d57506001600160a01b03821615155b156118de575f61182c84611475565b90506001600160a01b038316158015906118585750826001600160a01b0316816001600160a01b031614155b801561186b57506118698184611269565b155b156118945760405163a9fbf51f60e01b81526001600160a01b03841660048201526024016109a6565b81156118dc5783856001600160a01b0316826001600160a01b03167f8c5be1e5ebec7d5bd14f71427d1e84f3dd0314c0f7b2291e5b200ac8c7c3b92560405160405180910390a45b505b50505f90815260046020526040902080546001600160a01b0319166001600160a01b0392909216919091179055565b611918838383611988565b610ad2576001600160a01b03831661194657604051637e27328960e01b8152600481018290526024016109a6565b60405163177e802f60e01b81526001600160a01b0383166004820152602481018290526044016109a6565b61197b83836119ec565b610ad2335f8585856116e1565b5f6001600160a01b038316158015906119e45750826001600160a01b0316846001600160a01b031614806119c157506119c18484611269565b806119e457505f828152600460205260409020546001600160a01b038481169116145b949350505050565b6001600160a01b038216611a1557604051633250574960e11b81525f60048201526024016109a6565b5f611a2183835f6114e7565b90506001600160a01b03811615610ad2576040516339e3563760e11b81525f60048201526024016109a6565b6001600160e01b031981168114610ab5575f80fd5b5f60208284031215611a72575f80fd5b8135611a7d81611a4d565b9392505050565b5f81518084525f5b81811015611aa857602081850181015186830182015201611a8c565b505f602082860101526020601f19601f83011685010191505092915050565b602081525f611a7d6020830184611a84565b5f60208284031215611ae9575f80fd5b5035919050565b80356001600160a01b0381168114611b06575f80fd5b919050565b5f8060408385031215611b1c575f80fd5b611b2583611af0565b946020939093013593505050565b60c081525f611b4560c0830189611a84565b8281036020840152611b578189611a84565b90508281036040840152611b6b8188611a84565b606084019690965250506080810192909252151560a0909101529392505050565b5f8083601f840112611b9c575f80fd5b50813567ffffffffffffffff811115611bb3575f80fd5b602083019150836020828501011115611bca575f80fd5b9250929050565b5f805f60408486031215611be3575f80fd5b83359250602084013567ffffffffffffffff811115611c00575f80fd5b611c0c86828701611b8c565b9497909650939450505050565b5f805f60608486031215611c2b575f80fd5b611c3484611af0565b9250611c4260208501611af0565b9150604084013590509250925092565b602081525f825160c06020840152611c6d60e0840182611a84565b90506020840151601f1980858403016040860152611c8b8383611a84565b9250604086015191508085840301606086015250611ca98282611a84565b91505060608401516080840152608084015160a084015260a0840151151560c08401528091505092915050565b5f60208284031215611ce6575f80fd5b611a7d82611af0565b5f8060408385031215611d00575f80fd5b611d0983611af0565b915060208301358015158114611d1d575f80fd5b809150509250929050565b5f8060408385031215611d39575f80fd5b82359150611d4960208401611af0565b90509250929050565b634e487b7160e01b5f52604160045260245ffd5b5f805f8060808587031215611d79575f80fd5b611d8285611af0565b9350611d9060208601611af0565b925060408501359150606085013567ffffffffffffffff80821115611db3575f80fd5b818701915087601f830112611dc6575f80fd5b813581811115611dd857611dd8611d52565b604051601f8201601f19908116603f01168101908382118183101715611e0057611e00611d52565b816040528281528a6020848701011115611e18575f80fd5b826020860160208301375f60208483010152809550505050505092959194509250565b5f8060408385031215611e4c575f80fd5b611e5583611af0565b9150611d4960208401611af0565b5f805f805f805f8060a0898b031215611e7a575f80fd5b883567ffffffffffffffff80821115611e91575f80fd5b611e9d8c838d01611b8c565b909a50985060208b0135915080821115611eb5575f80fd5b611ec18c838d01611b8c565b909850965060408b0135915080821115611ed9575f80fd5b50611ee68b828c01611b8c565b999c989b509699959896976060870135966080013595509350505050565b600181811c90821680611f1857607f821691505b602082108103611f3657634e487b7160e01b5f52602260045260245ffd5b50919050565b601f821115610ad257805f5260205f20601f840160051c81016020851015611f615750805b601f840160051c820191505b81811015611802575f8155600101611f6d565b67ffffffffffffffff831115611f9857611f98611d52565b611fac83611fa68354611f04565b83611f3c565b5f601f841160018114611fdd575f8515611fc65750838201355b5f19600387901b1c1916600186901b178355611802565b5f83815260208120601f198716915b8281101561200c5786850135825560209485019460019092019101611fec565b5086821015612028575f1960f88860031b161c19848701351681555b505060018560011b0183555050505050565b634e487b7160e01b5f52601160045260245ffd5b5f6001820161205f5761205f61203a565b5060010190565b8082018082111561062a5761062a61203a565b815167ffffffffffffffff81111561209357612093611d52565b6120a7816120a18454611f04565b84611f3c565b602080601f8311600181146120da575f84156120c35750858301515b5f19600386901b1c1916600185901b178555611800565b5f85815260208120601f198616915b82811015612108578886015182559484019460019091019084016120e9565b508582101561212557878501515f19600388901b60f8161c191681555b5050505050600190811b01905550565b60608152836060820152838560808301375f608085830101525f6080601f19601f870116830101905083602083015282604083015295945050505050565b6001600160a01b03858116825284166020820152604081018390526080606082018190525f906121a590830184611a84565b9695505050505050565b5f602082840312156121bf575f80fd5b8151611a7d81611a4d56fea264697066735822122016a4a6d71752e675b8bbaa27193fe06539ad133992e39396fd3cc47668ca97fd64736f6c63430008180033","linkReferences":{}},"methodIdentifiers":{"approve(address,uint256)":"095ea7b3","balanceOf(address)":"70a08231","createEvent(string,string,string,uint256,uint256)":"f5f00d84","eventTicketCount(uint256)":"1af32d78","events(uint256)":"0b791430","getApproved(uint256)":"081812fc","getEvent(uint256)":"6d1884e0","getTicket(uint256)":"7dc379fa","isApprovedForAll(address,address)":"e985e9c5","isTicketUsed(uint256)":"2cd1d35c","markTicketAsUsed(uint256)":"0a15fa8b","mintTicket(uint256,address)":"a7182051","name()":"06fdde03","owner()":"8da5cb5b","ownerOf(uint256)":"6352211e","renounceOwnership()":"715018a6","safeTransferFrom(address,address,uint256)":"42842e0e","safeTransferFrom(address,address,uint256,bytes)":"b88d4fde","setApprovalForAll(address,bool)":"a22cb465","setTokenURI(uint256,string)":"162094c4","supportsInterface(bytes4)":"01ffc9a7","symbol()":"95d89b41","tickets(uint256)":"50b44712","toggleEventStatus(uint256)":"e13102e9","tokenURI(uint256)":"c87b56dd","transferFrom(address,address,uint256)":"23b872dd","transferOwnership(address)":"f2fde38b","withdraw()":"3ccfd60b"},"id":32}