{"abi":[{"type":"constructor","inputs":[],"stateMutability":"nonpayable"},{"type":"function","name":"approve","inputs":[{"name":"to","type":"address","internalType":"address"},{"name":"tokenId","type":"uint256","internalType":"uint256"}],"outputs":[],"stateMutability":"nonpayable"},{"type":"function","name":"balanceOf","inputs":[{"name":"owner","type":"address","internalType":"address"}],"outputs":[{"name":"","type":"uint256","internalType":"uint256"}],"stateMutability":"view"},{"type":"function","name":"createEvent","inputs":[{"name":"eventName","type":"string","internalType":"string"},{"name":"eventDate","type":"string","internalType":"string"},{"name":"eventLocation","type":"string","internalType":"string"},{"name":"price","type":"uint256","internalType":"uint256"},{"name":"totalSupply","type":"uint256","internalType":"uint256"}],"outputs":[{"name":"eventId","type":"uint256","internalType":"uint256"}],"stateMutability":"nonpayable"},{"type":"function","name":"eventCounter","inputs":[],"outputs":[{"name":"","type":"uint256","internalType":"uint256"}],"stateMutability":"view"},{"type":"function","name":"eventTicketCount","inputs":[{"name":"","type":"uint256","internalType":"uint256"}],"outputs":[{"name":"","type":"uint256","internalType":"uint256"}],"stateMutability":"view"},{"type":"function","name":"events","inputs":[{"name":"","type":"uint256","internalType":"uint256"}],"outputs":[{"name":"eventName","type":"string","internalType":"string"},{"name":"eventDate","type":"string","internalType":"string"},{"name":"eventLocation","type":"string","internalType":"string"},{"name":"price","type":"uint256","internalType":"uint256"},{"name":"totalSupply","type":"uint256","internalType":"uint256"},{"name":"isActive","type":"bool","internalType":"bool"}],"stateMutability":"view"},{"type":"function","name":"getAllEvents","inputs":[],"outputs":[{"name":"","type":"tuple[]","internalType":"struct TicketNFT.TicketMetadata[]","components":[{"name":"eventName","type":"string","internalType":"string"},{"name":"eventDate","type":"string","internalType":"string"},{"name":"eventLocation","type":"string","internalType":"string"},{"name":"price","type":"uint256","internalType":"uint256"},{"name":"totalSupply","type":"uint256","internalType":"uint256"},{"name":"isActive","type":"bool","internalType":"bool"}]}],"stateMutability":"view"},{"type":"function","name":"getApproved","inputs":[{"name":"tokenId","type":"uint256","internalType":"uint256"}],"outputs":[{"name":"","type":"address","internalType":"address"}],"stateMutability":"view"},{"type":"function","name":"getEvent","inputs":[{"name":"eventId","type":"uint256","internalType":"uint256"}],"outputs":[{"name":"","type":"tuple","internalType":"struct TicketNFT.TicketMetadata","components":[{"name":"eventName","type":"string","internalType":"string"},{"name":"eventDate","type":"string","internalType":"string"},{"name":"eventLocation","type":"string","internalType":"string"},{"name":"price","type":"uint256","internalType":"uint256"},{"name":"totalSupply","type":"uint256","internalType":"uint256"},{"name":"isActive","type":"bool","internalType":"bool"}]}],"stateMutability":"view"},{"type":"function","name":"getTicket","inputs":[{"name":"tokenId","type":"uint256","internalType":"uint256"}],"outputs":[{"name":"","type":"tuple","internalType":"struct TicketNFT.Ticket","components":[{"name":"eventId","type":"uint256","internalType":"uint256"},{"name":"ticketNumber","type":"uint256","internalType":"uint256"},{"name":"mintedAt","type":"uint256","internalType":"uint256"},{"name":"isUsed","type":"bool","internalType":"bool"}]}],"stateMutability":"view"},{"type":"function","name":"getTicketInfo","inputs":[{"name":"tokenId","type":"uint256","internalType":"uint256"}],"outputs":[{"name":"eventName","type":"string","internalType":"string"},{"name":"eventDate","type":"string","internalType":"string"},{"name":"eventLocation","type":"string","internalType":"string"},{"name":"ticketNumber","type":"uint256","internalType":"uint256"},{"name":"isUsed","type":"bool","internalType":"bool"}],"stateMutability":"view"},{"type":"function","name":"isApprovedForAll","inputs":[{"name":"owner","type":"address","internalType":"address"},{"name":"operator","type":"address","internalType":"address"}],"outputs":[{"name":"","type":"bool","internalType":"bool"}],"stateMutability":"view"},{"type":"function","name":"markTicketAsUsed","inputs":[{"name":"tokenId","type":"uint256","internalType":"uint256"}],"outputs":[],"stateMutability":"nonpayable"},{"type":"function","name":"mintTicket","inputs":[{"name":"eventId","type":"uint256","internalType":"uint256"},{"name":"to","type":"address","internalType":"address"}],"outputs":[{"name":"tokenId","type":"uint256","internalType":"uint256"}],"stateMutability":"payable"},{"type":"function","name":"name","inputs":[],"outputs":[{"name":"","type":"string","internalType":"string"}],"stateMutability":"view"},{"type":"function","name":"owner","inputs":[],"outputs":[{"name":"","type":"address","internalType":"address"}],"stateMutability":"view"},{"type":"function","name":"ownerOf","inputs":[{"name":"tokenId","type":"uint256","internalType":"uint256"}],"outputs":[{"name":"","type":"address","internalType":"address"}],"stateMutability":"view"},{"type":"function","name":"renounceOwnership","inputs":[],"outputs":[],"stateMutability":"nonpayable"},{"type":"function","name":"safeTransferFrom","inputs":[{"name":"from","type":"address","internalType":"address"},{"name":"to","type":"address","internalType":"address"},{"name":"tokenId","type":"uint256","internalType":"uint256"}],"outputs":[],"stateMutability":"nonpayable"},{"type":"function","name":"safeTransferFrom","inputs":[{"name":"from","type":"address","internalType":"address"},{"name":"to","type":"address","internalType":"address"},{"name":"tokenId","type":"uint256","internalType":"uint256"},{"name":"data","type":"bytes","internalType":"bytes"}],"outputs":[],"stateMutability":"nonpayable"},{"type":"function","name":"setApprovalForAll","inputs":[{"name":"operator","type":"address","internalType":"address"},{"name":"approved","type":"bool","internalType":"bool"}],"outputs":[],"stateMutability":"nonpayable"},{"type":"function","name":"setVerifier","inputs":[{"name":"_verifier","type":"address","internalType":"address"}],"outputs":[],"stateMutability":"nonpayable"},{"type":"function","name":"supportsInterface","inputs":[{"name":"interfaceId","type":"bytes4","internalType":"bytes4"}],"outputs":[{"name":"","type":"bool","internalType":"bool"}],"stateMutability":"view"},{"type":"function","name":"symbol","inputs":[],"outputs":[{"name":"","type":"string","internalType":"string"}],"stateMutability":"view"},{"type":"function","name":"tickets","inputs":[{"name":"","type":"uint256","internalType":"uint256"}],"outputs":[{"name":"eventId","type":"uint256","internalType":"uint256"},{"name":"ticketNumber","type":"uint256","internalType":"uint256"},{"name":"mintedAt","type":"uint256","internalType":"uint256"},{"name":"isUsed","type":"bool","internalType":"bool"}],"stateMutability":"view"},{"type":"function","name":"toggleEventStatus","inputs":[{"name":"eventId","type":"uint256","internalType":"uint256"}],"outputs":[],"stateMutability":"nonpayable"},{"type":"function","name":"tokenCounter","inputs":[],"outputs":[{"name":"","type":"uint256","internalType":"uint256"}],"stateMutability":"view"},{"type":"function","name":"tokenURI","inputs":[{"name":"tokenId","type":"uint256","internalType":"uint256"}],"outputs":[{"name":"","type":"string","internalType":"string"}],"stateMutability":"view"},{"type":"function","name":"transferFrom","inputs":[{"name":"from","type":"address","internalType":"address"},{"name":"to","type":"address","internalType":"address"},{"name":"tokenId","type":"uint256","internalType":"uint256"}],"outputs":[],"stateMutability":"nonpayable"},{"type":"function","name":"transferOwnership","inputs":[{"name":"newOwner","type":"address","internalType":"address"}],"outputs":[],"stateMutability":"nonpayable"},{"type":"function","name":"verifier","inputs":[],"outputs":[{"name":"","type":"address","internalType":"address"}],"stateMutability":"view"},{"type":"function","name":"withdraw","inputs":[],"outputs":[],"stateMutability":"nonpayable"},{"type":"event","name":"Approval","inputs":[{"name":"owner","type":"address","indexed":true,"internalType":"address"},{"name":"approved","type":"address","indexed":true,"internalType":"address"},{"name":"tokenId","type":"uint256","indexed":true,"internalType":"uint256"}],"anonymous":false},{"type":"event","name":"ApprovalForAll","inputs":[{"name":"owner","type":"address","indexed":true,"internalType":"address"},{"name":"operator","type":"address","indexed":true,"internalType":"address"},{"name":"approved","type":"bool","indexed":false,"internalType":"bool"}],"anonymous":false},{"type":"event","name":"EventCreated","inputs":[{"name":"eventId","type":"uint256","indexed":true,"internalType":"uint256"},{"name":"eventName","type":"string","indexed":false,"internalType":"string"},{"name":"totalSupply","type":"uint256","indexed":false,"internalType":"uint256"},{"name":"price","type":"uint256","indexed":false,"internalType":"uint256"}],"anonymous":false},{"type":"event","name":"OwnershipTransferred","inputs":[{"name":"previousOwner","type":"address","indexed":true,"internalType":"address"},{"name":"newOwner","type":"address","indexed":true,"internalType":"address"}],"anonymous":false},{"type":"event","name":"TicketMinted","inputs":[{"name":"tokenId","type":"uint256","indexed":true,"internalType":"uint256"},{"name":"eventId","type":"uint256","indexed":true,"internalType":"uint256"},{"name":"owner","type":"address","indexed":true,"internalType":"address"},{"name":"ticketNumber","type":"uint256","indexed":false,"internalType":"uint256"}],"anonymous":false},{"type":"event","name":"TicketUsed","inputs":[{"name":"tokenId","type":"uint256","indexed":true,"internalType":"uint256"},{"name":"owner","type":"address","indexed":true,"internalType":"address"},{"name":"timestamp","type":"uint256","indexed":false,"internalType":"uint256"}],"anonymous":false},{"type":"event","name":"Transfer","inputs":[{"name":"from","type":"address","indexed":true,"internalType":"address"},{"name":"to","type":"address","indexed":true,"internalType":"address"},{"name":"tokenId","type":"uint256","indexed":true,"internalType":"uint256"}],"anonymous":false},{"type":"error","name":"ERC721IncorrectOwner","inputs":[{"name":"sender","type":"address","internalType":"address"},{"name":"tokenId","type":"uint256","internalType":"uint256"},{"name":"owner","type":"address","internalType":"address"}]},{"type":"error","name":"ERC721InsufficientApproval","inputs":[{"name":"operator","type":"address","internalType":"address"},{"name":"tokenId","type":"uint256","internalType":"uint256"}]},{"type":"error","name":"ERC721InvalidApprover","inputs":[{"name":"approver","type":"address","internalType":"address"}]},{"type":"error","name":"ERC721InvalidOperator","inputs":[{"name":"operator","type":"address","internalType":"address"}]},{"type":"error","name":"ERC721InvalidOwner","inputs":[{"name":"owner","type":"address","internalType":"address"}]},{"type":"error","name":"ERC721InvalidReceiver","inputs":[{"name":"receiver","type":"address","internalType":"address"}]},{"type":"error","name":"ERC721InvalidSender","inputs":[{"name":"sender","type":"address","internalType":"address"}]},{"type":"error","name":"ERC721NonexistentToken","inputs":[{"name":"tokenId","type":"uint256","internalType":"uint256"}]},{"type":"error","name":"EventNotActive","inputs":[]},{"type":"error","name":"InsufficientPayment","inputs":[]},{"type":"error","name":"InvalidEventId","inputs":[]},{"type":"error","name":"OwnableInvalidOwner","inputs":[{"name":"owner","type":"address","internalType":"address"}]},{"type":"error","name":"OwnableUnauthorizedAccount","inputs":[{"name":"account","type":"address","internalType":"address"}]},{"type":"error","name":"SoldOut","inputs":[]},{"type":"error","name":"TicketAlreadyUsed","inputs":[]},{"type":"error","name":"Unauthorized","inputs":[]}],"bytecode":{"object":"0x6080346200034b576001600160401b03906040908082018381118282101762000269578252600c81526020926b456c6c69707469436865636b60a01b8483015282519383850185811083821117620002695784526003855262454c4360e81b8186015282519082821162000269575f54916001948584811c9416801562000340575b838510146200024a578190601f94858111620002ed575b50839085831160011462000289575f926200027d575b50505f19600383901b1c191690851b175f555b8551928311620002695783548481811c911680156200025e575b828210146200024a5782811162000202575b50809183116001146200019d5750819293945f9262000191575b50505f19600383901b1c191690821b1781555b33156200017a5760068054336001600160a01b0319821681179092559251926001600160a01b03167f8be0079c531659141344cd1fd0a4f28419497f9722a3daafe3b4186f6b6457e05f80a380600755600855612e849081620003508239f35b8151631e4fbdf760e01b81525f6004820152602490fd5b015190505f8062000107565b90601f19831695845f52825f20925f905b888210620001ea5750508385969710620001d1575b505050811b0181556200011a565b01515f1960f88460031b161c191690555f8080620001c3565b808785968294968601518155019501930190620001ae565b845f52815f208380860160051c82019284871062000240575b0160051c019085905b82811062000234575050620000ed565b5f815501859062000224565b925081926200021b565b634e487b7160e01b5f52602260045260245ffd5b90607f1690620000db565b634e487b7160e01b5f52604160045260245ffd5b015190505f80620000ae565b90879350601f198316915f8052855f20925f5b87828210620002d65750508411620002bd575b505050811b015f55620000c1565b01515f1960f88460031b161c191690555f8080620002af565b8385015186558b979095019493840193016200029c565b9091505f8052835f208580850160051c82019286861062000336575b918991869594930160051c01915b8281106200032757505062000098565b5f815585945089910162000317565b9250819262000309565b93607f169362000081565b5f80fdfe6080806040526004361015610012575f80fd5b5f3560e01c90816301ffc9a7146124035750806306fdde031461235c578063081812fc14612320578063095ea7b31461223f5780630a15fa8b1461218a5780630b791430146120e55780631af32d78146120bb57806323b872dd146120a45780632b7ac3f31461207c5780633ccfd60b1461200a57806342842e0e14611fdd57806350b4471214611f8c57806352c55db914611f635780635437988d14611f205780636352211e14611ef05780636d1884e014611e7e57806370a0823114611e28578063715018a614611dcd5780637dc379fa14611d2b5780638da5cb5b14611d0357806395d89b4114611c25578063a22cb46514611b7b578063a71820511461182d578063b88d4fde146117c2578063c27a500d14611698578063c87b56dd146108c9578063d082e3811461088c578063e13102e91461084a578063e985e9c5146107f8578063f2fde38b1461076c578063f5f00d841461024f5763ff99a0631461017c575f80fd5b3461024b5760208060031936011261024b576102219060043561019e816129ec565b505f52600a815260405f20604051906101b682612518565b8054808352606060ff600360018501549487870195865260028101546040880152015416930192151583525f526009835261023c6101f660405f2061293f565b9161022e8351956040818601519501519251955115159460405198899860a08a5260a08a019061248f565b918883039089015261248f565b90858203604087015261248f565b91606084015260808301520390f35b5f80fd5b3461024b5760a036600319011261024b576004356001600160401b03811161024b5761027f90369060040161272d565b906024356001600160401b03811161024b5761029f90369060040161272d565b6044929192356001600160401b03811161024b576102c461030c91369060040161272d565b6102cc612a26565b610300600854966102dc8861299f565b600855604051956102ec87612533565b6102f7368b8a6126f7565b875236916126f7565b602085015236916126f7565b604082015260643560608201526084356080820152600160a0820152825f52600960205260405f209080518051906001600160401b0382116105cf57819061035485546124e0565b601f811161071f575b50602090601f83116001146106b7575f926106ac575b50508160011b915f199060031b1c19161782555b60208101518051906001600160401b0382116105cf5781906103ac60018601546124e0565b601f811161065c575b50602090601f83116001146105ee575f926105e3575b50508160011b915f199060031b1c19161760018301555b60408101518051906001600160401b0382116105cf5761040560028501546124e0565b601f811161058b575b509160209693918695938890601f83116001146104ea5760a07f42e6867e52299b45991308391cccb9ee79466d194059ff10fc15c2d88f0ea0619796948461049f95608098956005955f926104df575b50508160011b915f199060031b1c19161760028501555b606081015160038501558681015160048501550151151591019060ff801983541691151516179055565b8260405193849260608452816060850152848401375f828201840152608435888301526064356040830152601f01601f19168101030190a2604051908152f35b015190508e8061045e565b60028594939298979695015f52895f20905f5b601f1984168110610571575061049f936001846005947f42e6867e52299b45991308391cccb9ee79466d194059ff10fc15c2d88f0ea0619b9c60a09560809b9a98601f19811610610559575b505050811b016002850155610475565b01515f1960f88460031b161c191690558e8080610549565b818a01518355988b01988a98506001909201918b016104fd565b600285015f5260205f20601f840160051c8101602085106105c8575b601f830160051c820181106105bd57505061040e565b5f81556001016105a7565b50806105a7565b634e487b7160e01b5f52604160045260245ffd5b0151905087806103cb565b9250600185015f5260205f20905f935b601f1984168510610641576001945083601f19811610610629575b505050811b0160018301556103e2565b01515f1960f88460031b161c19169055878080610619565b818101518355602094850194600190930192909101906105fe565b909150600185015f5260205f20601f840160051c8101602085106106a5575b90849392915b601f830160051c820181106106975750506103b5565b5f8155859450600101610681565b508061067b565b015190508780610373565b9250845f5260205f20905f935b601f1984168510610704576001945083601f198116106106ec575b505050811b018255610387565b01515f1960f88460031b161c191690558780806106df565b818101518355602094850194600190930192909101906106c4565b909150845f5260205f20601f840160051c810160208510610765575b90849392915b601f830160051c8201811061075757505061035d565b5f8155859450600101610741565b508061073b565b3461024b57602036600319011261024b576107856124b4565b61078d612a26565b6001600160a01b039081169081156107e057600654826bffffffffffffffffffffffff60a01b821617600655167f8be0079c531659141344cd1fd0a4f28419497f9722a3daafe3b4186f6b6457e05f80a3005b604051631e4fbdf760e01b81525f6004820152602490fd5b3461024b57604036600319011261024b576108116124b4565b6108196124ca565b9060018060a01b038091165f52600560205260405f2091165f52602052602060ff60405f2054166040519015158152f35b3461024b57602036600319011261024b57610863612a26565b6004355f908152600960205260409020600501805460ff818116151660ff19909116179055005b005b3461024b575f36600319011261024b576007545f1981019081116108b557602090604051908152f35b634e487b7160e01b5f52601160045260245ffd5b3461024b5760208060031936011261024b576004356108e7816129ec565b50805f52600a825260405f206040516108ff81612518565b8154808252606060ff600360018601549588860196875260028101546040870152015416920191151582525f526009845261093c60405f2061293f565b9283518585019086825193604088019283519561096261095c8a51612c0d565b93612c0d565b8851156116735760405161097581612569565b600781526608d9598d0d0d0d60ca1b86820152975b89511561164b5760405161099d81612569565b600881526738a724c81554d15160c21b87820152935b604080517f3c7376672077696474683d2234303022206865696768743d223630302220786d898201527f6c6e733d22687474703a2f2f7777772e77332e6f72672f323030302f7376672291810191909152601f60f91b6060820152651e3232b3399f60d11b60618201527f3c6c696e6561724772616469656e742069643d2267726164222078313d22302560678201527f222079313d223025222078323d2231303025222079323d2231303025223e000060878201527f3c73746f70206f66667365743d22302522207374796c653d2273746f702d636f60a58201527f6c6f723a726762283134372c35312c323334293b73746f702d6f70616369747960c5820152651d189110179f60d11b60e58201527f3c73746f70206f66667365743d223130302522207374796c653d2273746f702d60eb8201527f636f6c6f723a7267622837392c37302c323239293b73746f702d6f706163697461010b820152663c9d189110179f60c91b61012b820152701e17b634b732b0b923b930b234b2b73a1f60791b610132820152661e17b232b3399f60c91b610143808301919091527f3c726563742077696474683d2234303022206865696768743d2236303022206661014a8301527f696c6c3d2275726c28236772616429222072783d223230222f3e00000000000061016a8301527f3c7265637420783d2232302220793d223230222077696474683d2233363022206101848301527f6865696768743d22353630222066696c6c3d227768697465222072783d2231356101a483015271111037b830b1b4ba3c9e9118171c9a91179f60711b6101c48301527f3c7465787420783d223230302220793d2238302220666f6e742d66616d696c796101d68301527f3d22417269616c2220666f6e742d73697a653d2232382220666f6e742d7765696101f68301527f6768743d22626f6c642220746578742d616e63686f723d226d6964646c6522206102168301526e3334b6361e91119bb199b0b2b2111f60891b6102368301528251909b9198899861024594919390929091610cbb908290878d0190870161246e565b890191661e17ba32bc3a1f60c91b809881809786015261024c85017f3c7465787420783d223230302220793d223134302220666f6e742d66616d696c905261026c85017f793d22417269616c2220666f6e742d73697a653d2231382220746578742d616e905261028c85017f63686f723d226d6964646c65222066696c6c3d2223346235353633223e0000009052640784fc9c2960dd1b6102a98601526102ae948151918288888401920191610d709261246e565b01938401527f3c7465787420783d223230302220793d223138302220666f6e742d66616d696c6102b58401527f793d22417269616c2220666f6e742d73697a653d2231362220746578742d616e6102d58401527f63686f723d226d6964646c65222066696c6c3d2223366237323830223e0000006102f58401819052640784fc9c6960dd1b6103128501528651909661031794879291610e17908390888401908a0161246e565b019384015261031e83017f3c7265637420783d2235302220793d22323230222077696474683d22333030229052847f206865696768743d2232222066696c6c3d2223653565376562222f3e00000000978861033e86015261035a85017f3c7465787420783d223230302220793d223238302220666f6e742d66616d696c905261037a85017f793d22417269616c2220666f6e742d73697a653d2234382220666f6e742d77659052817f696768743d22626f6c642220746578742d616e63686f723d226d6964646c6522938461039a8801526f103334b6361e91119bb199b0b2b2111f60811b6103ba8801526103ca8701602360f81b90526103cb96815191828a8a8401920191610f269261246e565b01958601527f3c7465787420783d223230302220793d223332302220666f6e742d66616d696c6103d28601527f793d22417269616c2220666f6e742d73697a653d2231342220746578742d616e6103f28601527f63686f723d226d6964646c65222066696c6c3d2223396361336166223e00000061041286018190526c2a24a1a5a2aa10272aa6a122a960991b61042f87015261043c86018390527f3c7265637420783d2235302220793d22333630222077696474683d22333030226104438701526104638601999099527f3c7465787420783d223230302220793d223432302220666f6e742d66616d696c61047f8601527f793d22417269616c2220666f6e742d73697a653d2231322220746578742d616e61049f8601526104bf85018890526a546f6b656e2049443a202360a81b6104dc86015280516104e7959091611075908390888401908a0161246e565b01938401527f3c7465787420783d223230302220793d223435302220666f6e742d66616d696c6104ee8401527f793d22417269616c2220666f6e742d73697a653d2231362220666f6e742d776561050e84015261052e83015266103334b6361e9160c91b61054e83015280516105559290916110f890839085840190870161246e565b61111f60f11b910191820152865161055797909261111c9184918a8501910161246e565b01948501527f3c7265637420783d2235302220793d22343830222077696474683d223330302261055e8501527f206865696768743d223830222066696c6c3d2223663366346636222072783d2261057e85015264189811179f60d91b61059e8501527f3c7465787420783d223230302220793d223531302220666f6e742d66616d696c6105a38501527f793d22417269616c2220666f6e742d73697a653d2231302220746578742d616e6105c385018190526105e38501919091527f504f574552454420425920454c4c49505449434845434b00000000000000000061060085015261061784018390527f3c7465787420783d223230302220793d223533352220666f6e742d66616d696c61061e85015261063e84015261065e8301527f426c6f636b636861696e205665726966696564205469636b657400000000000061067b830152610695820152651e17b9bb339f60d11b61069c820152036106828101825261128c906106a20182612584565b611294612b6c565b61129d91612d4f565b9486519581516112ac90612c0d565b97519351925191516112bd90612c0d565b955115611627576040516112d081612569565b6004815263155cd95960e21b8a820152935b604051988998683d913730b6b2911d1160b91b8c8b0152805190818d60298d0192019161130e9261246e565b8901602981016a202d205469636b6574202360a81b9052815191828d6034840192019161133a9261246e565b0190603482017f222c226465736372697074696f6e223a224576656e74207469636b657420666f90526054820161039160f51b90528a815181830193816056820190611386918761246e565b0193605685016301037b7160e51b905286518288019581605a8201906113ac918961246e565b0190605a82017f222c22696d616765223a22646174613a696d6167652f7376672b786d6c3b62619052607a8201641cd94d8d0b60da1b905280518093607f84019201916113f89261246e565b01906f222c2261747472696275746573223a5b60801b607f830152608f82017f7b2274726169745f74797065223a224576656e74222c2276616c7565223a2200905251918260ae830161144a9261246e565b0162089f4b60ea1b938460ae83015260b182017f7b2274726169745f74797065223a2244617465222c2276616c7565223a220000905251918260cf83016114909261246e565b018260cf82015260d281017f7b2274726169745f74797065223a224c6f636174696f6e222c2276616c7565229052611d1160f11b60f2820152815191828a60f484019201916114de9261246e565b01938160f486015260f785017f7b2274726169745f74797065223a225469636b6574204e756d626572222c227690526630b63ab2911d1160c91b61011786015261011e94815191828a8884019201916115369261246e565b019384015261012183017f7b2274726169745f74797065223a22537461747573222c2276616c7565223a22905261014192815191828886840192019161157b9261246e565b019161227d60f01b908301528101615d7d60f01b90520361012581018252610145016115a79082612584565b6115af612b6c565b6115b891612d4f565b9060405180928282017f646174613a6170706c69636174696f6e2f6a736f6e3b6261736536342c00000090528051908184603d85019201916115f99261246e565b810103601d81018352603d0161160f9083612584565b60405191818392835282016116239161248f565b0390f35b60405161163381612569565b600681526541637469766560d01b8a820152936112e2565b60405161165781612569565b600a815269e29c932041435449564560b01b87820152936109b3565b60405161167f81612569565b60078152662331306239383160c81b868201529761098a565b3461024b575f36600319011261024b576008545f19908181019081116108b5576116c1816129ad565b916116cf6040519384612584565b8183526116db826129ad565b60209290601f19015f5b8181106117a657505060019160015b8281111561175d5750505060405191808301818452845180915260408401918060408360051b8701019601925f905b8382106117305786880387f35b9091929394838061174c839a603f198b8203018652895161267c565b999701959493919091019101611723565b805f969496526009855260405f2090828101918183116108b55761179e926117876117989261293f565b61179182896129c4565b52866129c4565b5061299f565b9492946116f4565b84906117b396949661290c565b828287010152019492946116e5565b3461024b57608036600319011261024b576117db6124b4565b6117e36124ca565b90604435606435926001600160401b03841161024b573660238501121561024b5761181b61088a9436906024816004013591016126f7565b9261182783838361275a565b33612a52565b604036600319011261024b576004356118446124ca565b90805f526020916009835261185b60405f2061293f565b60a081015115611b6957825f52600b845260405f205460808201511115611b5757606001513410611b4557600754916118938361299f565b600755805f52600b845260405f206118ab815461299f565b8091556119086040516118bd81612518565b83815260038782018481526040830142815260608401915f8352895f52600a8b5260405f209451855551600185015551600284015551151591019060ff801983541691151516179055565b6040516119148161254e565b5f81526001600160a01b0384811694908515611b2d57865f526002885260405f20541686868215159283611afc575b5f82815260038c5260408082208054600101905584825260028d52812080546001600160a01b031916841790557fddf252ad1be2c89b69c2b068fc378daa952ba7f163c4a11628f55a4df523b3ef9080a4611ae457859187913b6119d5575b507f4fe0f5bb11eb6ab81c428fb83261719e5b22f84b3e1942cd491c3777504bb8519192604051908152a4604051908152f35b915050604051868180611a10630a85bd0160e11b958683523360048401525f60248401528a604484015260806064840152608483019061248f565b03815f895af15f9181611aa4575b50611a54578685611a2d6128dd565b8051929083611a4f57604051633250574960e11b815260048101849052602490fd5b019050fd5b6001600160e01b03191603611a8b5783857f4fe0f5bb11eb6ab81c428fb83261719e5b22f84b3e1942cd491c3777504bb8516119a2565b604051633250574960e11b815260048101849052602490fd5b9091508781813d8311611add575b611abc8183612584565b8101031261024b57516001600160e01b03198116810361024b579088611a1e565b503d611ab2565b6040516339e3563760e11b81525f6004820152602490fd5b5f8381526004602052604080822080546001600160a01b031916905582825260038d52902080545f19019055611943565b604051633250574960e11b81525f6004820152602490fd5b60405163cd1c886760e01b8152600490fd5b6040516352df9fe560e01b8152600490fd5b6040516301e1837960e31b8152600490fd5b3461024b57604036600319011261024b57611b946124b4565b602435908115159081830361024b576001600160a01b0316918215611c0c57611bde90335f52600560205260405f20845f5260205260405f209060ff801983541691151516179055565b6040519081527f17307eab39ab6107e8899845ad3d59bd9653f200f220920489ca2b5937696c3160203392a3005b604051630b61174360e31b815260048101849052602490fd5b3461024b575f36600319011261024b576040515f60018260015492611c49846124e0565b92838352602094856001821691825f14611ce3575050600114611c88575b50611c7492500383612584565b61162360405192828493845283019061248f565b84915060015f527fb10e2d527612073b26eecdfd717e6a320cf44b4afac2b0732d9fcbe2b7fa0cf6905f915b858310611ccb575050611c74935082010185611c67565b80548389018501528794508693909201918101611cb4565b60ff191685820152611c7495151560051b8501019250879150611c679050565b3461024b575f36600319011261024b576006546040516001600160a01b039091168152602090f35b3461024b57602036600319011261024b576004355f6060604051611d4e81612518565b8281528260208201528260408201520152611d68816129ec565b505f52600a602052608060405f20604051611d8281612518565b815491828252600181015460208301908152606060ff600360028501549460408701958652015416930192151583526040519384525160208401525160408301525115156060820152f35b3461024b575f36600319011261024b57611de5612a26565b600680546001600160a01b031981169091555f906001600160a01b03167f8be0079c531659141344cd1fd0a4f28419497f9722a3daafe3b4186f6b6457e08280a3005b3461024b57602036600319011261024b576001600160a01b03611e496124b4565b168015611e66575f526003602052602060405f2054604051908152f35b6040516322718ad960e21b81525f6004820152602490fd5b3461024b57602036600319011261024b57600435611e9a61290c565b5080158015611ee4575b611ed2575f526009602052611623611ebe60405f2061293f565b60405191829160208352602083019061267c565b604051630c93477d60e41b8152600490fd5b50600854811015611ea4565b3461024b57602036600319011261024b576020611f0e6004356129ec565b6040516001600160a01b039091168152f35b3461024b57602036600319011261024b57611f396124b4565b611f41612a26565b600c80546001600160a01b0319166001600160a01b0392909216919091179055005b3461024b575f36600319011261024b576008545f1981019081116108b557602090604051908152f35b3461024b57602036600319011261024b576004355f52600a602052608060405f2080549060018101549060ff6003600283015492015416916040519384526020840152604083015215156060820152f35b3461024b5761088a611fee36612647565b9060405192611ffc8461254e565b5f845261182783838361275a565b3461024b575f36600319011261024b57612022612a26565b5f80808060018060a01b036006541647905af161203d6128dd565b501561204557005b60405162461bcd60e51b815260206004820152600f60248201526e1dda5d1a191c985dc819985a5b1959608a1b6044820152606490fd5b3461024b575f36600319011261024b57600c546040516001600160a01b039091168152602090f35b3461024b5761088a6120b536612647565b9161275a565b3461024b57602036600319011261024b576004355f52600b602052602060405f2054604051908152f35b3461024b57602036600319011261024b576004355f52600960205261215860405f20612110816125a5565b9061211d600182016125a5565b612129600283016125a5565b9161217460038201549361216660ff60056004860154950154169460405198899860c08a5260c08a019061248f565b9088820360208a015261248f565b90868203604088015261248f565b9260608501526080840152151560a08301520390f35b3461024b57602036600319011261024b57600c546001600160a01b0390600435908216330361222e57805f52600a60205260ff600360405f2001541661221c57805f52600a602052600360405f2001600160ff198254161790557f4f9c6210874b14266ea0f64418a0f7403a875226eae9483f5d9cd7663234db9a6020612210836129ec565b604051428152941693a3005b604051630869773360e41b8152600490fd5b6040516282b42960e81b8152600490fd5b3461024b57604036600319011261024b576122586124b4565b602435612264816129ec565b3315158061230d575b806122e4575b6122cc576001600160a01b039283169282918491167f8c5be1e5ebec7d5bd14f71427d1e84f3dd0314c0f7b2291e5b200ac8c7c3b9255f80a45f90815260046020526040902080546001600160a01b0319169091179055005b60405163a9fbf51f60e01b8152336004820152602490fd5b5060018060a01b0381165f52600560205260405f20335f5260205260ff60405f20541615612273565b506001600160a01b03811633141561226d565b3461024b57602036600319011261024b5760043561233d816129ec565b505f526004602052602060018060a01b0360405f205416604051908152f35b3461024b575f36600319011261024b576040515f8054908261237d836124e0565b91828252602093600190856001821691825f14611ce35750506001146123aa5750611c7492500383612584565b5f808052859250907f290decd9548b62a8d60345a988386fc84ba6bc95484008f6362f93160ef3e5635b8583106123eb575050611c74935082010185611c67565b805483890185015287945086939092019181016123d4565b3461024b57602036600319011261024b576004359063ffffffff60e01b821680920361024b576020916380ac58cd60e01b811490811561245d575b811561244c575b5015158152f35b6301ffc9a760e01b14905083612445565b635b5e139f60e01b8114915061243e565b5f5b83811061247f5750505f910152565b8181015183820152602001612470565b906020916124a88151809281855285808601910161246e565b601f01601f1916010190565b600435906001600160a01b038216820361024b57565b602435906001600160a01b038216820361024b57565b90600182811c9216801561250e575b60208310146124fa57565b634e487b7160e01b5f52602260045260245ffd5b91607f16916124ef565b608081019081106001600160401b038211176105cf57604052565b60c081019081106001600160401b038211176105cf57604052565b602081019081106001600160401b038211176105cf57604052565b604081019081106001600160401b038211176105cf57604052565b90601f801991011681019081106001600160401b038211176105cf57604052565b9060405191825f82546125b7816124e0565b908184526020946001916001811690815f1461262557506001146125e7575b5050506125e592500383612584565b565b5f90815285812095935091905b81831061260d5750506125e593508201015f80806125d6565b855488840185015294850194879450918301916125f4565b925050506125e594925060ff191682840152151560051b8201015f80806125d6565b606090600319011261024b576001600160a01b0390600435828116810361024b5791602435908116810361024b579060443590565b9060a0806126bd6126ab612699865160c0875260c087019061248f565b6020870151868203602088015261248f565b6040860151858203604087015261248f565b9360608101516060850152608081015160808501520151151591015290565b6001600160401b0381116105cf57601f01601f191660200190565b929192612703826126dc565b916127116040519384612584565b82948184528183011161024b578281602093845f960137010152565b9181601f8401121561024b578235916001600160401b03831161024b576020838186019501011161024b57565b6001600160a01b039182169290918315611b2d57815f52602092600284528260409583875f205416953315158061284b575b506002908761281a575b825f5260038152885f2060018154019055835f5252865f20816bffffffffffffffffffffffff60a01b825416179055857fddf252ad1be2c89b69c2b068fc378daa952ba7f163c4a11628f55a4df523b3ef5f80a416928383036127f95750505050565b6064945051926364283d7b60e01b8452600484015260248301526044820152fd5b5f84815260046020526040812080546001600160a01b03191690558881526003825289902080545f19019055612796565b919250908061289c575b15612863579084915f61278c565b868587612880576024915190637e27328960e01b82526004820152fd5b604491519063177e802f60e01b82523360048301526024820152fd5b5033861480156128c1575b806128555750845f52600481523384885f20541614612855565b50855f5260058152865f20335f52815260ff875f2054166128a7565b3d15612907573d906128ee826126dc565b916128fc6040519384612584565b82523d5f602084013e565b606090565b6040519061291982612533565b5f60a0836060815260606020820152606060408201528260608201528260808201520152565b9060405161294c81612533565b60a060ff6005839561295d816125a5565b855261296b600182016125a5565b602086015261297c600282016125a5565b604086015260038101546060860152600481015460808601520154161515910152565b5f1981146108b55760010190565b6001600160401b0381116105cf5760051b60200190565b80518210156129d85760209160051b010190565b634e487b7160e01b5f52603260045260245ffd5b5f818152600260205260409020546001600160a01b0316908115612a0e575090565b60249060405190637e27328960e01b82526004820152fd5b6006546001600160a01b03163303612a3a57565b60405163118cdaa760e01b8152336004820152602490fd5b9291803b612a62575b5050505050565b604051630a85bd0160e11b8082526001600160a01b03958616600483015292851660248201526044810193909352608060648401529092169260209082908190612ab090608483019061248f565b03815f875af15f9181612b27575b50612af55782612acc6128dd565b8051919082612aee57604051633250574960e11b815260048101839052602490fd5b6020915001fd5b6001600160e01b03191603612b0f57505f80808080612a5b565b60249060405190633250574960e11b82526004820152fd5b9091506020813d602011612b64575b81612b4360209383612584565b8101031261024b57516001600160e01b03198116810361024b57905f612abe565b3d9150612b36565b60405190606082018281106001600160401b038211176105cf57604052604082527f6768696a6b6c6d6e6f707172737475767778797a303132333435363738392b2f6040837f4142434445464748494a4b4c4d4e4f505152535455565758595a61626364656660208201520152565b90612be5826126dc565b612bf26040519182612584565b8281528092612c03601f19916126dc565b0190602036910137565b805f917a184f03e93ff9f4daa797ed6e38ed64bf6a1f01000000000000000080821015612d41575b506d04ee2d6d415b85acef810000000080831015612d32575b50662386f26fc1000080831015612d23575b506305f5e10080831015612d14575b5061271080831015612d05575b506064821015612cf5575b600a80921015612ceb575b600190816021612ca460018701612bdb565b95860101905b612cb6575b5050505090565b5f19019083906f181899199a1a9b1b9c1cb0b131b232b360811b8282061a835304918215612ce657919082612caa565b612caf565b9160010191612c92565b9190606460029104910191612c87565b6004919392049101915f612c7c565b6008919392049101915f612c6f565b6010919392049101915f612c60565b6020919392049101915f612c4e565b60409350810491505f612c35565b919091805115612e3957805192600291600285018095116108b5576003948590046001600160fe1b03811681036108b557612d8f9060029694961b612bdb565b9260208401928291835184019760208901928351945f85525b8a8110612dec57505050506003939495965052510680600114612dda57600214612dd0575090565b603d905f19015390565b50603d90815f19820153600119015390565b836004919b989b019a8b51600190603f9082828260121c16870101518453828282600c1c16870101518385015382828260061c168701015187850153168401015185820153019699612da8565b509050604051612e488161254e565b5f81529056fea26469706673582212201f87a4bdbebb6fd27253959e89857eb2c8c53a6c7e6315d2f604ccfec7b3eba964736f6c63430008180033","linkReferences":{}},"methodIdentifiers":{"approve(address,uint256)":"095ea7b3","balanceOf(address)":"70a08231","createEvent(string,string,string,uint256,uint256)":"f5f00d84","eventCounter()":"52c55db9","eventTicketCount(uint256)":"1af32d78","events(uint256)":"0b791430","getAllEvents()":"c27a500d","getApproved(uint256)":"081812fc","getEvent(uint256)":"6d1884e0","getTicket(uint256)":"7dc379fa","getTicketInfo(uint256)":"ff99a063","isApprovedForAll(address,address)":"e985e9c5","markTicketAsUsed(uint256)":"0a15fa8b","mintTicket(uint256,address)":"a7182051","name()":"06fdde03","owner()":"8da5cb5b","ownerOf(uint256)":"6352211e","renounceOwnership()":"715018a6","safeTransferFrom(address,address,uint256)":"42842e0e","safeTransferFrom(address,address,uint256,bytes)":"b88d4fde","setApprovalForAll(address,bool)":"a22cb465","setVerifier(address)":"5437988d","supportsInterface(bytes4)":"01ffc9a7","symbol()":"95d89b41","tickets(uint256)":"50b44712","toggleEventStatus(uint256)":"e13102e9","tokenCounter()":"d082e381","tokenURI(uint256)":"c87b56dd","transferFrom(address,address,uint256)":"23b872dd","transferOwnership(address)":"f2fde38b","verifier()":"2b7ac3f3","withdraw()":"3ccfd60b"},"id":33}