{"abi":[{"type":"constructor","inputs":[],"stateMutability":"nonpayable"},{"type":"function","name":"approve","inputs":[{"name":"to","type":"address","internalType":"address"},{"name":"tokenId","type":"uint256","internalType":"uint256"}],"outputs":[],"stateMutability":"nonpayable"},{"type":"function","name":"balanceOf","inputs":[{"name":"owner","type":"address","internalType":"address"}],"outputs":[{"name":"","type":"uint256","internalType":"uint256"}],"stateMutability":"view"},{"type":"function","name":"createEvent","inputs":[{"name":"eventName","type":"string","internalType":"string"},{"name":"eventDate","type":"string","internalType":"string"},{"name":"eventLocation","type":"string","internalType":"string"},{"name":"price","type":"uint256","internalType":"uint256"},{"name":"totalSupply","type":"uint256","internalType":"uint256"}],"outputs":[{"name":"eventId","type":"uint256","internalType":"uint256"}],"stateMutability":"nonpayable"},{"type":"function","name":"eventTicketCount","inputs":[{"name":"","type":"uint256","internalType":"uint256"}],"outputs":[{"name":"","type":"uint256","internalType":"uint256"}],"stateMutability":"view"},{"type":"function","name":"events","inputs":[{"name":"","type":"uint256","internalType":"uint256"}],"outputs":[{"name":"eventName","type":"string","internalType":"string"},{"name":"eventDate","type":"string","internalType":"string"},{"name":"eventLocation","type":"string","internalType":"string"},{"name":"price","type":"uint256","internalType":"uint256"},{"name":"totalSupply","type":"uint256","internalType":"uint256"},{"name":"isActive","type":"bool","internalType":"bool"}],"stateMutability":"view"},{"type":"function","name":"getApproved","inputs":[{"name":"tokenId","type":"uint256","internalType":"uint256"}],"outputs":[{"name":"","type":"address","internalType":"address"}],"stateMutability":"view"},{"type":"function","name":"isApprovedForAll","inputs":[{"name":"owner","type":"address","internalType":"address"},{"name":"operator","type":"address","internalType":"address"}],"outputs":[{"name":"","type":"bool","internalType":"bool"}],"stateMutability":"view"},{"type":"function","name":"markTicketAsUsed","inputs":[{"name":"tokenId","type":"uint256","internalType":"uint256"}],"outputs":[],"stateMutability":"nonpayable"},{"type":"function","name":"mintTicket","inputs":[{"name":"eventId","type":"uint256","internalType":"uint256"},{"name":"to","type":"address","internalType":"address"}],"outputs":[{"name":"tokenId","type":"uint256","internalType":"uint256"}],"stateMutability":"payable"},{"type":"function","name":"name","inputs":[],"outputs":[{"name":"","type":"string","internalType":"string"}],"stateMutability":"view"},{"type":"function","name":"owner","inputs":[],"outputs":[{"name":"","type":"address","internalType":"address"}],"stateMutability":"view"},{"type":"function","name":"ownerOf","inputs":[{"name":"tokenId","type":"uint256","internalType":"uint256"}],"outputs":[{"name":"","type":"address","internalType":"address"}],"stateMutability":"view"},{"type":"function","name":"renounceOwnership","inputs":[],"outputs":[],"stateMutability":"nonpayable"},{"type":"function","name":"safeTransferFrom","inputs":[{"name":"from","type":"address","internalType":"address"},{"name":"to","type":"address","internalType":"address"},{"name":"tokenId","type":"uint256","internalType":"uint256"}],"outputs":[],"stateMutability":"nonpayable"},{"type":"function","name":"safeTransferFrom","inputs":[{"name":"from","type":"address","internalType":"address"},{"name":"to","type":"address","internalType":"address"},{"name":"tokenId","type":"uint256","internalType":"uint256"},{"name":"data","type":"bytes","internalType":"bytes"}],"outputs":[],"stateMutability":"nonpayable"},{"type":"function","name":"setApprovalForAll","inputs":[{"name":"operator","type":"address","internalType":"address"},{"name":"approved","type":"bool","internalType":"bool"}],"outputs":[],"stateMutability":"nonpayable"},{"type":"function","name":"setTokenURI","inputs":[{"name":"tokenId","type":"uint256","internalType":"uint256"},{"name":"uri","type":"string","internalType":"string"}],"outputs":[],"stateMutability":"nonpayable"},{"type":"function","name":"setVerifier","inputs":[{"name":"_verifier","type":"address","internalType":"address"}],"outputs":[],"stateMutability":"nonpayable"},{"type":"function","name":"supportsInterface","inputs":[{"name":"interfaceId","type":"bytes4","internalType":"bytes4"}],"outputs":[{"name":"","type":"bool","internalType":"bool"}],"stateMutability":"view"},{"type":"function","name":"symbol","inputs":[],"outputs":[{"name":"","type":"string","internalType":"string"}],"stateMutability":"view"},{"type":"function","name":"tickets","inputs":[{"name":"","type":"uint256","internalType":"uint256"}],"outputs":[{"name":"eventId","type":"uint256","internalType":"uint256"},{"name":"ticketNumber","type":"uint256","internalType":"uint256"},{"name":"mintedAt","type":"uint256","internalType":"uint256"},{"name":"isUsed","type":"bool","internalType":"bool"}],"stateMutability":"view"},{"type":"function","name":"toggleEventStatus","inputs":[{"name":"eventId","type":"uint256","internalType":"uint256"}],"outputs":[],"stateMutability":"nonpayable"},{"type":"function","name":"tokenURI","inputs":[{"name":"tokenId","type":"uint256","internalType":"uint256"}],"outputs":[{"name":"","type":"string","internalType":"string"}],"stateMutability":"view"},{"type":"function","name":"transferFrom","inputs":[{"name":"from","type":"address","internalType":"address"},{"name":"to","type":"address","internalType":"address"},{"name":"tokenId","type":"uint256","internalType":"uint256"}],"outputs":[],"stateMutability":"nonpayable"},{"type":"function","name":"transferOwnership","inputs":[{"name":"newOwner","type":"address","internalType":"address"}],"outputs":[],"stateMutability":"nonpayable"},{"type":"function","name":"verifier","inputs":[],"outputs":[{"name":"","type":"address","internalType":"address"}],"stateMutability":"view"},{"type":"function","name":"withdraw","inputs":[],"outputs":[],"stateMutability":"nonpayable"},{"type":"event","name":"Approval","inputs":[{"name":"owner","type":"address","indexed":true,"internalType":"address"},{"name":"approved","type":"address","indexed":true,"internalType":"address"},{"name":"tokenId","type":"uint256","indexed":true,"internalType":"uint256"}],"anonymous":false},{"type":"event","name":"ApprovalForAll","inputs":[{"name":"owner","type":"address","indexed":true,"internalType":"address"},{"name":"operator","type":"address","indexed":true,"internalType":"address"},{"name":"approved","type":"bool","indexed":false,"internalType":"bool"}],"anonymous":false},{"type":"event","name":"EventCreated","inputs":[{"name":"eventId","type":"uint256","indexed":true,"internalType":"uint256"},{"name":"eventName","type":"string","indexed":false,"internalType":"string"},{"name":"totalSupply","type":"uint256","indexed":false,"internalType":"uint256"},{"name":"price","type":"uint256","indexed":false,"internalType":"uint256"}],"anonymous":false},{"type":"event","name":"OwnershipTransferred","inputs":[{"name":"previousOwner","type":"address","indexed":true,"internalType":"address"},{"name":"newOwner","type":"address","indexed":true,"internalType":"address"}],"anonymous":false},{"type":"event","name":"TicketMinted","inputs":[{"name":"tokenId","type":"uint256","indexed":true,"internalType":"uint256"},{"name":"eventId","type":"uint256","indexed":true,"internalType":"uint256"},{"name":"owner","type":"address","indexed":true,"internalType":"address"},{"name":"ticketNumber","type":"uint256","indexed":false,"internalType":"uint256"}],"anonymous":false},{"type":"event","name":"TicketUsed","inputs":[{"name":"tokenId","type":"uint256","indexed":true,"internalType":"uint256"},{"name":"owner","type":"address","indexed":true,"internalType":"address"},{"name":"timestamp","type":"uint256","indexed":false,"internalType":"uint256"}],"anonymous":false},{"type":"event","name":"Transfer","inputs":[{"name":"from","type":"address","indexed":true,"internalType":"address"},{"name":"to","type":"address","indexed":true,"internalType":"address"},{"name":"tokenId","type":"uint256","indexed":true,"internalType":"uint256"}],"anonymous":false},{"type":"error","name":"ERC721IncorrectOwner","inputs":[{"name":"sender","type":"address","internalType":"address"},{"name":"tokenId","type":"uint256","internalType":"uint256"},{"name":"owner","type":"address","internalType":"address"}]},{"type":"error","name":"ERC721InsufficientApproval","inputs":[{"name":"operator","type":"address","internalType":"address"},{"name":"tokenId","type":"uint256","internalType":"uint256"}]},{"type":"error","name":"ERC721InvalidApprover","inputs":[{"name":"approver","type":"address","internalType":"address"}]},{"type":"error","name":"ERC721InvalidOperator","inputs":[{"name":"operator","type":"address","internalType":"address"}]},{"type":"error","name":"ERC721InvalidOwner","inputs":[{"name":"owner","type":"address","internalType":"address"}]},{"type":"error","name":"ERC721InvalidReceiver","inputs":[{"name":"receiver","type":"address","internalType":"address"}]},{"type":"error","name":"ERC721InvalidSender","inputs":[{"name":"sender","type":"address","internalType":"address"}]},{"type":"error","name":"ERC721NonexistentToken","inputs":[{"name":"tokenId","type":"uint256","internalType":"uint256"}]},{"type":"error","name":"EventNotActive","inputs":[]},{"type":"error","name":"InsufficientPayment","inputs":[]},{"type":"error","name":"InvalidEventId","inputs":[]},{"type":"error","name":"OwnableInvalidOwner","inputs":[{"name":"owner","type":"address","internalType":"address"}]},{"type":"error","name":"OwnableUnauthorizedAccount","inputs":[{"name":"account","type":"address","internalType":"address"}]},{"type":"error","name":"SoldOut","inputs":[]},{"type":"error","name":"TicketAlreadyUsed","inputs":[]},{"type":"error","name":"Unauthorized","inputs":[]}],"bytecode":{"object":"0x6080604052600160075560016008553480156200001a575f80fd5b50336040518060400160405280600b81526020016a115d995b9d151a58dad95d60aa1b8152506040518060400160405280600481526020016308aa892b60e31b815250815f90816200006d9190620001ae565b5060016200007c8282620001ae565b5050506001600160a01b038116620000ad57604051631e4fbdf760e01b81525f600482015260240160405180910390fd5b620000b881620000bf565b506200027a565b600680546001600160a01b038381166001600160a01b0319831681179093556040519116919082907f8be0079c531659141344cd1fd0a4f28419497f9722a3daafe3b4186f6b6457e0905f90a35050565b634e487b7160e01b5f52604160045260245ffd5b600181811c908216806200013957607f821691505b6020821081036200015857634e487b7160e01b5f52602260045260245ffd5b50919050565b601f821115620001a957805f5260205f20601f840160051c81016020851015620001855750805b601f840160051c820191505b81811015620001a6575f815560010162000191565b50505b505050565b81516001600160401b03811115620001ca57620001ca62000110565b620001e281620001db845462000124565b846200015e565b602080601f83116001811462000218575f8415620002005750858301515b5f19600386901b1c1916600185901b17855562000272565b5f85815260208120601f198616915b82811015620002485788860151825594840194600190910190840162000227565b50858210156200026657878501515f19600388901b60f8161c191681555b505060018460011b0185555b505050505050565b611e4980620002885f395ff3fe608060405260043610610195575f3560e01c80635437988d116100e7578063a718205111610087578063e13102e911610062578063e13102e9146104d6578063e985e9c5146104f5578063f2fde38b14610514578063f5f00d8414610533575f80fd5b8063a718205114610485578063b88d4fde14610498578063c87b56dd146104b7575f80fd5b8063715018a6116100c2578063715018a6146104215780638da5cb5b1461043557806395d89b4114610452578063a22cb46514610466575f80fd5b80635437988d146103c45780636352211e146103e357806370a0823114610402575f80fd5b8063162094c4116101525780632b7ac3f31161012d5780632b7ac3f31461030d5780633ccfd60b1461032c57806342842e0e1461034057806350b447121461035f575f80fd5b8063162094c4146102965780631af32d78146102b557806323b872dd146102ee575f80fd5b806301ffc9a71461019957806306fdde03146101cd578063081812fc146101ee578063095ea7b3146102255780630a15fa8b146102465780630b79143014610265575b5f80fd5b3480156101a4575f80fd5b506101b86101b336600461174a565b610552565b60405190151581526020015b60405180910390f35b3480156101d8575f80fd5b506101e16105a3565b6040516101c491906117af565b3480156101f9575f80fd5b5061020d6102083660046117c1565b610632565b6040516001600160a01b0390911681526020016101c4565b348015610230575f80fd5b5061024461023f3660046117f3565b610659565b005b348015610251575f80fd5b506102446102603660046117c1565b610668565b348015610270575f80fd5b5061028461027f3660046117c1565b61072e565b6040516101c49695949392919061181b565b3480156102a1575f80fd5b506102446102b03660046118b9565b6108f8565b3480156102c0575f80fd5b506102e06102cf3660046117c1565b600b6020525f908152604090205481565b6040519081526020016101c4565b3480156102f9575f80fd5b50610244610308366004611901565b61091e565b348015610318575f80fd5b50600d5461020d906001600160a01b031681565b348015610337575f80fd5b506102446109a6565b34801561034b575f80fd5b5061024461035a366004611901565b610a53565b34801561036a575f80fd5b506103a26103793660046117c1565b600a6020525f908152604090208054600182015460028301546003909301549192909160ff1684565b60408051948552602085019390935291830152151560608201526080016101c4565b3480156103cf575f80fd5b506102446103de36600461193a565b610a72565b3480156103ee575f80fd5b5061020d6103fd3660046117c1565b610a9c565b34801561040d575f80fd5b506102e061041c36600461193a565b610aa6565b34801561042c575f80fd5b50610244610aeb565b348015610440575f80fd5b506006546001600160a01b031661020d565b34801561045d575f80fd5b506101e1610afe565b348015610471575f80fd5b50610244610480366004611953565b610b0d565b6102e061049336600461198c565b610b18565b3480156104a3575f80fd5b506102446104b23660046119ca565b610e68565b3480156104c2575f80fd5b506101e16104d13660046117c1565b610e80565b3480156104e1575f80fd5b506102446104f03660046117c1565b610f27565b348015610500575f80fd5b506101b861050f366004611a9f565b610f51565b34801561051f575f80fd5b5061024461052e36600461193a565b610f7e565b34801561053e575f80fd5b506102e061054d366004611ac7565b610fb8565b5f6001600160e01b031982166380ac58cd60e01b148061058257506001600160e01b03198216635b5e139f60e01b145b8061059d57506301ffc9a760e01b6001600160e01b03198316145b92915050565b60605f80546105b190611b68565b80601f01602080910402602001604051908101604052809291908181526020018280546105dd90611b68565b80156106285780601f106105ff57610100808354040283529160200191610628565b820191905f5260205f20905b81548152906001019060200180831161060b57829003601f168201915b5050505050905090565b5f61063c8261115d565b505f828152600460205260409020546001600160a01b031661059d565b610664828233611195565b5050565b600d546001600160a01b03163314610692576040516282b42960e81b815260040160405180910390fd5b5f818152600a602052604090206003015460ff16156106c457604051630869773360e41b815260040160405180910390fd5b5f818152600a60205260409020600301805460ff191660011790556106e881610a9c565b6001600160a01b0316817f4f9c6210874b14266ea0f64418a0f7403a875226eae9483f5d9cd7663234db9a4260405161072391815260200190565b60405180910390a350565b60096020525f908152604090208054819061074890611b68565b80601f016020809104026020016040519081016040528092919081815260200182805461077490611b68565b80156107bf5780601f10610796576101008083540402835291602001916107bf565b820191905f5260205f20905b8154815290600101906020018083116107a257829003601f168201915b5050505050908060010180546107d490611b68565b80601f016020809104026020016040519081016040528092919081815260200182805461080090611b68565b801561084b5780601f106108225761010080835404028352916020019161084b565b820191905f5260205f20905b81548152906001019060200180831161082e57829003601f168201915b50505050509080600201805461086090611b68565b80601f016020809104026020016040519081016040528092919081815260200182805461088c90611b68565b80156108d75780601f106108ae576101008083540402835291602001916108d7565b820191905f5260205f20905b8154815290600101906020018083116108ba57829003601f168201915b50505050600383015460048401546005909401549293909290915060ff1686565b6109006111a2565b5f838152600c60205260409020610918828483611be4565b50505050565b6001600160a01b03821661094c57604051633250574960e11b81525f60048201526024015b60405180910390fd5b5f6109588383336111cf565b9050836001600160a01b0316816001600160a01b031614610918576040516364283d7b60e01b81526001600160a01b0380861660048301526024820184905282166044820152606401610943565b6109ae6111a2565b5f6109c16006546001600160a01b031690565b6001600160a01b0316476040515f6040518083038185875af1925050503d805f8114610a08576040519150601f19603f3d011682016040523d82523d5f602084013e610a0d565b606091505b5050905080610a505760405162461bcd60e51b815260206004820152600f60248201526e1dda5d1a191c985dc819985a5b1959608a1b6044820152606401610943565b50565b610a6d83838360405180602001604052805f815250610e68565b505050565b610a7a6111a2565b600d80546001600160a01b0319166001600160a01b0392909216919091179055565b5f61059d8261115d565b5f6001600160a01b038216610ad0576040516322718ad960e21b81525f6004820152602401610943565b506001600160a01b03165f9081526003602052604090205490565b610af36111a2565b610afc5f6112c1565b565b6060600180546105b190611b68565b610664338383611312565b5f82815260096020526040808220815160c0810190925280548392919082908290610b4290611b68565b80601f0160208091040260200160405190810160405280929190818152602001828054610b6e90611b68565b8015610bb95780601f10610b9057610100808354040283529160200191610bb9565b820191905f5260205f20905b815481529060010190602001808311610b9c57829003601f168201915b50505050508152602001600182018054610bd290611b68565b80601f0160208091040260200160405190810160405280929190818152602001828054610bfe90611b68565b8015610c495780601f10610c2057610100808354040283529160200191610c49565b820191905f5260205f20905b815481529060010190602001808311610c2c57829003601f168201915b50505050508152602001600282018054610c6290611b68565b80601f0160208091040260200160405190810160405280929190818152602001828054610c8e90611b68565b8015610cd95780601f10610cb057610100808354040283529160200191610cd9565b820191905f5260205f20905b815481529060010190602001808311610cbc57829003601f168201915b5050509183525050600382015460208201526004820154604082015260059091015460ff16151560609091015260a0810151909150610d2b576040516301e1837960e31b815260040160405180910390fd5b60808101515f858152600b602052604090205410610d5c576040516352df9fe560e01b815260040160405180910390fd5b8060600151341015610d815760405163cd1c886760e01b815260040160405180910390fd5b60078054905f610d9083611c9e565b909155505f858152600b60205260408120805492945090918290610db390611c9e565b9182905550604080516080810182528781526020808201848152428385019081525f606085018181528a8252600a90945294909420925183555160018301559151600282015590516003909101805460ff19169115159190911790559050610e1b84846113b0565b836001600160a01b031685847f4fe0f5bb11eb6ab81c428fb83261719e5b22f84b3e1942cd491c3777504bb85184604051610e5891815260200190565b60405180910390a4505092915050565b610e7384848461091e565b61091833858585856113c9565b6060610e8b8261115d565b505f828152600c602052604090208054610ea490611b68565b80601f0160208091040260200160405190810160405280929190818152602001828054610ed090611b68565b8015610f1b5780601f10610ef257610100808354040283529160200191610f1b565b820191905f5260205f20905b815481529060010190602001808311610efe57829003601f168201915b50505050509050919050565b610f2f6111a2565b5f908152600960205260409020600501805460ff19811660ff90911615179055565b6001600160a01b039182165f90815260056020908152604080832093909416825291909152205460ff1690565b610f866111a2565b6001600160a01b038116610faf57604051631e4fbdf760e01b81525f6004820152602401610943565b610a50816112c1565b5f610fc16111a2565b60088054905f610fd083611c9e565b909155506040805160e06020601f8d01819004028201810190925260c081018b81529293509182918c908c90819085018382808284375f92019190915250505090825250604080516020601f8b0181900481028201810190925289815291810191908a908a90819084018382808284375f92019190915250505090825250604080516020601f8901819004810282018101909252878152918101919088908890819084018382808284375f9201829052509385525050506020808301879052604080840187905260016060909401939093528482526009905220815181906110b89082611cc2565b50602082015160018201906110cd9082611cc2565b50604082015160028201906110e29082611cc2565b50606082015160038201556080820151600482015560a0909101516005909101805460ff191691151591909117905560405181907f42e6867e52299b45991308391cccb9ee79466d194059ff10fc15c2d88f0ea06190611149908c908c9087908990611d7e565b60405180910390a298975050505050505050565b5f818152600260205260408120546001600160a01b03168061059d57604051637e27328960e01b815260048101849052602401610943565b610a6d83838360016114f1565b6006546001600160a01b03163314610afc5760405163118cdaa760e01b8152336004820152602401610943565b5f828152600260205260408120546001600160a01b03908116908316156111fb576111fb8184866115f5565b6001600160a01b03811615611235576112165f855f806114f1565b6001600160a01b0381165f90815260036020526040902080545f190190555b6001600160a01b03851615611263576001600160a01b0385165f908152600360205260409020805460010190555b5f8481526002602052604080822080546001600160a01b0319166001600160a01b0389811691821790925591518793918516917fddf252ad1be2c89b69c2b068fc378daa952ba7f163c4a11628f55a4df523b3ef91a4949350505050565b600680546001600160a01b038381166001600160a01b0319831681179093556040519116919082907f8be0079c531659141344cd1fd0a4f28419497f9722a3daafe3b4186f6b6457e0905f90a35050565b6001600160a01b03821661134457604051630b61174360e31b81526001600160a01b0383166004820152602401610943565b6001600160a01b038381165f81815260056020908152604080832094871680845294825291829020805460ff191686151590811790915591519182527f17307eab39ab6107e8899845ad3d59bd9653f200f220920489ca2b5937696c31910160405180910390a3505050565b610664828260405180602001604052805f815250611659565b6001600160a01b0383163b156114ea57604051630a85bd0160e11b81526001600160a01b0384169063150b7a029061140b908890889087908790600401611dbc565b6020604051808303815f875af1925050508015611445575060408051601f3d908101601f1916820190925261144291810190611df8565b60015b6114ac573d808015611472576040519150601f19603f3d011682016040523d82523d5f602084013e611477565b606091505b5080515f036114a457604051633250574960e11b81526001600160a01b0385166004820152602401610943565b805160208201fd5b6001600160e01b03198116630a85bd0160e11b146114e857604051633250574960e11b81526001600160a01b0385166004820152602401610943565b505b5050505050565b808061150557506001600160a01b03821615155b156115c6575f6115148461115d565b90506001600160a01b038316158015906115405750826001600160a01b0316816001600160a01b031614155b801561155357506115518184610f51565b155b1561157c5760405163a9fbf51f60e01b81526001600160a01b0384166004820152602401610943565b81156115c45783856001600160a01b0316826001600160a01b03167f8c5be1e5ebec7d5bd14f71427d1e84f3dd0314c0f7b2291e5b200ac8c7c3b92560405160405180910390a45b505b50505f90815260046020526040902080546001600160a01b0319166001600160a01b0392909216919091179055565b611600838383611670565b610a6d576001600160a01b03831661162e57604051637e27328960e01b815260048101829052602401610943565b60405163177e802f60e01b81526001600160a01b038316600482015260248101829052604401610943565b61166383836116d4565b610a6d335f8585856113c9565b5f6001600160a01b038316158015906116cc5750826001600160a01b0316846001600160a01b031614806116a957506116a98484610f51565b806116cc57505f828152600460205260409020546001600160a01b038481169116145b949350505050565b6001600160a01b0382166116fd57604051633250574960e11b81525f6004820152602401610943565b5f61170983835f6111cf565b90506001600160a01b03811615610a6d576040516339e3563760e11b81525f6004820152602401610943565b6001600160e01b031981168114610a50575f80fd5b5f6020828403121561175a575f80fd5b813561176581611735565b9392505050565b5f81518084525f5b8181101561179057602081850181015186830182015201611774565b505f602082860101526020601f19601f83011685010191505092915050565b602081525f611765602083018461176c565b5f602082840312156117d1575f80fd5b5035919050565b80356001600160a01b03811681146117ee575f80fd5b919050565b5f8060408385031215611804575f80fd5b61180d836117d8565b946020939093013593505050565b60c081525f61182d60c083018961176c565b828103602084015261183f818961176c565b90508281036040840152611853818861176c565b606084019690965250506080810192909252151560a0909101529392505050565b5f8083601f840112611884575f80fd5b50813567ffffffffffffffff81111561189b575f80fd5b6020830191508360208285010111156118b2575f80fd5b9250929050565b5f805f604084860312156118cb575f80fd5b83359250602084013567ffffffffffffffff8111156118e8575f80fd5b6118f486828701611874565b9497909650939450505050565b5f805f60608486031215611913575f80fd5b61191c846117d8565b925061192a602085016117d8565b9150604084013590509250925092565b5f6020828403121561194a575f80fd5b611765826117d8565b5f8060408385031215611964575f80fd5b61196d836117d8565b915060208301358015158114611981575f80fd5b809150509250929050565b5f806040838503121561199d575f80fd5b823591506119ad602084016117d8565b90509250929050565b634e487b7160e01b5f52604160045260245ffd5b5f805f80608085870312156119dd575f80fd5b6119e6856117d8565b93506119f4602086016117d8565b925060408501359150606085013567ffffffffffffffff80821115611a17575f80fd5b818701915087601f830112611a2a575f80fd5b813581811115611a3c57611a3c6119b6565b604051601f8201601f19908116603f01168101908382118183101715611a6457611a646119b6565b816040528281528a6020848701011115611a7c575f80fd5b826020860160208301375f60208483010152809550505050505092959194509250565b5f8060408385031215611ab0575f80fd5b611ab9836117d8565b91506119ad602084016117d8565b5f805f805f805f8060a0898b031215611ade575f80fd5b883567ffffffffffffffff80821115611af5575f80fd5b611b018c838d01611874565b909a50985060208b0135915080821115611b19575f80fd5b611b258c838d01611874565b909850965060408b0135915080821115611b3d575f80fd5b50611b4a8b828c01611874565b999c989b509699959896976060870135966080013595509350505050565b600181811c90821680611b7c57607f821691505b602082108103611b9a57634e487b7160e01b5f52602260045260245ffd5b50919050565b601f821115610a6d57805f5260205f20601f840160051c81016020851015611bc55750805b601f840160051c820191505b818110156114ea575f8155600101611bd1565b67ffffffffffffffff831115611bfc57611bfc6119b6565b611c1083611c0a8354611b68565b83611ba0565b5f601f841160018114611c41575f8515611c2a5750838201355b5f19600387901b1c1916600186901b1783556114ea565b5f83815260208120601f198716915b82811015611c705786850135825560209485019460019092019101611c50565b5086821015611c8c575f1960f88860031b161c19848701351681555b505060018560011b0183555050505050565b5f60018201611cbb57634e487b7160e01b5f52601160045260245ffd5b5060010190565b815167ffffffffffffffff811115611cdc57611cdc6119b6565b611cf081611cea8454611b68565b84611ba0565b602080601f831160018114611d23575f8415611d0c5750858301515b5f19600386901b1c1916600185901b1785556114e8565b5f85815260208120601f198616915b82811015611d5157888601518255948401946001909101908401611d32565b5085821015611d6e57878501515f19600388901b60f8161c191681555b5050505050600190811b01905550565b60608152836060820152838560808301375f608085830101525f6080601f19601f870116830101905083602083015282604083015295945050505050565b6001600160a01b03858116825284166020820152604081018390526080606082018190525f90611dee9083018461176c565b9695505050505050565b5f60208284031215611e08575f80fd5b81516117658161173556fea264697066735822122081d88331dc2cc4ea40930d4cab05e29d5242dd156ebf225614c9de5b4e21b87564736f6c63430008180033","linkReferences":{}},"methodIdentifiers":{"approve(address,uint256)":"095ea7b3","balanceOf(address)":"70a08231","createEvent(string,string,string,uint256,uint256)":"f5f00d84","eventTicketCount(uint256)":"1af32d78","events(uint256)":"0b791430","getApproved(uint256)":"081812fc","isApprovedForAll(address,address)":"e985e9c5","markTicketAsUsed(uint256)":"0a15fa8b","mintTicket(uint256,address)":"a7182051","name()":"06fdde03","owner()":"8da5cb5b","ownerOf(uint256)":"6352211e","renounceOwnership()":"715018a6","safeTransferFrom(address,address,uint256)":"42842e0e","safeTransferFrom(address,address,uint256,bytes)":"b88d4fde","setApprovalForAll(address,bool)":"a22cb465","setTokenURI(uint256,string)":"162094c4","setVerifier(address)":"5437988d","supportsInterface(bytes4)":"01ffc9a7","symbol()":"95d89b41","tickets(uint256)":"50b44712","toggleEventStatus(uint256)":"e13102e9","tokenURI(uint256)":"c87b56dd","transferFrom(address,address,uint256)":"23b872dd","transferOwnership(address)":"f2fde38b","verifier()":"2b7ac3f3","withdraw()":"3ccfd60b"},"id":32}