{"abi":[{"type":"constructor","inputs":[],"stateMutability":"nonpayable"},{"type":"function","name":"approve","inputs":[{"name":"to","type":"address","internalType":"address"},{"name":"tokenId","type":"uint256","internalType":"uint256"}],"outputs":[],"stateMutability":"nonpayable"},{"type":"function","name":"balanceOf","inputs":[{"name":"owner","type":"address","internalType":"address"}],"outputs":[{"name":"","type":"uint256","internalType":"uint256"}],"stateMutability":"view"},{"type":"function","name":"baseImageURI","inputs":[],"outputs":[{"name":"","type":"string","internalType":"string"}],"stateMutability":"view"},{"type":"function","name":"createEvent","inputs":[{"name":"eventName","type":"string","internalType":"string"},{"name":"eventDate","type":"string","internalType":"string"},{"name":"eventLocation","type":"string","internalType":"string"},{"name":"price","type":"uint256","internalType":"uint256"},{"name":"totalSupply","type":"uint256","internalType":"uint256"}],"outputs":[{"name":"eventId","type":"uint256","internalType":"uint256"}],"stateMutability":"nonpayable"},{"type":"function","name":"eventCounter","inputs":[],"outputs":[{"name":"","type":"uint256","internalType":"uint256"}],"stateMutability":"view"},{"type":"function","name":"eventTicketCount","inputs":[{"name":"","type":"uint256","internalType":"uint256"}],"outputs":[{"name":"","type":"uint256","internalType":"uint256"}],"stateMutability":"view"},{"type":"function","name":"events","inputs":[{"name":"","type":"uint256","internalType":"uint256"}],"outputs":[{"name":"eventName","type":"string","internalType":"string"},{"name":"eventDate","type":"string","internalType":"string"},{"name":"eventLocation","type":"string","internalType":"string"},{"name":"price","type":"uint256","internalType":"uint256"},{"name":"totalSupply","type":"uint256","internalType":"uint256"},{"name":"isActive","type":"bool","internalType":"bool"}],"stateMutability":"view"},{"type":"function","name":"getAllEvents","inputs":[],"outputs":[{"name":"","type":"tuple[]","internalType":"struct TicketNFT.TicketMetadata[]","components":[{"name":"eventName","type":"string","internalType":"string"},{"name":"eventDate","type":"string","internalType":"string"},{"name":"eventLocation","type":"string","internalType":"string"},{"name":"price","type":"uint256","internalType":"uint256"},{"name":"totalSupply","type":"uint256","internalType":"uint256"},{"name":"isActive","type":"bool","internalType":"bool"}]}],"stateMutability":"view"},{"type":"function","name":"getApproved","inputs":[{"name":"tokenId","type":"uint256","internalType":"uint256"}],"outputs":[{"name":"","type":"address","internalType":"address"}],"stateMutability":"view"},{"type":"function","name":"getEvent","inputs":[{"name":"eventId","type":"uint256","internalType":"uint256"}],"outputs":[{"name":"","type":"tuple","internalType":"struct TicketNFT.TicketMetadata","components":[{"name":"eventName","type":"string","internalType":"string"},{"name":"eventDate","type":"string","internalType":"string"},{"name":"eventLocation","type":"string","internalType":"string"},{"name":"price","type":"uint256","internalType":"uint256"},{"name":"totalSupply","type":"uint256","internalType":"uint256"},{"name":"isActive","type":"bool","internalType":"bool"}]}],"stateMutability":"view"},{"type":"function","name":"getTicket","inputs":[{"name":"tokenId","type":"uint256","internalType":"uint256"}],"outputs":[{"name":"","type":"tuple","internalType":"struct TicketNFT.Ticket","components":[{"name":"eventId","type":"uint256","internalType":"uint256"},{"name":"ticketNumber","type":"uint256","internalType":"uint256"},{"name":"mintedAt","type":"uint256","internalType":"uint256"},{"name":"isUsed","type":"bool","internalType":"bool"}]}],"stateMutability":"view"},{"type":"function","name":"getTicketInfo","inputs":[{"name":"tokenId","type":"uint256","internalType":"uint256"}],"outputs":[{"name":"eventName","type":"string","internalType":"string"},{"name":"eventDate","type":"string","internalType":"string"},{"name":"eventLocation","type":"string","internalType":"string"},{"name":"ticketId","type":"uint256","internalType":"uint256"},{"name":"isUsed","type":"bool","internalType":"bool"}],"stateMutability":"view"},{"type":"function","name":"isApprovedForAll","inputs":[{"name":"owner","type":"address","internalType":"address"},{"name":"operator","type":"address","internalType":"address"}],"outputs":[{"name":"","type":"bool","internalType":"bool"}],"stateMutability":"view"},{"type":"function","name":"isTicketUsed","inputs":[{"name":"tokenId","type":"uint256","internalType":"uint256"}],"outputs":[{"name":"","type":"bool","internalType":"bool"}],"stateMutability":"view"},{"type":"function","name":"markTicketAsUsed","inputs":[{"name":"tokenId","type":"uint256","internalType":"uint256"}],"outputs":[],"stateMutability":"nonpayable"},{"type":"function","name":"mintTicket","inputs":[{"name":"eventId","type":"uint256","internalType":"uint256"},{"name":"to","type":"address","internalType":"address"}],"outputs":[{"name":"tokenId","type":"uint256","internalType":"uint256"}],"stateMutability":"payable"},{"type":"function","name":"name","inputs":[],"outputs":[{"name":"","type":"string","internalType":"string"}],"stateMutability":"view"},{"type":"function","name":"owner","inputs":[],"outputs":[{"name":"","type":"address","internalType":"address"}],"stateMutability":"view"},{"type":"function","name":"ownerOf","inputs":[{"name":"tokenId","type":"uint256","internalType":"uint256"}],"outputs":[{"name":"","type":"address","internalType":"address"}],"stateMutability":"view"},{"type":"function","name":"renounceOwnership","inputs":[],"outputs":[],"stateMutability":"nonpayable"},{"type":"function","name":"safeTransferFrom","inputs":[{"name":"from","type":"address","internalType":"address"},{"name":"to","type":"address","internalType":"address"},{"name":"tokenId","type":"uint256","internalType":"uint256"}],"outputs":[],"stateMutability":"nonpayable"},{"type":"function","name":"safeTransferFrom","inputs":[{"name":"from","type":"address","internalType":"address"},{"name":"to","type":"address","internalType":"address"},{"name":"tokenId","type":"uint256","internalType":"uint256"},{"name":"data","type":"bytes","internalType":"bytes"}],"outputs":[],"stateMutability":"nonpayable"},{"type":"function","name":"setApprovalForAll","inputs":[{"name":"operator","type":"address","internalType":"address"},{"name":"approved","type":"bool","internalType":"bool"}],"outputs":[],"stateMutability":"nonpayable"},{"type":"function","name":"setBaseImageURI","inputs":[{"name":"_baseImageURI","type":"string","internalType":"string"}],"outputs":[],"stateMutability":"nonpayable"},{"type":"function","name":"setVerifier","inputs":[{"name":"_verifier","type":"address","internalType":"address"}],"outputs":[],"stateMutability":"nonpayable"},{"type":"function","name":"supportsInterface","inputs":[{"name":"interfaceId","type":"bytes4","internalType":"bytes4"}],"outputs":[{"name":"","type":"bool","internalType":"bool"}],"stateMutability":"view"},{"type":"function","name":"symbol","inputs":[],"outputs":[{"name":"","type":"string","internalType":"string"}],"stateMutability":"view"},{"type":"function","name":"tickets","inputs":[{"name":"","type":"uint256","internalType":"uint256"}],"outputs":[{"name":"eventId","type":"uint256","internalType":"uint256"},{"name":"ticketNumber","type":"uint256","internalType":"uint256"},{"name":"mintedAt","type":"uint256","internalType":"uint256"},{"name":"isUsed","type":"bool","internalType":"bool"}],"stateMutability":"view"},{"type":"function","name":"toggleEventStatus","inputs":[{"name":"eventId","type":"uint256","internalType":"uint256"}],"outputs":[],"stateMutability":"nonpayable"},{"type":"function","name":"tokenCounter","inputs":[],"outputs":[{"name":"","type":"uint256","internalType":"uint256"}],"stateMutability":"view"},{"type":"function","name":"tokenURI","inputs":[{"name":"tokenId","type":"uint256","internalType":"uint256"}],"outputs":[{"name":"","type":"string","internalType":"string"}],"stateMutability":"view"},{"type":"function","name":"transferFrom","inputs":[{"name":"from","type":"address","internalType":"address"},{"name":"to","type":"address","internalType":"address"},{"name":"tokenId","type":"uint256","internalType":"uint256"}],"outputs":[],"stateMutability":"nonpayable"},{"type":"function","name":"transferOwnership","inputs":[{"name":"newOwner","type":"address","internalType":"address"}],"outputs":[],"stateMutability":"nonpayable"},{"type":"function","name":"verifier","inputs":[],"outputs":[{"name":"","type":"address","internalType":"address"}],"stateMutability":"view"},{"type":"function","name":"withdraw","inputs":[],"outputs":[],"stateMutability":"nonpayable"},{"type":"event","name":"Approval","inputs":[{"name":"owner","type":"address","indexed":true,"internalType":"address"},{"name":"approved","type":"address","indexed":true,"internalType":"address"},{"name":"tokenId","type":"uint256","indexed":true,"internalType":"uint256"}],"anonymous":false},{"type":"event","name":"ApprovalForAll","inputs":[{"name":"owner","type":"address","indexed":true,"internalType":"address"},{"name":"operator","type":"address","indexed":true,"internalType":"address"},{"name":"approved","type":"bool","indexed":false,"internalType":"bool"}],"anonymous":false},{"type":"event","name":"EventCreated","inputs":[{"name":"eventId","type":"uint256","indexed":true,"internalType":"uint256"},{"name":"eventName","type":"string","indexed":false,"internalType":"string"},{"name":"totalSupply","type":"uint256","indexed":false,"internalType":"uint256"},{"name":"price","type":"uint256","indexed":false,"internalType":"uint256"}],"anonymous":false},{"type":"event","name":"OwnershipTransferred","inputs":[{"name":"previousOwner","type":"address","indexed":true,"internalType":"address"},{"name":"newOwner","type":"address","indexed":true,"internalType":"address"}],"anonymous":false},{"type":"event","name":"TicketMinted","inputs":[{"name":"tokenId","type":"uint256","indexed":true,"internalType":"uint256"},{"name":"eventId","type":"uint256","indexed":true,"internalType":"uint256"},{"name":"owner","type":"address","indexed":true,"internalType":"address"},{"name":"ticketNumber","type":"uint256","indexed":false,"internalType":"uint256"}],"anonymous":false},{"type":"event","name":"TicketUsed","inputs":[{"name":"tokenId","type":"uint256","indexed":true,"internalType":"uint256"},{"name":"owner","type":"address","indexed":true,"internalType":"address"},{"name":"timestamp","type":"uint256","indexed":false,"internalType":"uint256"}],"anonymous":false},{"type":"event","name":"Transfer","inputs":[{"name":"from","type":"address","indexed":true,"internalType":"address"},{"name":"to","type":"address","indexed":true,"internalType":"address"},{"name":"tokenId","type":"uint256","indexed":true,"internalType":"uint256"}],"anonymous":false},{"type":"error","name":"CannotTransferUsedTicket","inputs":[]},{"type":"error","name":"ERC721IncorrectOwner","inputs":[{"name":"sender","type":"address","internalType":"address"},{"name":"tokenId","type":"uint256","internalType":"uint256"},{"name":"owner","type":"address","internalType":"address"}]},{"type":"error","name":"ERC721InsufficientApproval","inputs":[{"name":"operator","type":"address","internalType":"address"},{"name":"tokenId","type":"uint256","internalType":"uint256"}]},{"type":"error","name":"ERC721InvalidApprover","inputs":[{"name":"approver","type":"address","internalType":"address"}]},{"type":"error","name":"ERC721InvalidOperator","inputs":[{"name":"operator","type":"address","internalType":"address"}]},{"type":"error","name":"ERC721InvalidOwner","inputs":[{"name":"owner","type":"address","internalType":"address"}]},{"type":"error","name":"ERC721InvalidReceiver","inputs":[{"name":"receiver","type":"address","internalType":"address"}]},{"type":"error","name":"ERC721InvalidSender","inputs":[{"name":"sender","type":"address","internalType":"address"}]},{"type":"error","name":"ERC721NonexistentToken","inputs":[{"name":"tokenId","type":"uint256","internalType":"uint256"}]},{"type":"error","name":"EventNotActive","inputs":[]},{"type":"error","name":"InsufficientPayment","inputs":[]},{"type":"error","name":"InvalidEventId","inputs":[]},{"type":"error","name":"OwnableInvalidOwner","inputs":[{"name":"owner","type":"address","internalType":"address"}]},{"type":"error","name":"OwnableUnauthorizedAccount","inputs":[{"name":"account","type":"address","internalType":"address"}]},{"type":"error","name":"SoldOut","inputs":[]},{"type":"error","name":"TicketAlreadyUsed","inputs":[]},{"type":"error","name":"Unauthorized","inputs":[]}],"bytecode":{"object":"0x6080604052346103d957604080519081016001600160401b0381118282101761030e576040908152600c82526b456c6c69707469436865636b60a01b602083015280519081016001600160401b0381118282101761030e576040526003815262454c4360e81b602082015281516001600160401b03811161030e576100845f546103dd565b601f811161038c575b50602092601f821160011461032d57928192935f92610322575b50508160011b915f199060031b1c1916175f555b80516001600160401b03811161030e576100d66001546103dd565b601f81116102b5575b50602091601f8211600114610255579181925f9261024a575b50508160011b915f199060031b1c1916176001555b33156102375760068054336001600160a01b0319821681179092556001600160a01b03167f8be0079c531659141344cd1fd0a4f28419497f9722a3daafe3b4186f6b6457e05f80a36001600755600160085561016a600d546103dd565b601f81116101ee575b605b600d9081555f527f68747470733a2f2f6170692e64696365626561722e636f6d2f372e782f7368615f516020612cd45f395f51905f52556c7065732f7376673f736565643d60981b7fd7b6990105719101dabeb77144f2a3385c8033acd3af97e9423a695e81ad1eb6556040516128a8908161042c8239f35b600d5f5261023190601f0160051c5f516020612cd45f395f51905f52017fd7b6990105719101dabeb77144f2a3385c8033acd3af97e9423a695e81ad1eb7610415565b5f610173565b631e4fbdf760e01b5f525f60045260245ffd5b015190505f806100f8565b601f1982169260015f52805f20915f5b85811061029d57508360019510610285575b505050811b0160015561010d565b01515f1960f88460031b161c191690555f8080610277565b91926020600181928685015181550194019201610265565b60015f526102fe907fb10e2d527612073b26eecdfd717e6a320cf44b4afac2b0732d9fcbe2b7fa0cf6601f840160051c81019160208510610304575b601f0160051c0190610415565b5f6100df565b90915081906102f1565b634e487b7160e01b5f52604160045260245ffd5b015190505f806100a7565b601f198216935f8052805f20915f5b868110610374575083600195961061035c575b505050811b015f556100bb565b01515f1960f88460031b161c191690555f808061034f565b9192602060018192868501518155019401920161033c565b5f80526103d3907f290decd9548b62a8d60345a988386fc84ba6bc95484008f6362f93160ef3e563601f840160051c8101916020851061030457601f0160051c0190610415565b5f61008d565b5f80fd5b90600182811c9216801561040b575b60208310146103f757565b634e487b7160e01b5f52602260045260245ffd5b91607f16916103ec565b818110610420575050565b5f815560010161041556fe6080806040526004361015610012575f80fd5b5f3560e01c90816301ffc9a714611e855750806306fdde0314611de3578063081812fc14611da7578063095ea7b314611cbd5780630a15fa8b14611c045780630b79143014611b5f5780631af32d7814611b3557806323b872dd14611b1e5780632b7ac3f314611af65780632cd1d35c14611aba5780633ccfd60b14611a4857806342842e0e14611a1957806350b44712146119c857806352c55db91461199f5780635437988d1461195c5780636352211e1461192c5780636d1884e0146118bd57806370a082311461186c578063715018a61461181157806374f82e301461177f5780637dc379fa146116dd5780638647ca76146115645780638da5cb5b1461153c57806395d89b411461145e578063a22cb465146113ba578063a71820511461101b578063b88d4fde14610fb0578063c27a500d14610e92578063c87b56dd146108cc578063d082e3811461088f578063e13102e91461084a578063e985e9c5146107f3578063f2fde38b1461076d578063f5f00d84146102705763ff99a0631461019d575f80fd5b3461026c57602036600319011261026c576102416004356101bd81612476565b50805f52600a60205260405f2090604051916101d883611f78565b606060ff60038354938487526001810154602088015260028101546040880152015416930192151583525f52600960205261021560405f206123c9565b61025d81519361024f60406020850151940151915115159360405197889760a0895260a0890190611ef0565b908782036020890152611ef0565b908582036040870152611ef0565b91606084015260808301520390f35b5f80fd5b3461026c5760a036600319011261026c576004356001600160401b03811161026c576102a090369060040161215a565b6024356001600160401b03811161026c576102bf90369060040161215a565b916044356001600160401b03811161026c576102df90369060040161215a565b94909360643590610338608435966102f56124aa565b6103296008549761030589612429565b6008556040519461031586611f93565b610320368a8a612124565b86523691612124565b9860208401998a523691612124565b966040820197885260608201838152608083019088825260a084019260018452885f52600960205260405f2094518051906001600160401b0382116105dd5781906103838854611f40565b601f811161071d575b50602090601f83116001146106ba575f926106af575b50508160011b915f199060031b1c19161785555b51805160018601916001600160401b0382116105dd5781906103d88454611f40565b601f811161065f575b50602090601f83116001146105fc575f926105f1575b50508160011b915f199060031b1c19161790555b600284019951998a516001600160401b0381116105dd5761042c8254611f40565b9b601f8d11610598575b60209c508c90601f83116001146105005795608098958c9d956104bc95858e9d9b967f42e6867e52299b45991308391cccb9ee79466d194059ff10fc15c2d88f0ea0619f9b966005975f926104f5575b50508160011b915f199060031b1c19161790555b51600385015551600484015551151591019060ff801983541691151516179055565b60405195869460608652816060870152868601375f848401860152898401526040830152601f01601f19168101030190a2604051908152f35b015190505f80610486565b90601f19831691845f52815f20925f5b8181106105805750956104bc958e9f97867f42e6867e52299b45991308391cccb9ee79466d194059ff10fc15c2d88f0ea0619f9e9c97968f9c9660809f9c9660059960019510610568575b505050811b01905561049a565b01515f1960f88460031b161c191690555f808061055b565b92936020600181928786015181550195019301610510565b825f5260205f20601f830160051c81019d602084106105d3575b601f0160051c019c5b8d81106105c85750610436565b5f81556001016105bb565b909d508d906105b2565b634e487b7160e01b5f52604160045260245ffd5b015190508d806103f7565b5f8581528281209350601f198516905b818110610647575090846001959493921061062f575b505050811b01905561040b565b01515f1960f88460031b161c191690558d8080610622565b9293602060018192878601518155019501930161060c565b909150835f5260205f20601f840160051c810191602085106106a5575b90601f859493920160051c01905b81811061069757506103e1565b5f815584935060010161068a565b909150819061067c565b015190508d806103a2565b5f8981528281209350601f198516905b81811061070557509084600195949392106106ed575b505050811b0185556103b6565b01515f1960f88460031b161c191690558d80806106e0565b929360206001819287860151815501950193016106ca565b909150875f5260205f20601f840160051c81019160208510610763575b90601f859493920160051c01905b818110610755575061038c565b5f8155849350600101610748565b909150819061073a565b3461026c57602036600319011261026c57610786611f14565b61078e6124aa565b6001600160a01b031680156107e057600680546001600160a01b0319811683179091556001600160a01b03167f8be0079c531659141344cd1fd0a4f28419497f9722a3daafe3b4186f6b6457e05f80a3005b631e4fbdf760e01b5f525f60045260245ffd5b3461026c57604036600319011261026c5761080c611f14565b610814611f2a565b9060018060a01b03165f52600560205260405f209060018060a01b03165f52602052602060ff60405f2054166040519015158152f35b3461026c57602036600319011261026c5761088d6004356108696124aa565b5f908152600960205260409020600501805460ff818116151660ff19909116179055565b005b3461026c575f36600319011261026c576007545f1981019081116108b857602090604051908152f35b634e487b7160e01b5f52601160045260245ffd5b3461026c57602036600319011261026c576004356108e981612476565b50805f52600a60205260405f206040519061090382611f78565b8054808352606060ff60036001850154946020870195865260028101546040880152015416930192151583525f52600960205261094260405f206123c9565b9161094c84612612565b91604051946020860193865f600d5461096481611f40565b9060018116908115610e795750600114610e31575b50906020826109af94651d1a58dad95d60d21b600695528051928391018583015e015f838201520301601f198101885287611fae565b8451946109bb82612612565b968151956109c884612612565b908351926109e96109e26040602088015197015197612612565b9751612612565b975115610e0a576040516109fe604082611fae565b6004815263155cd95960e21b6020820152985b6040519b8c809c683d913730b6b2911d1160b91b60208301528051916020839201906029015e8c01602981016a202d205469636b6574202360a81b905281516020819301603483015e0160290161088b60f21b600b820152600d81017f226465736372697074696f6e223a224f6666696369616c206576656e742074699052602d810168031b5b2ba103337b9160bd1b905281516020819301603683015e01600b019061088b60f21b602b830152681134b6b0b3b2911d1160b91b602d830152518092603683015e01602b0161088b60f21b600b820152600d81017f2265787465726e616c5f75726c223a2268747470733a2f2f656c6c69707469639052602d81016f6865636b2e636f6d2f7469636b65742f60801b905281516020819301603d83015e01600b0161088b60f21b60328201526d2261747472696275746573223a5b60901b6034820152604281017f7b2274726169745f74797065223a224576656e74222c2276616c7565223a2200905281516020819301606183015e0160320162089f4b60ea1b602f820152603281017f7b2274726169745f74797065223a2244617465222c2276616c7565223a220000905281516020819301605083015e01602f0162089f4b60ea1b6021820152602481017f7b2274726169745f74797065223a224c6f636174696f6e222c2276616c7565229052611d1160f11b604482015281516020819301604683015e0160210162089f4b60ea1b6025820152602881017f7b2274726169745f74797065223a225469636b6574204944222c2276616c7565905262111d1160e91b604882015281516020819301604b83015e0160250162089f4b60ea1b6026820152602981017f7b2274726169745f74797065223a225469636b6574204e756d626572222c227690526630b63ab2911d1160c91b604982015281516020819301605083015e0160260162089f4b60ea1b602a820152602d81017f7b2274726169745f74797065223a22537461747573222c2276616c7565223a22905281516020819301604d83015e61227d60f01b9101604d810191909152615d7d60f01b604f82015203603181018252610d339060510182611fae565b604051610d41606082611fae565b60408082527f4142434445464748494a4b4c4d4e4f505152535455565758595a61626364656660208301527f6768696a6b6c6d6e6f707172737475767778797a303132333435363738392b2f90820152610d9a9161275a565b6040518091602082017f646174613a6170706c69636174696f6e2f6a736f6e3b6261736536342c000000905280516020819201603d84015e8101603d81015f905203603d01601f1981018252610df09082611fae565b60405180916020825260208201610e0691611ef0565b0390f35b604051610e18604082611fae565b600681526541637469766560d01b602082015298610a11565b9050600d5f525f5160206128535f395f51905f525f905b828210610e5e5750508101602090810190610979565b80829394602080946001945492010152019101899291610e48565b60ff191689525080151502820160209081019150610979565b3461026c575f36600319011261026c576008545f1981019081116108b857610eb981612437565b90610ec76040519283611fae565b808252601f19610ed682612437565b015f5b818110610f9957505060015b81811115610f5457826040518091602082016020835281518091526040830190602060408260051b8601019301915f905b828210610f2557505050500390f35b91936001919395506020610f448192603f198a820301865288516120a9565b9601920192018594939192610f16565b805f52600960205260405f20905f198101918183116108b857610f9492610f7d610f8e926123c9565b610f87828861244e565b528561244e565b50612429565b610ee5565b602090610fa4612396565b82828701015201610ed9565b3461026c57608036600319011261026c57610fc9611f14565b610fd1611f2a565b90604435606435926001600160401b03841161026c573660238501121561026c5761100961088d943690602481600401359101612124565b92611015838383612187565b336124d1565b604036600319011261026c57600435611032611f2a565b90805f52600960205261104760405f206123c9565b60a0810151156113ab57815f52600b60205260405f20546080820151111561139c5760600151341061138d5760075461107f81612429565b600755815f52600b60205260405f20916110998354612429565b8093556110f86040516110ab81611f78565b8281526003602082018681526040830142815260608401915f8352875f52600a60205260405f209451855551600185015551600284015551151591019060ff801983541691151516179055565b6020926040516111088582611fae565b5f81526001600160a01b03861695861561137a575f8581526002875260409020546001600160a01b0316151580611372575b61134c575b5f8581526002875260409020546001600160a01b0316801515908161131b575b885f526003885260405f2060018154019055865f526002885260405f20896bffffffffffffffffffffffff60a01b8254161790558689827fddf252ad1be2c89b69c2b068fc378daa952ba7f163c4a11628f55a4df523b3ef5f80a450611308573b6111fb575b5090827f4fe0f5bb11eb6ab81c428fb83261719e5b22f84b3e1942cd491c3777504bb851858794604051908152a4604051908152f35b846112349160405180938192630a85bd0160e11b83523360048401525f6024840152886044840152608060648401526084830190611ef0565b03815f8a5af15f91816112c8575b50611270578585611251612367565b805191908261126d5783633250574960e11b5f5260045260245ffd5b01fd5b939492936001600160e01b03191663757a42ff60e11b016112b5577f4fe0f5bb11eb6ab81c428fb83261719e5b22f84b3e1942cd491c3777504bb851949392946111c5565b82633250574960e11b5f5260045260245ffd5b9091508581813d8311611301575b6112e08183611fae565b8101031261026c57516001600160e01b03198116810361026c579087611242565b503d6112d6565b6339e3563760e11b5f525f60045260245ffd5b5f8781526004602052604080822080546001600160a01b031916905582825260038a52902080545f1901905561115f565b845f52600a865260ff600360405f200154161561113f57633b0653eb60e01b5f5260045ffd5b50600161113a565b633250574960e11b5f525f60045260245ffd5b63cd1c886760e01b5f5260045ffd5b6352df9fe560e01b5f5260045ffd5b6301e1837960e31b5f5260045ffd5b3461026c57604036600319011261026c576113d3611f14565b602435908115159081830361026c576001600160a01b031691821561144b5761141d90335f52600560205260405f20845f5260205260405f209060ff801983541691151516179055565b6040519081527f17307eab39ab6107e8899845ad3d59bd9653f200f220920489ca2b5937696c3160203392a3005b82630b61174360e31b5f5260045260245ffd5b3461026c575f36600319011261026c576040515f60015461147e81611f40565b808452906001811690811561151857506001146114ba575b610e06836114a681850382611fae565b604051918291602083526020830190611ef0565b60015f9081527fb10e2d527612073b26eecdfd717e6a320cf44b4afac2b0732d9fcbe2b7fa0cf6939250905b8082106114fe575090915081016020016114a6611496565b9192600181602092548385880101520191019092916114e6565b60ff191660208086019190915291151560051b840190910191506114a69050611496565b3461026c575f36600319011261026c576006546040516001600160a01b039091168152602090f35b3461026c57602036600319011261026c576004356001600160401b03811161026c573660238201121561026c576115a5903690602481600401359101612124565b6115ad6124aa565b80516001600160401b0381116105dd576115c8600d54611f40565b601f8111611675575b50602091601f821160011461160d579181925f92611602575b50505f19600383901b1c191660019190911b17600d55005b0151905082806115ea565b601f19821692600d5f525f5160206128535f395f51905f52915f5b85811061165d57508360019510611645575b505050811b01600d55005b01515f1960f88460031b161c1916905582808061163a565b91926020600181928685015181550194019201611628565b600d5f52601f820160051c5f5160206128535f395f51905f520190602083106116c8575b601f0160051c5f5160206128535f395f51905f5201905b8181106116bd57506115d1565b5f81556001016116b0565b5f5160206128535f395f51905f529150611699565b3461026c57602036600319011261026c576004355f606060405161170081611f78565b828152826020820152826040820152015261171a81612476565b505f52600a602052608060405f2060405161173481611f78565b815491828252600181015460208301908152606060ff600360028501549460408701958652015416930192151583526040519384525160208401525160408301525115156060820152f35b3461026c575f36600319011261026c576040515f600d5461179f81611f40565b808452906001811690811561151857506001146117c657610e06836114a681850382611fae565b600d5f9081525f5160206128535f395f51905f52939250905b8082106117f7575090915081016020016114a6611496565b9192600181602092548385880101520191019092916117df565b3461026c575f36600319011261026c576118296124aa565b600680546001600160a01b031981169091555f906001600160a01b03167f8be0079c531659141344cd1fd0a4f28419497f9722a3daafe3b4186f6b6457e08280a3005b3461026c57602036600319011261026c576001600160a01b0361188d611f14565b1680156118aa575f526003602052602060405f2054604051908152f35b6322718ad960e21b5f525f60045260245ffd5b3461026c57602036600319011261026c576004356118d9612396565b5080158015611920575b611911575f526009602052610e066118fd60405f206123c9565b6040519182916020835260208301906120a9565b630c93477d60e41b5f5260045ffd5b506008548110156118e3565b3461026c57602036600319011261026c57602061194a600435612476565b6040516001600160a01b039091168152f35b3461026c57602036600319011261026c57611975611f14565b61197d6124aa565b600c80546001600160a01b0319166001600160a01b0392909216919091179055005b3461026c575f36600319011261026c576008545f1981019081116108b857602090604051908152f35b3461026c57602036600319011261026c576004355f52600a602052608060405f2080549060018101549060ff6003600283015492015416916040519384526020840152604083015215156060820152f35b3461026c5761088d611a2a3661206f565b9060405192611a3a602085611fae565b5f8452611015838383612187565b3461026c575f36600319011261026c57611a606124aa565b5f80808060018060a01b036006541647905af1611a7b612367565b5015611a8357005b60405162461bcd60e51b815260206004820152600f60248201526e1dda5d1a191c985dc819985a5b1959608a1b6044820152606490fd5b3461026c57602036600319011261026c57600435611ad781612476565b505f52600a602052602060ff600360405f200154166040519015158152f35b3461026c575f36600319011261026c57600c546040516001600160a01b039091168152602090f35b3461026c5761088d611b2f3661206f565b91612187565b3461026c57602036600319011261026c576004355f52600b602052602060405f2054604051908152f35b3461026c57602036600319011261026c576004355f526009602052611bd260405f20611b8a81611fcf565b90611b9760018201611fcf565b611ba360028301611fcf565b91611bee600382015493611be060ff60056004860154950154169460405198899860c08a5260c08a0190611ef0565b9088820360208a0152611ef0565b908682036040880152611ef0565b9260608501526080840152151560a08301520390f35b3461026c57602036600319011261026c57600c54600435906001600160a01b03163303611caf57805f52600a60205260ff600360405f20015416611ca057805f52600a602052600360405f2001600160ff19825416179055611c6581612476565b6040514281526001600160a01b0390911691907f4f9c6210874b14266ea0f64418a0f7403a875226eae9483f5d9cd7663234db9a90602090a3005b630869773360e41b5f5260045ffd5b6282b42960e81b5f5260045ffd5b3461026c57604036600319011261026c57611cd6611f14565b602435611ce281612476565b33151580611d94575b80611d67575b611d545781906001600160a01b0384811691167f8c5be1e5ebec7d5bd14f71427d1e84f3dd0314c0f7b2291e5b200ac8c7c3b9255f80a45f90815260046020526040902080546001600160a01b0319166001600160a01b03909216919091179055005b63a9fbf51f60e01b5f523360045260245ffd5b506001600160a01b0381165f90815260056020908152604080832033845290915290205460ff1615611cf1565b506001600160a01b038116331415611ceb565b3461026c57602036600319011261026c57600435611dc481612476565b505f526004602052602060018060a01b0360405f205416604051908152f35b3461026c575f36600319011261026c576040515f5f54611e0281611f40565b80845290600181169081156115185750600114611e2957610e06836114a681850382611fae565b5f8080527f290decd9548b62a8d60345a988386fc84ba6bc95484008f6362f93160ef3e563939250905b808210611e6b575090915081016020016114a6611496565b919260018160209254838588010152019101909291611e53565b3461026c57602036600319011261026c576004359063ffffffff60e01b821680920361026c576020916380ac58cd60e01b8114908115611edf575b8115611ece575b5015158152f35b6301ffc9a760e01b14905083611ec7565b635b5e139f60e01b81149150611ec0565b805180835260209291819084018484015e5f828201840152601f01601f1916010190565b600435906001600160a01b038216820361026c57565b602435906001600160a01b038216820361026c57565b90600182811c92168015611f6e575b6020831014611f5a57565b634e487b7160e01b5f52602260045260245ffd5b91607f1691611f4f565b608081019081106001600160401b038211176105dd57604052565b60c081019081106001600160401b038211176105dd57604052565b90601f801991011681019081106001600160401b038211176105dd57604052565b9060405191825f825492611fe284611f40565b808452936001811690811561204d5750600114612009575b5061200792500383611fae565b565b90505f9291925260205f20905f915b818310612031575050906020612007928201015f611ffa565b6020919350806001915483858901015201910190918492612018565b90506020925061200794915060ff191682840152151560051b8201015f611ffa565b606090600319011261026c576004356001600160a01b038116810361026c57906024356001600160a01b038116810361026c579060443590565b9060a0806120ea6120d86120c6865160c0875260c0870190611ef0565b60208701518682036020880152611ef0565b60408601518582036040870152611ef0565b9360608101516060850152608081015160808501520151151591015290565b6001600160401b0381116105dd57601f01601f191660200190565b92919261213082612109565b9161213e6040519384611fae565b82948184528183011161026c578281602093845f960137010152565b9181601f8401121561026c578235916001600160401b03831161026c576020838186019501011161026c57565b6001600160a01b039091169190821561137a575f828152600260205260409020546001600160a01b031615158061235f575b612338575b5f828152600260205260409020546001600160a01b0316928290331515806122a3575b5084612270575b805f52600360205260405f2060018154019055815f52600260205260405f20816bffffffffffffffffffffffff60a01b825416179055847fddf252ad1be2c89b69c2b068fc378daa952ba7f163c4a11628f55a4df523b3ef5f80a46001600160a01b031680830361225857505050565b6364283d7b60e01b5f5260045260245260445260645ffd5b5f82815260046020526040902080546001600160a01b0319169055845f52600360205260405f205f1981540190556121e8565b909150806122e7575b156122b95782905f6121e1565b82846122d157637e27328960e01b5f5260045260245ffd5b63177e802f60e01b5f523360045260245260445ffd5b503384148015612316575b806122ac57505f838152600460205260409020546001600160a01b031633146122ac565b505f84815260056020908152604080832033845290915290205460ff166122f2565b815f52600a60205260ff600360405f20015416156121be57633b0653eb60e01b5f5260045ffd5b5060016121b9565b3d15612391573d9061237882612109565b916123866040519384611fae565b82523d5f602084013e565b606090565b604051906123a382611f93565b5f60a0836060815260606020820152606060408201528260608201528260808201520152565b906040516123d681611f93565b60a060ff600583956123e781611fcf565b85526123f560018201611fcf565b602086015261240660028201611fcf565b604086015260038101546060860152600481015460808601520154161515910152565b5f1981146108b85760010190565b6001600160401b0381116105dd5760051b60200190565b80518210156124625760209160051b010190565b634e487b7160e01b5f52603260045260245ffd5b5f818152600260205260409020546001600160a01b0316908115612498575090565b637e27328960e01b5f5260045260245ffd5b6006546001600160a01b031633036124be57565b63118cdaa760e01b5f523360045260245ffd5b823b6124df575b5050505050565b604051630a85bd0160e11b81526001600160a01b03918216600482015291811660248301526044820193909352608060648201529116916020908290819061252b906084830190611ef0565b03815f865af15f918161259b575b506125675750612547612367565b805190816125625782633250574960e11b5f5260045260245ffd5b602001fd5b6001600160e01b03191663757a42ff60e11b0161258957505f808080806124d8565b633250574960e11b5f5260045260245ffd5b9091506020813d6020116125d8575b816125b760209383611fae565b8101031261026c57516001600160e01b03198116810361026c57905f612539565b3d91506125aa565b906125ea82612109565b6125f76040519182611fae565b8281528092612608601f1991612109565b0190602036910137565b805f9172184f03e93ff9f4daa797ed6e38ed64bf6a1f0160401b821015612737575b806d04ee2d6d415b85acef8100000000600a92101561271c575b662386f26fc10000811015612708575b6305f5e1008110156126f7575b6127108110156126e8575b60648110156126da575b10156126cf575b600a6021612697600185016125e0565b938401015b5f1901916f181899199a1a9b1b9c1cb0b131b232b360811b8282061a83530480156126ca57600a909161269c565b505090565b600190910190612687565b606460029104930192612680565b61271060049104930192612676565b6305f5e1006008910493019261266b565b662386f26fc100006010910493019261265e565b6d04ee2d6d415b85acef81000000006020910493019261264e565b506040915072184f03e93ff9f4daa797ed6e38ed64bf6a1f0160401b8104612634565b91909180511561283b578051600281018091116108b85760039004600281901b906001600160fe1b038116036108b857612793906125e0565b90602082019080815182019560208701908151925f83525b8881106127ed57505060039394959650525106806001146127db576002146127d1575090565b603d905f19015390565b50603d90815f19820153600119015390565b600360049199969901986001603f8b5182828260121c16870101518453828282600c1c16870101518385015382828260061c16870101516002850153168401015160038201530194976127ab565b50905060405161284c602082611fae565b5f81529056fed7b6990105719101dabeb77144f2a3385c8033acd3af97e9423a695e81ad1eb5a264697066735822122070b2724a232d49eeb731c6bfe5015dc1938ed4633e3fb4ab899eaccf61b3602264736f6c634300081e0033d7b6990105719101dabeb77144f2a3385c8033acd3af97e9423a695e81ad1eb5","linkReferences":{}},"methodIdentifiers":{"approve(address,uint256)":"095ea7b3","balanceOf(address)":"70a08231","baseImageURI()":"74f82e30","createEvent(string,string,string,uint256,uint256)":"f5f00d84","eventCounter()":"52c55db9","eventTicketCount(uint256)":"1af32d78","events(uint256)":"0b791430","getAllEvents()":"c27a500d","getApproved(uint256)":"081812fc","getEvent(uint256)":"6d1884e0","getTicket(uint256)":"7dc379fa","getTicketInfo(uint256)":"ff99a063","isApprovedForAll(address,address)":"e985e9c5","isTicketUsed(uint256)":"2cd1d35c","markTicketAsUsed(uint256)":"0a15fa8b","mintTicket(uint256,address)":"a7182051","name()":"06fdde03","owner()":"8da5cb5b","ownerOf(uint256)":"6352211e","renounceOwnership()":"715018a6","safeTransferFrom(address,address,uint256)":"42842e0e","safeTransferFrom(address,address,uint256,bytes)":"b88d4fde","setApprovalForAll(address,bool)":"a22cb465","setBaseImageURI(string)":"8647ca76","setVerifier(address)":"5437988d","supportsInterface(bytes4)":"01ffc9a7","symbol()":"95d89b41","tickets(uint256)":"50b44712","toggleEventStatus(uint256)":"e13102e9","tokenCounter()":"d082e381","tokenURI(uint256)":"c87b56dd","transferFrom(address,address,uint256)":"23b872dd","transferOwnership(address)":"f2fde38b","verifier()":"2b7ac3f3","withdraw()":"3ccfd60b"},"id":36}