{"abi":[{"type":"constructor","inputs":[{"name":"name","type":"string","internalType":"string"},{"name":"symbol","type":"string","internalType":"string"}],"stateMutability":"nonpayable"},{"type":"function","name":"approve","inputs":[{"name":"to","type":"address","internalType":"address"},{"name":"tokenId","type":"uint256","internalType":"uint256"}],"outputs":[],"stateMutability":"nonpayable"},{"type":"function","name":"balanceOf","inputs":[{"name":"owner","type":"address","internalType":"address"}],"outputs":[{"name":"","type":"uint256","internalType":"uint256"}],"stateMutability":"view"},{"type":"function","name":"getApproved","inputs":[{"name":"tokenId","type":"uint256","internalType":"uint256"}],"outputs":[{"name":"","type":"address","internalType":"address"}],"stateMutability":"view"},{"type":"function","name":"isApprovedForAll","inputs":[{"name":"owner","type":"address","internalType":"address"},{"name":"operator","type":"address","internalType":"address"}],"outputs":[{"name":"","type":"bool","internalType":"bool"}],"stateMutability":"view"},{"type":"function","name":"mintTicket","inputs":[{"name":"to","type":"address","internalType":"address"},{"name":"eventId","type":"uint256","internalType":"uint256"},{"name":"metadataHash","type":"bytes32","internalType":"bytes32"}],"outputs":[{"name":"","type":"uint256","internalType":"uint256"}],"stateMutability":"nonpayable"},{"type":"function","name":"name","inputs":[],"outputs":[{"name":"","type":"string","internalType":"string"}],"stateMutability":"view"},{"type":"function","name":"owner","inputs":[],"outputs":[{"name":"","type":"address","internalType":"address"}],"stateMutability":"view"},{"type":"function","name":"ownerOf","inputs":[{"name":"tokenId","type":"uint256","internalType":"uint256"}],"outputs":[{"name":"","type":"address","internalType":"address"}],"stateMutability":"view"},{"type":"function","name":"renounceOwnership","inputs":[],"outputs":[],"stateMutability":"nonpayable"},{"type":"function","name":"safeTransferFrom","inputs":[{"name":"from","type":"address","internalType":"address"},{"name":"to","type":"address","internalType":"address"},{"name":"tokenId","type":"uint256","internalType":"uint256"}],"outputs":[],"stateMutability":"nonpayable"},{"type":"function","name":"safeTransferFrom","inputs":[{"name":"from","type":"address","internalType":"address"},{"name":"to","type":"address","internalType":"address"},{"name":"tokenId","type":"uint256","internalType":"uint256"},{"name":"data","type":"bytes","internalType":"bytes"}],"outputs":[],"stateMutability":"nonpayable"},{"type":"function","name":"setApprovalForAll","inputs":[{"name":"operator","type":"address","internalType":"address"},{"name":"approved","type":"bool","internalType":"bool"}],"outputs":[],"stateMutability":"nonpayable"},{"type":"function","name":"supportsInterface","inputs":[{"name":"interfaceId","type":"bytes4","internalType":"bytes4"}],"outputs":[{"name":"","type":"bool","internalType":"bool"}],"stateMutability":"view"},{"type":"function","name":"symbol","inputs":[],"outputs":[{"name":"","type":"string","internalType":"string"}],"stateMutability":"view"},{"type":"function","name":"ticketMetadata","inputs":[{"name":"","type":"uint256","internalType":"uint256"}],"outputs":[{"name":"","type":"bytes32","internalType":"bytes32"}],"stateMutability":"view"},{"type":"function","name":"tokenURI","inputs":[{"name":"tokenId","type":"uint256","internalType":"uint256"}],"outputs":[{"name":"","type":"string","internalType":"string"}],"stateMutability":"view"},{"type":"function","name":"totalSupply","inputs":[],"outputs":[{"name":"","type":"uint256","internalType":"uint256"}],"stateMutability":"view"},{"type":"function","name":"transferFrom","inputs":[{"name":"from","type":"address","internalType":"address"},{"name":"to","type":"address","internalType":"address"},{"name":"tokenId","type":"uint256","internalType":"uint256"}],"outputs":[],"stateMutability":"nonpayable"},{"type":"function","name":"transferOwnership","inputs":[{"name":"newOwner","type":"address","internalType":"address"}],"outputs":[],"stateMutability":"nonpayable"},{"type":"event","name":"Approval","inputs":[{"name":"owner","type":"address","indexed":true,"internalType":"address"},{"name":"approved","type":"address","indexed":true,"internalType":"address"},{"name":"tokenId","type":"uint256","indexed":true,"internalType":"uint256"}],"anonymous":false},{"type":"event","name":"ApprovalForAll","inputs":[{"name":"owner","type":"address","indexed":true,"internalType":"address"},{"name":"operator","type":"address","indexed":true,"internalType":"address"},{"name":"approved","type":"bool","indexed":false,"internalType":"bool"}],"anonymous":false},{"type":"event","name":"OwnershipTransferred","inputs":[{"name":"previousOwner","type":"address","indexed":true,"internalType":"address"},{"name":"newOwner","type":"address","indexed":true,"internalType":"address"}],"anonymous":false},{"type":"event","name":"TicketMinted","inputs":[{"name":"ticketId","type":"uint256","indexed":true,"internalType":"uint256"},{"name":"owner","type":"address","indexed":true,"internalType":"address"},{"name":"eventId","type":"uint256","indexed":false,"internalType":"uint256"},{"name":"metadataHash","type":"bytes32","indexed":false,"internalType":"bytes32"}],"anonymous":false},{"type":"event","name":"Transfer","inputs":[{"name":"from","type":"address","indexed":true,"internalType":"address"},{"name":"to","type":"address","indexed":true,"internalType":"address"},{"name":"tokenId","type":"uint256","indexed":true,"internalType":"uint256"}],"anonymous":false},{"type":"error","name":"ERC721IncorrectOwner","inputs":[{"name":"sender","type":"address","internalType":"address"},{"name":"tokenId","type":"uint256","internalType":"uint256"},{"name":"owner","type":"address","internalType":"address"}]},{"type":"error","name":"ERC721InsufficientApproval","inputs":[{"name":"operator","type":"address","internalType":"address"},{"name":"tokenId","type":"uint256","internalType":"uint256"}]},{"type":"error","name":"ERC721InvalidApprover","inputs":[{"name":"approver","type":"address","internalType":"address"}]},{"type":"error","name":"ERC721InvalidOperator","inputs":[{"name":"operator","type":"address","internalType":"address"}]},{"type":"error","name":"ERC721InvalidOwner","inputs":[{"name":"owner","type":"address","internalType":"address"}]},{"type":"error","name":"ERC721InvalidReceiver","inputs":[{"name":"receiver","type":"address","internalType":"address"}]},{"type":"error","name":"ERC721InvalidSender","inputs":[{"name":"sender","type":"address","internalType":"address"}]},{"type":"error","name":"ERC721NonexistentToken","inputs":[{"name":"tokenId","type":"uint256","internalType":"uint256"}]},{"type":"error","name":"OwnableInvalidOwner","inputs":[{"name":"owner","type":"address","internalType":"address"}]},{"type":"error","name":"OwnableUnauthorizedAccount","inputs":[{"name":"account","type":"address","internalType":"address"}]}],"bytecode":{"object":"0x608060405234620003535762001357803803806200001d8162000357565b928339810190604081830312620003535780516001600160401b03908181116200035357836200004f9184016200037d565b916020938482015183811162000353576200006b92016200037d565b9282519082821162000271575f54916001948584811c9416801562000348575b8385101462000252578190601f94858111620002f5575b50839085831160011462000291575f9262000285575b50505f19600383901b1c191690851b175f555b8451928311620002715783548481811c9116801562000266575b8282101462000252578281116200020a575b5080918311600114620001a657508192935f926200019a575b50505f19600383901b1c191690821b1790555b3315620001825760068054336001600160a01b03198216811790925560405191906001600160a01b03167f8be0079c531659141344cd1fd0a4f28419497f9722a3daafe3b4186f6b6457e05f80a35f600755610f699081620003ee8239f35b604051631e4fbdf760e01b81525f6004820152602490fd5b015190505f8062000110565b90601f19831694845f52825f20925f905b878210620001f257505083859610620001d9575b505050811b01905562000123565b01515f1960f88460031b161c191690555f8080620001cb565b808785968294968601518155019501930190620001b7565b845f52815f208380860160051c82019284871062000248575b0160051c019085905b8281106200023c575050620000f7565b5f81550185906200022c565b9250819262000223565b634e487b7160e01b5f52602260045260245ffd5b90607f1690620000e5565b634e487b7160e01b5f52604160045260245ffd5b015190505f80620000b8565b90879350601f198316915f8052855f20925f5b87828210620002de5750508411620002c5575b505050811b015f55620000cb565b01515f1960f88460031b161c191690555f8080620002b7565b8385015186558b97909501949384019301620002a4565b9091505f8052835f208580850160051c8201928686106200033e575b918991869594930160051c01915b8281106200032f575050620000a2565b5f81558594508991016200031f565b9250819262000311565b93607f16936200008b565b5f80fd5b6040519190601f01601f191682016001600160401b038111838210176200027157604052565b919080601f84011215620003535782516001600160401b0381116200027157602090620003b3601f8201601f1916830162000357565b9281845282828701011162000353575f5b818110620003d95750825f9394955001015290565b8581018301518482018401528201620003c456fe608060409080825260049081361015610016575f80fd5b5f3560e01c90816301ffc9a714610a765750806306fdde03146109af578063081812fc14610976578063095ea7b31461089a57806318160ddd1461087c57806323b872dd1461086557806342842e0e14610837578063634093ee1461058d5780636352211e1461055d57806370a0823114610508578063715018a6146104ad5780638da5cb5b1461048557806395d89b4114610375578063a22cb465146102d9578063b88d4fde14610246578063c87b56dd146101f3578063e985e9c5146101a5578063ea05fc511461017d5763f2fde38b146100f1575f80fd5b346101795760203660031901126101795761010a610b1e565b90610113610dbd565b6001600160a01b03918216928315610163575050600654826001600160601b0360a01b821617600655167f8be0079c531659141344cd1fd0a4f28419497f9722a3daafe3b4186f6b6457e05f80a3005b905f6024925191631e4fbdf760e01b8352820152fd5b5f80fd5b50903461017957602036600319011261017957602091355f5260088252805f20549051908152f35b82346101795780600319360112610179576020906101c1610b1e565b6101c9610b34565b9060018060a01b038091165f5260058452825f2091165f52825260ff815f20541690519015158152f35b509034610179576020366003190112610179576102136102429235610d83565b505f815161022081610b7f565b5280519061022d82610b7f565b5f825251918291602083526020830190610ae0565b0390f35b50903461017957608036600319011261017957610261610b1e565b610269610b34565b604435916064359467ffffffffffffffff86116101795736602387011215610179578501356102a361029a82610bd1565b95519586610baf565b8085523660248288010111610179576020815f9260246102d7990183890137860101526102d1838383610bed565b33610de9565b005b5090346101795780600319360112610179576102f3610b1e565b9060243591821515809303610179576001600160a01b03169283156103605750335f526005602052805f20835f52602052805f2060ff1981541660ff8416179055519081527f17307eab39ab6107e8899845ad3d59bd9653f200f220920489ca2b5937696c3160203392a3005b836024925191630b61174360e31b8352820152fd5b509034610179575f366003190112610179578051905f90600191600154928360011c906001851694851561047b575b6020958684108114610468578388528794939291879082156104465750506001146103eb575b505061024292916103dc910385610baf565b51928284938452830190610ae0565b9085925060015f527fb10e2d527612073b26eecdfd717e6a320cf44b4afac2b0732d9fcbe2b7fa0cf6915f925b82841061042e57505050820101816103dc6103ca565b8054848a018601528895508794909301928101610418565b60ff19168682015292151560051b850190920192508391506103dc90506103ca565b602289634e487b7160e01b5f525260245ffd5b91607f16916103a4565b8234610179575f3660031901126101795760065490516001600160a01b039091168152602090f35b34610179575f366003190112610179576104c5610dbd565b600680546001600160a01b031981169091555f906001600160a01b03167f8be0079c531659141344cd1fd0a4f28419497f9722a3daafe3b4186f6b6457e08280a3005b509034610179576020366003190112610179576001600160a01b0361052b610b1e565b16801561054757602092505f5260038252805f20549051908152f35b81516322718ad960e21b81525f81850152602490fd5b5090346101795760203660031901126101795761057c60209235610d83565b90516001600160a01b039091168152f35b5034610179576060366003190112610179576105a7610b1e565b604435929060246105b6610dbd565b6007545f19959086811461082557600101948560075584516105d781610b7f565b5f81526001600160a01b038581169590861561081057885f52888760209b8c93600285528b5f2054169081151594856107de575b50505f82815260038e528b81208054600101905583815260028e528b812080546001600160a01b031916841790557fddf252ad1be2c89b69c2b068fc378daa952ba7f163c4a11628f55a4df523b3ef9080a46107c9573b6106ab575b50508385927f8811fc041e6a57d95124333f7756d53a5041b848d804206cba405dafd50661d492845f526008895280835f205582519135825288820152a351908152f35b9080969291885f866106ed8a999a9c989c519485938493630a85bd0160e11b988986523390860152840152886044840152608060648401526084830190610ae0565b03815f8b5af15f9181610789575b5061075357505050503d5f1461074b573d9061071682610bd1565b9161072384519384610baf565b82523d5f8284013e5b81519182610748575050505191633250574960e11b8352820152fd5b01fd5b60609061072c565b63ffffffff60e0999599989394989796971b160361077357508385610667565b8451633250574960e11b81529081018490529050fd5b9091508581813d83116107c2575b6107a18183610baf565b8101031261017957516001600160e01b03198116810361017957905f6106fb565b503d610797565b86516339e3563760e11b81525f818501528590fd5b5f85815260046020526040902080546001600160a01b0319169055600390835f52528b5f209081540190555f8d61060b565b8751633250574960e11b81525f818601528690fd5b82601187634e487b7160e01b5f52525ffd5b8234610179576102d79061084a36610b4a565b9192519261085784610b7f565b5f84526102d1838383610bed565b34610179576102d761087636610b4a565b91610bed565b8234610179575f366003190112610179576020906007549051908152f35b5090346101795780600319360112610179576108b4610b1e565b916024356108c181610d83565b33151580610963575b8061093c575b610926576001600160a01b039485169482918691167f8c5be1e5ebec7d5bd14f71427d1e84f3dd0314c0f7b2291e5b200ac8c7c3b9255f80a45f526020525f20906001600160601b0360a01b8254161790555f80f35b835163a9fbf51f60e01b81523381850152602490fd5b5060018060a01b0381165f526005602052835f20335f5260205260ff845f205416156108d0565b506001600160a01b0381163314156108ca565b50903461017957602036600319011261017957816020923561099781610d83565b505f52825260018060a01b03815f2054169051908152f35b509034610179575f366003190112610179578051905f905f549160018360011c9060018516948515610a6c575b602095868410811461046857838852879493929187908215610446575050600114610a1357505061024292916103dc910385610baf565b5f80805286935091907f290decd9548b62a8d60345a988386fc84ba6bc95484008f6362f93160ef3e5635b828410610a5457505050820101816103dc6103ca565b8054848a018601528895508794909301928101610a3e565b91607f16916109dc565b823461017957602036600319011261017957359063ffffffff60e01b8216809203610179576020916380ac58cd60e01b8114908115610acf575b8115610abe575b5015158152f35b6301ffc9a760e01b14905083610ab7565b635b5e139f60e01b81149150610ab0565b91908251928382525f5b848110610b0a575050825f602080949584010152601f8019910116010190565b602081830181015184830182015201610aea565b600435906001600160a01b038216820361017957565b602435906001600160a01b038216820361017957565b6060906003190112610179576001600160a01b0390600435828116810361017957916024359081168103610179579060443590565b6020810190811067ffffffffffffffff821117610b9b57604052565b634e487b7160e01b5f52604160045260245ffd5b90601f8019910116810190811067ffffffffffffffff821117610b9b57604052565b67ffffffffffffffff8111610b9b57601f01601f191660200190565b6001600160a01b039182169290918315610d6b57815f52602092600284528260409583875f2054169533151580610cd9575b5060029087610ca8575b825f5260038152885f2060018154019055835f5252865f20816001600160601b0360a01b825416179055857fddf252ad1be2c89b69c2b068fc378daa952ba7f163c4a11628f55a4df523b3ef5f80a41692838303610c875750505050565b6064945051926364283d7b60e01b8452600484015260248301526044820152fd5b5f84815260046020526040812080546001600160a01b03191690558881526003825289902080545f19019055610c29565b9192509080610d2a575b15610cf1579084915f610c1f565b868587610d0e576024915190637e27328960e01b82526004820152fd5b604491519063177e802f60e01b82523360048301526024820152fd5b503386148015610d4f575b80610ce35750845f52600481523384885f20541614610ce3565b50855f5260058152865f20335f52815260ff875f205416610d35565b604051633250574960e11b81525f6004820152602490fd5b5f818152600260205260409020546001600160a01b0316908115610da5575090565b60249060405190637e27328960e01b82526004820152fd5b6006546001600160a01b03163303610dd157565b60405163118cdaa760e01b8152336004820152602490fd5b9293909193843b610dfc575b5050505050565b604051630a85bd0160e11b8082526001600160a01b039586166004830152938516602482015260448101919091526080606482015260209594909316939290859082908190610e4f906084830190610ae0565b03815f885af15f9181610ef3575b50610ebc575050503d5f14610eb4573d91610e7783610bd1565b92610e856040519485610baf565b83523d5f8285013e5b82519283610eaf57604051633250574960e11b815260048101849052602490fd5b019050fd5b606091610e8e565b9193506001600160e01b031990911603610edb57505f80808080610df5565b60249060405190633250574960e11b82526004820152fd5b9091508581813d8311610f2c575b610f0b8183610baf565b8101031261017957516001600160e01b03198116810361017957905f610e5d565b503d610f0156fea2646970667358221220c024de53caee1c74835ca952ee7d0aea33018fbc646e240de69e9f0552375d8864736f6c63430008180033","linkReferences":{}},"methodIdentifiers":{"approve(address,uint256)":"095ea7b3","balanceOf(address)":"70a08231","getApproved(uint256)":"081812fc","isApprovedForAll(address,address)":"e985e9c5","mintTicket(address,uint256,bytes32)":"634093ee","name()":"06fdde03","owner()":"8da5cb5b","ownerOf(uint256)":"6352211e","renounceOwnership()":"715018a6","safeTransferFrom(address,address,uint256)":"42842e0e","safeTransferFrom(address,address,uint256,bytes)":"b88d4fde","setApprovalForAll(address,bool)":"a22cb465","supportsInterface(bytes4)":"01ffc9a7","symbol()":"95d89b41","ticketMetadata(uint256)":"ea05fc51","tokenURI(uint256)":"c87b56dd","totalSupply()":"18160ddd","transferFrom(address,address,uint256)":"23b872dd","transferOwnership(address)":"f2fde38b"},"id":16}