{"abi":[{"type":"constructor","inputs":[{"name":"_ticketNFT","type":"address","internalType":"address"}],"stateMutability":"nonpayable"},{"type":"function","name":"DOMAIN_SEPARATOR","inputs":[],"outputs":[{"name":"","type":"bytes32","internalType":"bytes32"}],"stateMutability":"view"},{"type":"function","name":"TYPEHASH","inputs":[],"outputs":[{"name":"","type":"bytes32","internalType":"bytes32"}],"stateMutability":"view"},{"type":"function","name":"ticketNFT","inputs":[],"outputs":[{"name":"","type":"address","internalType":"contract TicketNFT"}],"stateMutability":"view"},{"type":"function","name":"usedDigest","inputs":[{"name":"","type":"bytes32","internalType":"bytes32"}],"outputs":[{"name":"","type":"bool","internalType":"bool"}],"stateMutability":"view"},{"type":"function","name":"verifyAccess","inputs":[{"name":"req","type":"tuple","internalType":"struct TicketVerifier.VerificationRequest","components":[{"name":"ticketId","type":"uint256","internalType":"uint256"},{"name":"owner","type":"address","internalType":"address"},{"name":"deadline","type":"uint256","internalType":"uint256"},{"name":"metadataHash","type":"bytes32","internalType":"bytes32"}]},{"name":"sig","type":"tuple","internalType":"struct TicketVerifier.SignatureData","components":[{"name":"r","type":"uint256","internalType":"uint256"},{"name":"s","type":"uint256","internalType":"uint256"},{"name":"Qx","type":"uint256","internalType":"uint256"},{"name":"Qy","type":"uint256","internalType":"uint256"}]}],"outputs":[{"name":"","type":"bool","internalType":"bool"}],"stateMutability":"nonpayable"},{"type":"event","name":"TicketRejected","inputs":[{"name":"ticketId","type":"uint256","indexed":false,"internalType":"uint256"},{"name":"reason","type":"string","indexed":false,"internalType":"string"}],"anonymous":false},{"type":"event","name":"TicketVerified","inputs":[{"name":"owner","type":"address","indexed":true,"internalType":"address"},{"name":"ticketId","type":"uint256","indexed":false,"internalType":"uint256"},{"name":"digest","type":"bytes32","indexed":false,"internalType":"bytes32"}],"anonymous":false},{"type":"error","name":"Expired","inputs":[]},{"type":"error","name":"InvalidPublicKey","inputs":[]},{"type":"error","name":"InvalidSignature","inputs":[]},{"type":"error","name":"NotOwner","inputs":[]},{"type":"error","name":"Replayed","inputs":[]}],"bytecode":{"object":"0x608060405234801561000f575f80fd5b50604051610dbd380380610dbd83398101604081905261002e916100f5565b5f80546001600160a01b0319166001600160a01b038316179055604080517f8b73c3c69bb8fe3d512ecc4cf759cc79239f7b179b0ffacaa9a75d522b39400f60208201527f93ab398023282bbbe8643ec643d528b8278428194e3fcc84fe8324e9b3e1767a918101919091527fc89efdaa54c0f20c7adf612882df0950f5a951637e0307cdcb4c672f298b8bc6606082015246608082018190523060a08301529060c001604051602081830303815290604052805190602001206001819055505050610122565b5f60208284031215610105575f80fd5b81516001600160a01b038116811461011b575f80fd5b9392505050565b610c8e8061012f5f395ff3fe608060405234801561000f575f80fd5b5060043610610055575f3560e01c80633644e515146100595780633b639e6f1461007557806389782d2e1461009c578063b35bfdc6146100ce578063b393391b146100e1575b5f80fd5b61006260015481565b6040519081526020015b60405180910390f35b6100627f98bedf8cc3414a2996ce566792f72a2abcc6d18a5bd91475f7b33a653c5928bd81565b6100be6100aa366004610b58565b60026020525f908152604090205460ff1681565b604051901515815260200161006c565b6100be6100dc366004610b85565b61010b565b5f546100f3906001600160a01b031681565b6040516001600160a01b03909116815260200161006c565b5f826040013542111561013157604051630407b05b60e31b815260040160405180910390fd5b6101416040840160208501610bd0565b5f546040516331a9108f60e11b8152853560048201526001600160a01b039283169290911690636352211e90602401602060405180830381865afa15801561018b573d5f803e3d5ffd5b505050506040513d601f19601f820116820180604052508101906101af9190610beb565b6001600160a01b0316146101d6576040516330cd747160e01b815260040160405180910390fd5b5f6101e084610300565b5f8181526002602052604090205490915060ff161561021257604051637b63160160e11b815260040160405180910390fd5b61022c6102256040860160208701610bd0565b82856103cf565b5f81815260026020526040808220805460ff1916600117905590549051630a15fa8b60e01b8152853560048201526001600160a01b0390911690630a15fa8b906024015f604051808303815f87803b158015610286575f80fd5b505af1158015610298573d5f803e3d5ffd5b506102ad925050506040850160208601610bd0565b6040805186358152602081018490526001600160a01b0392909216917f763d86327afbecf1cb7d5b9fc69643f9198fd501b9cb37375f5ced29d52fc601910160405180910390a260019150505b92915050565b5f807f98bedf8cc3414a2996ce566792f72a2abcc6d18a5bd91475f7b33a653c5928bd83356103356040860160208701610bd0565b604080516020810194909452838101929092526001600160a01b031660608381019190915290850135608083015284013560a082015260c001604051602081830303815290604052805190602001209050600154816040516020016103b192919061190160f01b81526002810192909252602282015260420190565b60405160208183030381529060405280519060200120915050919050565b604080518082018252908201358152606082013560208201526001600160a01b0384166103fb82610456565b6001600160a01b0316146104225760405163145a1fdd60e31b815260040160405180910390fd5b61043383833560208501358461049a565b61045057604051638baa579f60e01b815260040160405180910390fd5b50505050565b5f80825f0151836020015160405160200161047b929190918252602082015260400190565b60408051601f1981840301815291905280516020909101209392505050565b5f80841180156104bb575070014551231950b75fc4402da1732fc9bebe1984105b6104f85760405162461bcd60e51b815260206004820152600960248201526834b73b30b634b2103960b91b60448201526064015b60405180910390fd5b5f8311801561052757507f7fffffffffffffffffffffffffffffff5d576e7357a4501ddfe92f46681b20a08311155b6105735760405162461bcd60e51b815260206004820152601f60248201527f696e76616c69642073202d206d616c6c6561626c65207369676e61747572650060448201526064016104ef565b61057c826106d8565b6105c85760405162461bcd60e51b815260206004820152601760248201527f7075626c6963206b6579206e6f74206f6e20637572766500000000000000000060448201526064016104ef565b5f6105e58470014551231950b75fc4402da1732fc9bebe1961075f565b90505f70014551231950b75fc4402da1732fc9bebe1982880990505f70014551231950b75fc4402da1732fc9bebe1983880990505f61068a61067b8460405180604001604052807f79be667ef9dcbbac55a06295ce870b07029bfcdb2dce28d959f2815b16f8179881526020017f483ada7726a3c4655da4fbfc0e1108a8fd17b448a68554199c47d08ffb10d4b8815250610823565b6106858489610823565b6108a7565b805190915015801561069e57506020810151155b156106af575f9450505050506106d0565b8770014551231950b75fc4402da1732fc9bebe1982515f9008149450505050505b949350505050565b80515f901580156106eb57506020820151155b156106f757505f919050565b81516401000003d01911158061071757506401000003d019826020015110155b1561072357505f919050565b5f6401000003d0196020840151800990505f6401000003d01960076401000003d01986516401000003d019885180090908919091149392505050565b5f815f036107af5760405162461bcd60e51b815260206004820152601b60248201527f6d6f64496e76657273653a204d4f44554c55535f49535f5a45524f000000000060448201526064016104ef565b6107b98284610c1a565b5f036108075760405162461bcd60e51b815260206004820152601a60248201527f6d6f64496e76657273653a204e4f545f494e5645525449424c4500000000000060448201526064016104ef565b61081c83610816600285610c39565b84610af2565b9392505050565b604080518082019091525f808252602082015261085270014551231950b75fc4402da1732fc9bebe1984610c1a565b604080518082019091525f80825260208201529093509050815b83156108a05760018416156108885761088582826108a7565b91505b61089281826108a7565b9050600184901c935061086c565b5092915050565b604080518082019091525f808252602082015282511580156108cb57506020830151155b156108d75750806102fa565b81511580156108e857506020820151155b156108f45750816102fa565b8151835114801561091457506401000003d0198260200151846020015108155b156109325750604080518082019091525f80825260208201526102fa565b815183515f9114801561094c575082602001518460200151145b156109e55783602001515f03610976575050604080518082019091525f80825260208201526102fa565b5f6401000003d019602086015180089050805f036109ac5760405180604001604052805f81526020015f815250925050506102fa565b5f6401000003d019808751800960030990505f6109cf836401000003d01961075f565b90506401000003d0198183099350505050610a71565b5f6401000003d01985516109ff906401000003d019610c39565b8551089050805f03610a295760405180604001604052805f81526020015f815250925050506102fa565b5f6401000003d0196020870151610a46906401000003d019610c39565b86602001510890505f610a5f836401000003d01961075f565b90506401000003d01981830993505050505b5f6401000003d019808551875108610a8f906401000003d019610c39565b6401000003d0198485090890505f6401000003d0196020870151610ab9906401000003d019610c39565b6401000003d01980610ad1866401000003d019610c39565b8a510886090860408051808201909152928352602083015250949350505050565b5f610afe826001610c1a565b90505f610b0b8386610c1a565b90505b8315610b50576001841615610b31578280610b2b57610b2b610c06565b81830991505b8280610b3f57610b3f610c06565b8182099050600184901c9350610b0e565b509392505050565b5f60208284031215610b68575f80fd5b5035919050565b5f60808284031215610b7f575f80fd5b50919050565b5f806101008385031215610b97575f80fd5b610ba18484610b6f565b9150610bb08460808501610b6f565b90509250929050565b6001600160a01b0381168114610bcd575f80fd5b50565b5f60208284031215610be0575f80fd5b813561081c81610bb9565b5f60208284031215610bfb575f80fd5b815161081c81610bb9565b634e487b7160e01b5f52601260045260245ffd5b5f82610c3457634e487b7160e01b5f52601260045260245ffd5b500690565b818103818111156102fa57634e487b7160e01b5f52601160045260245ffdfea264697066735822122007a1eedb5069e6ed80fd75a9eadcbd7a039053eba396093f5934f0ffed69bbb064736f6c63430008180033","linkReferences":{}},"methodIdentifiers":{"DOMAIN_SEPARATOR()":"3644e515","TYPEHASH()":"3b639e6f","ticketNFT()":"b393391b","usedDigest(bytes32)":"89782d2e","verifyAccess((uint256,address,uint256,bytes32),(uint256,uint256,uint256,uint256))":"b35bfdc6"},"id":33}