{"abi":[{"type":"constructor","inputs":[{"name":"name","type":"string","internalType":"string"},{"name":"version","type":"string","internalType":"string"},{"name":"nftAddress","type":"address","internalType":"address"}],"stateMutability":"nonpayable"},{"type":"function","name":"DOMAIN_SEPARATOR","inputs":[],"outputs":[{"name":"","type":"bytes32","internalType":"bytes32"}],"stateMutability":"view"},{"type":"function","name":"TICKET_ACCESS_TYPEHASH","inputs":[],"outputs":[{"name":"","type":"bytes32","internalType":"bytes32"}],"stateMutability":"view"},{"type":"function","name":"getNonce","inputs":[{"name":"user","type":"address","internalType":"address"}],"outputs":[{"name":"","type":"uint256","internalType":"uint256"}],"stateMutability":"view"},{"type":"function","name":"issuer","inputs":[],"outputs":[{"name":"","type":"address","internalType":"address"}],"stateMutability":"view"},{"type":"function","name":"ticketNFT","inputs":[],"outputs":[{"name":"","type":"address","internalType":"contract TicketNFT"}],"stateMutability":"view"},{"type":"function","name":"usedDigest","inputs":[{"name":"","type":"bytes32","internalType":"bytes32"}],"outputs":[{"name":"","type":"bool","internalType":"bool"}],"stateMutability":"view"},{"type":"function","name":"userNonce","inputs":[{"name":"","type":"address","internalType":"address"}],"outputs":[{"name":"","type":"uint256","internalType":"uint256"}],"stateMutability":"view"},{"type":"function","name":"verifyAccess","inputs":[{"name":"ticketId","type":"uint256","internalType":"uint256"},{"name":"owner","type":"address","internalType":"address"},{"name":"nonce","type":"uint256","internalType":"uint256"},{"name":"deadline","type":"uint256","internalType":"uint256"},{"name":"metadataHash","type":"bytes32","internalType":"bytes32"},{"name":"signature","type":"bytes","internalType":"bytes"}],"outputs":[{"name":"","type":"bool","internalType":"bool"}],"stateMutability":"nonpayable"},{"type":"event","name":"TicketRejected","inputs":[{"name":"owner","type":"address","indexed":true,"internalType":"address"},{"name":"ticketId","type":"uint256","indexed":true,"internalType":"uint256"},{"name":"reason","type":"string","indexed":false,"internalType":"string"}],"anonymous":false},{"type":"event","name":"TicketUsed","inputs":[{"name":"ticketId","type":"uint256","indexed":true,"internalType":"uint256"},{"name":"owner","type":"address","indexed":true,"internalType":"address"},{"name":"usedAt","type":"uint256","indexed":false,"internalType":"uint256"}],"anonymous":false},{"type":"event","name":"TicketVerified","inputs":[{"name":"owner","type":"address","indexed":true,"internalType":"address"},{"name":"ticketId","type":"uint256","indexed":true,"internalType":"uint256"},{"name":"digest","type":"bytes32","indexed":false,"internalType":"bytes32"},{"name":"timestamp","type":"uint256","indexed":false,"internalType":"uint256"}],"anonymous":false}],"bytecode":{"object":"0x60a060409080825234620001b757620011758038038091620000228285620001bb565b83398101606082820312620001b75781516001600160401b039390848111620001b7578262000053918501620001df565b60209283850151868111620001b757839162000071918701620001df565b9401516001600160a01b03811690818103620001b757811562000173573b156200013a573360805260018060a01b03196001541617600155828151910120928281519101208151928301937f8b73c3c69bb8fe3d512ecc4cf759cc79239f7b179b0ffacaa9a75d522b39400f85528284015260608301524660808301523060a083015260a0825260c08201938285109085111762000126578390525190205f55610f2190816200025482396080518160a10152f35b634e487b7160e01b5f52604160045260245ffd5b825162461bcd60e51b81526004810185905260126024820152711b999d081b9bdd08184818dbdb9d1c9858dd60721b6044820152606490fd5b835162461bcd60e51b815260048101869052601360248201527f696e76616c6964206e66742061646472657373000000000000000000000000006044820152606490fd5b5f80fd5b601f909101601f19168101906001600160401b038211908210176200012657604052565b919080601f84011215620001b75782516001600160401b0381116200012657602090604051926200021a83601f19601f8501160185620001bb565b818452828287010111620001b7575f5b8181106200023f5750825f9394955001015290565b85810183015184820184015282016200022a56fe60806040526004361015610011575f80fd5b5f3560e01c80631d1438481461008f5780632d0335ab1461008a5780632e04b8e71461008a5780633644e5151461008557806389782d2e146100805780638b5c48fe1461007b578063b393391b146100765763dc5f8e4214610071575f80fd5b6101d0565b6101a8565b61016e565b61013f565b610123565b6100e8565b346100d3575f3660031901126100d3577f00000000000000000000000000000000000000000000000000000000000000006001600160a01b03166080908152602090f35b5f80fd5b6001600160a01b038116036100d357565b346100d35760203660031901126100d357600435610105816100d7565b60018060a01b03165f526003602052602060405f2054604051908152f35b346100d3575f3660031901126100d35760205f54604051908152f35b346100d35760203660031901126100d3576004355f526002602052602060ff60405f2054166040519015158152f35b346100d3575f3660031901126100d35760206040517ff5ee570ac56743ca9c983b66af891007b708140fbd6ec40cb5575b95bbfae9f18152f35b346100d3575f3660031901126100d3576001546040516001600160a01b039091168152602090f35b346100d35760c03660031901126100d3576024356101ed816100d7565b60a43567ffffffffffffffff8082116100d357366023830112156100d35781600401359081116100d35736602482840101116100d3576102559260246102439301906084359060643590604435906004356103af565b60405190151581529081906020820190565b0390f35b1561026057565b60405162461bcd60e51b815260206004820152600d60248201526c696e76616c6964206e6f6e636560981b6044820152606490fd5b634e487b7160e01b5f52604160045260245ffd5b6040810190811067ffffffffffffffff8211176102c557604052565b610295565b90601f8019910116810190811067ffffffffffffffff8211176102c557604052565b908160209103126100d35751610301816100d7565b90565b6040513d5f823e3d90fd5b6040519061031c826102a9565b565b92919267ffffffffffffffff82116102c55760405191610348601f8201601f1916602001846102ca565b8294818452818301116100d3578281602093845f960137010152565b606090602081526009602082015268696e76616c6964207360b81b60408201520190565b634e487b7160e01b5f52601160045260245ffd5b5f1981146103aa5760010190565b610388565b939695919290946103db6103d38760018060a01b03165f52600360205260405f2090565b548514610259565b81421161082b576001546001600160a01b031660409889519384926331a9108f60e11b8452602095869181806104198d600483019190602083019252565b03915afa968715610826578b935f986107f7575b506001600160a01b038a811698168890036107895783517ff5ee570ac56743ca9c983b66af891007b708140fbd6ec40cb5575b95bbfae9f1818801908152602081018b90526001600160a01b038c1660408201526060810192909252608082019290925260a081019290925261050d9361050893909290916104f1916104fd91908160c0820103916104c7601f19938481018352826102ca565b5190205f5494519384918a83019687909160429261190160f01b8352600283015260228201520190565b039081018352826102ca565b51902094369161031e565b6108a1565b7f7fffffffffffffffffffffffffffffff5d576e7357a4501ddfe92f46681b20a0829392116107525760ff16601b8114159081610746575b506106d857916105a9916105ad937f887a3962ff861190b531ab31ee82f0d7f255dfe3ab73ca627bd70ab3d1cbb41761057c61030f565b937f931e7fda8da226f799f791eefc9afebcd7ae2b1b19a03c5eaa8d72122d9fe74d855284015285610915565b1590565b610662576106358161065196976105e47fd6ec2bdf3ab9cf4176753797dc798cc20ec9820edfbf7444890027d43af4d09194600455565b600580546001600160a01b0319166001600160a01b03891617905561060886610a5d565b6106115f600455565b600580546001600160a01b0319169055519081524260208201529081906040820190565b0390a36001600160a01b03165f90815260036020526040902090565b61065b815461039c565b9055600190565b8583835f80516020610ecc8339815191528351806106a08160609060208152600b60208201526a696e76616c69642073696760a81b60408201520190565b0390a35162461bcd60e51b815260206004820152600b60248201526a696e76616c69642073696760a81b6044820152606490fd5b0390fd5b8886865f80516020610ecc8339815191528351806107148160609060208152600960208201526834b73b30b634b2103b60b91b60408201520190565b0390a35162461bcd60e51b815260206004820152600960248201526834b73b30b634b2103b60b91b6044820152606490fd5b601c915014155f610545565b8987875f80516020610ecc83398151915283518061076f81610364565b0390a35162461bcd60e51b8152806106d460048201610364565b8389895f80516020610ecc8339815191528351806107c5816060906020815260096020820152683737ba1037bbb732b960b91b60408201520190565b0390a35162461bcd60e51b81526020600482015260096024820152683737ba1037bbb732b960b91b6044820152606490fd5b610818919850863d881161081f575b61081081836102ca565b8101906102ec565b965f61042d565b503d610806565b610304565b84865f80516020610ecc8339815191526040519160018060a01b0316918061086f81606090602081526007602082015266195e1c1a5c995960ca1b60408201520190565b0390a360405162461bcd60e51b8152602060048201526007602482015266195e1c1a5c995960ca1b6044820152606490fd5b60418151036108bf57602081015191606060408301519201515f1a90565b60405162461bcd60e51b815260206004820152600e60248201526d0d2dcecc2d8d2c840d8cadccee8d60931b6044820152606490fd5b156108fc57565b60405162461bcd60e51b8152806106d460048201610364565b92909283151580610a42575b15610a11576109c46109ca9261094b856109bc961515806109f6575b610946906108f5565b610be5565b9270014551231950b75fc4402da1732fc9bebe19958691828661096c61030f565b927f79be667ef9dcbbac55a06295ce870b07029bfcdb2dce28d959f2815b16f8179884527f483ada7726a3c4655da4fbfc0e1108a8fd17b448a68554199c47d08ffb10d4b8602085015209610d58565b938709610d58565b90610db8565b805190811590816109e9575b506109e2575f90081490565b5050505f90565b602091500151155f6109d6565b5070014551231950b75fc4402da1732fc9bebe19811061093d565b60405162461bcd60e51b815260206004820152600960248201526834b73b30b634b2103960b91b6044820152606490fd5b5070014551231950b75fc4402da1732fc9bebe198410610921565b6004549060018060a01b036005541691805f52600260205260ff60405f205416610ac3575f52600260205260405f20600160ff198254161790557f4f9c6210874b14266ea0f64418a0f7403a875226eae9483f5d9cd7663234db9a6020604051428152a3565b50905f80516020610ecc83398151915260405180610afe816060906020815260086020820152671c995c1b185e595960c21b60408201520190565b0390a360405162461bcd60e51b81526020600482015260086024820152671c995c1b185e595960c21b6044820152606490fd5b90816003029160038304036103aa57565b600181901b91906001600160ff1b038116036103aa57565b818102929181159184041417156103aa57565b6401000003d019908103919082116103aa57565b81810392915f1380158285131691841216176103aa57565b70014551231950b75fc4402da1732fc9bebe1980820192915f138015918412918216911516176103aa57565b6401000003d01980820192915f138015918412918216911516176103aa57565b80158015610c86575b8015610c7f575b610c7a575f70014551231950b75fc4402da1732fc9bebe196001835b610c2c57505090505f8112610c235790565b61030190610b99565b83820491610c3a8584610b5a565b81039081116103aa579392819282810292600160ff1b81145f8312166103aa5781840514901517156103aa578491610c7191610b81565b91929190610c11565b505f90565b505f610bf5565b5070014551231950b75fc4402da1732fc9bebe198114610bee565b80158015610d31575b8015610d2a575b610c7a575f6401000003d0196001835b610cdc57505090505f8112610cd35790565b61030190610bc5565b83820491610cea8584610b5a565b81039081116103aa579392819282810292600160ff1b81145f8312166103aa5781840514901517156103aa578491610d2191610b81565b91929190610cc1565b505f610cb1565b506401000003d0198114610caa565b60405190610d4d826102a9565b5f6020838281520152565b919091610d63610d40565b5080604051610d71816102a9565b5f81525f602082015293915b610d85575050565b600191828216610da2575b80610d9a91610db8565b911c80610d7d565b93610db085610d9a92610db8565b949050610d90565b90610dc1610d40565b50815191821580610ebf575b610eb9578151801580610ead575b610ea657610e349293145f14610e6757610e5260208251610e056401000003d01982819309610b31565b610e19610e1484870151610b42565b610ca1565b9009945b6401000003d0198095818093875190519008610b6d565b818880090895818551610e4689610b6d565b90089009920151610b6d565b9008610e5c61030f565b918252602082015290565b610e526020808501516401000003d0198091610e8584870151610b6d565b9008610e9e828851610e978851610b6d565b9008610ca1565b900994610e1d565b5091505090565b50602083015115610ddb565b50905090565b50602081015115610dcd56feb0fb23af3262c9f38ea2dd95f41a95c63744291e12989b8c1750829157d99797a26469706673582212200db0096b0d02dd8c124b438af9e3b34a34cb2eadd682ebe0c9d026259a396eef64736f6c63430008180033","linkReferences":{}},"methodIdentifiers":{"DOMAIN_SEPARATOR()":"3644e515","TICKET_ACCESS_TYPEHASH()":"8b5c48fe","getNonce(address)":"2d0335ab","issuer()":"1d143848","ticketNFT()":"b393391b","usedDigest(bytes32)":"89782d2e","userNonce(address)":"2e04b8e7","verifyAccess(uint256,address,uint256,uint256,bytes32,bytes)":"dc5f8e42"},"id":17}