{"abi":[{"type":"constructor","inputs":[{"name":"name","type":"string","internalType":"string"},{"name":"version","type":"string","internalType":"string"},{"name":"nftAddress","type":"address","internalType":"address"}],"stateMutability":"nonpayable"},{"type":"function","name":"DOMAIN_SEPARATOR","inputs":[],"outputs":[{"name":"","type":"bytes32","internalType":"bytes32"}],"stateMutability":"view"},{"type":"function","name":"TICKET_ACCESS_TYPEHASH","inputs":[],"outputs":[{"name":"","type":"bytes32","internalType":"bytes32"}],"stateMutability":"view"},{"type":"function","name":"issuer","inputs":[],"outputs":[{"name":"","type":"address","internalType":"address"}],"stateMutability":"view"},{"type":"function","name":"ticketNFT","inputs":[],"outputs":[{"name":"","type":"address","internalType":"contract TicketNFT"}],"stateMutability":"view"},{"type":"function","name":"usedDigest","inputs":[{"name":"","type":"bytes32","internalType":"bytes32"}],"outputs":[{"name":"","type":"bool","internalType":"bool"}],"stateMutability":"view"},{"type":"function","name":"verifyAccess","inputs":[{"name":"ticketId","type":"uint256","internalType":"uint256"},{"name":"owner","type":"address","internalType":"address"},{"name":"nonce","type":"uint256","internalType":"uint256"},{"name":"deadline","type":"uint256","internalType":"uint256"},{"name":"metadataHash","type":"bytes32","internalType":"bytes32"},{"name":"signature","type":"bytes","internalType":"bytes"}],"outputs":[{"name":"","type":"bool","internalType":"bool"}],"stateMutability":"nonpayable"},{"type":"event","name":"TicketRejected","inputs":[{"name":"owner","type":"address","indexed":true,"internalType":"address"},{"name":"ticketId","type":"uint256","indexed":true,"internalType":"uint256"},{"name":"reason","type":"string","indexed":false,"internalType":"string"}],"anonymous":false},{"type":"event","name":"TicketUsed","inputs":[{"name":"ticketId","type":"uint256","indexed":true,"internalType":"uint256"},{"name":"owner","type":"address","indexed":true,"internalType":"address"},{"name":"usedAt","type":"uint256","indexed":false,"internalType":"uint256"}],"anonymous":false},{"type":"event","name":"TicketVerified","inputs":[{"name":"owner","type":"address","indexed":true,"internalType":"address"},{"name":"ticketId","type":"uint256","indexed":true,"internalType":"uint256"},{"name":"digest","type":"bytes32","indexed":false,"internalType":"bytes32"},{"name":"timestamp","type":"uint256","indexed":false,"internalType":"uint256"}],"anonymous":false}],"bytecode":{"object":"0x60a0604090808252346101ae57610bea803803809161001e82856101b2565b833981016060828203126101ae5781516001600160401b0393908481116101ae578261004b9185016101d5565b602092838501518681116101ae5783916100669187016101d5565b9401516001600160a01b038116908181036101ae57811561016a573b15610131573360805260018060a01b03196001541617600155828151910120928281519101208151928301937f8b73c3c69bb8fe3d512ecc4cf759cc79239f7b179b0ffacaa9a75d522b39400f85528284015260608301524660808301523060a083015260a0825260c08201938285109085111761011d578390525190205f556109a7908161024382396080518181816086015261045a0152f35b634e487b7160e01b5f52604160045260245ffd5b825162461bcd60e51b81526004810185905260126024820152711b999d081b9bdd08184818dbdb9d1c9858dd60721b6044820152606490fd5b835162461bcd60e51b815260048101869052601360248201527f696e76616c6964206e66742061646472657373000000000000000000000000006044820152606490fd5b5f80fd5b601f909101601f19168101906001600160401b0382119082101761011d57604052565b919080601f840112156101ae5782516001600160401b03811161011d576020906040519261020c83601f19601f85011601856101b2565b8184528282870101116101ae575f5b81811061022f5750825f9394955001015290565b858101830151848201840152820161021b56fe60806040526004361015610011575f80fd5b5f3560e01c80631d143848146100745780633644e5151461006f57806389782d2e1461006a5780638b5c48fe14610065578063b393391b146100605763dc5f8e421461005b575f80fd5b61017a565b610141565b610107565b6100d8565b6100bc565b346100b8575f3660031901126100b8577f00000000000000000000000000000000000000000000000000000000000000006001600160a01b03166080908152602090f35b5f80fd5b346100b8575f3660031901126100b85760205f54604051908152f35b346100b85760203660031901126100b8576004355f526002602052602060ff60405f2054166040519015158152f35b346100b8575f3660031901126100b85760206040517ff5ee570ac56743ca9c983b66af891007b708140fbd6ec40cb5575b95bbfae9f18152f35b346100b8575f3660031901126100b8576001546040516001600160a01b039091168152602090f35b6001600160a01b038116036100b857565b346100b85760c03660031901126100b85760243561019781610169565b60a43567ffffffffffffffff8082116100b857366023830112156100b85781600401359081116100b85736602482840101116100b8576101ff9260246101ed9301906084359060643590604435906004356102a7565b60405190151581529081906020820190565b0390f35b634e487b7160e01b5f52604160045260245ffd5b90601f8019910116810190811067ffffffffffffffff82111761023957604052565b610203565b908160209103126100b8575161025381610169565b90565b6040513d5f823e3d90fd5b92919267ffffffffffffffff8211610239576040519161028b601f8201601f191660200184610217565b8294818452818301116100b8578281602093845f960137010152565b9593909192948542116107b357600154879291906001600160a01b0316604080516331a9108f60e11b815260048082019690965290969093602093928490869060249082905afa948515610611575f95610784575b506001600160a01b038781169a909586168b900361070e5788517ff5ee570ac56743ca9c983b66af891007b708140fbd6ec40cb5575b95bbfae9f1868201908152602081018e90526001600160a01b038a1660408201526060810194909452608084019190915260a08301919091526103df926103da929091906103c3906103cf908360c082010393610397601f1995868101835282610217565b519020925f54938c519384918a83019687909160429261190160f01b8352600283015260228201520190565b03908101835282610217565b519020983691610261565b610829565b907f7fffffffffffffffffffffffffffffff5d576e7357a4501ddfe92f46681b20a081116106985760ff8216601b811415908161068c575b5061061657875189815260ff929092166020830152604082019290925260608101919091525f8080529060809060015afa1561061157805f5116908115610597577f0000000000000000000000000000000000000000000000000000000000000000160361051357509161050b916104d57fd6ec2bdf3ab9cf4176753797dc798cc20ec9820edfbf7444890027d43af4d091946104b384600355565b60018060a01b03166bffffffffffffffffffffffff60a01b6004541617600455565b6104de8661087d565b6104e75f600355565b600480546001600160a01b0319169055519081524260208201529081906040820190565b0390a3600190565b610593908387875f805160206109528339815191528351806105588160609060208152600e60208201526d34b73b30b634b21039b4b3b732b960911b60408201520190565b0390a35191829162461bcd60e51b8352820160609060208152600e60208201526d34b73b30b634b21039b4b3b732b960911b60408201520190565b0390fd5b61059383868a8a5f805160206109528339815191528351806105d98160609060208152600b60208201526a696e76616c69642073696760a81b60408201520190565b0390a35191829162461bcd60e51b8352820160609060208152600b60208201526a696e76616c69642073696760a81b60408201520190565b610256565b61059386898d8d5f805160206109528339815191528351806106568160609060208152600960208201526834b73b30b634b2103b60b91b60408201520190565b0390a35191829162461bcd60e51b8352820160609060208152600960208201526834b73b30b634b2103b60b91b60408201520190565b601c915014155f610417565b61059386898d8d5f805160206109528339815191528351806106d881606090602081526009602082015268696e76616c6964207360b81b60408201520190565b0390a35191829162461bcd60e51b83528201606090602081526009602082015268696e76616c6964207360b81b60408201520190565b610593878a8e8e5f8051602061095283398151915283518061074e816060906020815260096020820152683737ba1037bbb732b960b91b60408201520190565b0390a35191829162461bcd60e51b835282016060906020815260096020820152683737ba1037bbb732b960b91b60408201520190565b6107a5919550843d86116107ac575b61079d8183610217565b81019061023e565b935f6102fc565b503d610793565b86835f805160206109528339815191526040519160018060a01b031691806107f781606090602081526007602082015266195e1c1a5c995960ca1b60408201520190565b0390a360405162461bcd60e51b8152602060048201526007602482015266195e1c1a5c995960ca1b6044820152606490fd5b604181510361084757602081015191606060408301519201515f1a90565b60405162461bcd60e51b815260206004820152600e60248201526d0d2dcecc2d8d2c840d8cadccee8d60931b6044820152606490fd5b6003549060018060a01b036004541691805f52600260205260ff60405f2054166108e3575f52600260205260405f20600160ff198254161790557f4f9c6210874b14266ea0f64418a0f7403a875226eae9483f5d9cd7663234db9a6020604051428152a3565b50905f805160206109528339815191526040518061091e816060906020815260086020820152671c995c1b185e595960c21b60408201520190565b0390a360405162461bcd60e51b81526020600482015260086024820152671c995c1b185e595960c21b6044820152606490fdfeb0fb23af3262c9f38ea2dd95f41a95c63744291e12989b8c1750829157d99797a26469706673582212206bd30625594049e2d8cec71e8c6f33ef7a8c058f505ceeb5e89fdf05529b673964736f6c63430008180033","linkReferences":{}},"methodIdentifiers":{"DOMAIN_SEPARATOR()":"3644e515","TICKET_ACCESS_TYPEHASH()":"8b5c48fe","issuer()":"1d143848","ticketNFT()":"b393391b","usedDigest(bytes32)":"89782d2e","verifyAccess(uint256,address,uint256,uint256,bytes32,bytes)":"dc5f8e42"},"id":35}