{
    "abi": [
        {
            "type": "constructor",
            "inputs": [
                {
                    "name": "_ticketNFT",
                    "type": "address",
                    "internalType": "address"
                }
            ],
            "stateMutability": "nonpayable"
        },
        {
            "type": "function",
            "name": "DOMAIN_SEPARATOR",
            "inputs": [],
            "outputs": [
                {
                    "name": "",
                    "type": "bytes32",
                    "internalType": "bytes32"
                }
            ],
            "stateMutability": "view"
        },
        {
            "type": "function",
            "name": "TICKET_ACCESS_TYPEHASH",
            "inputs": [],
            "outputs": [
                {
                    "name": "",
                    "type": "bytes32",
                    "internalType": "bytes32"
                }
            ],
            "stateMutability": "view"
        },
        {
            "type": "function",
            "name": "getNonce",
            "inputs": [
                {
                    "name": "owner",
                    "type": "address",
                    "internalType": "address"
                }
            ],
            "outputs": [
                {
                    "name": "",
                    "type": "uint256",
                    "internalType": "uint256"
                }
            ],
            "stateMutability": "view"
        },
        {
            "type": "function",
            "name": "isDigestUsed",
            "inputs": [
                {
                    "name": "digest",
                    "type": "bytes32",
                    "internalType": "bytes32"
                }
            ],
            "outputs": [
                {
                    "name": "",
                    "type": "bool",
                    "internalType": "bool"
                }
            ],
            "stateMutability": "view"
        },
        {
            "type": "function",
            "name": "nonces",
            "inputs": [
                {
                    "name": "",
                    "type": "address",
                    "internalType": "address"
                }
            ],
            "outputs": [
                {
                    "name": "",
                    "type": "uint256",
                    "internalType": "uint256"
                }
            ],
            "stateMutability": "view"
        },
        {
            "type": "function",
            "name": "ticketNFT",
            "inputs": [],
            "outputs": [
                {
                    "name": "",
                    "type": "address",
                    "internalType": "contract TicketNFT"
                }
            ],
            "stateMutability": "view"
        },
        {
            "type": "function",
            "name": "usedDigest",
            "inputs": [
                {
                    "name": "",
                    "type": "bytes32",
                    "internalType": "bytes32"
                }
            ],
            "outputs": [
                {
                    "name": "",
                    "type": "bool",
                    "internalType": "bool"
                }
            ],
            "stateMutability": "view"
        },
        {
            "type": "function",
            "name": "verifyAccess",
            "inputs": [
                {
                    "name": "request",
                    "type": "tuple",
                    "internalType": "struct TicketVerifier.VerificationRequest",
                    "components": [
                        {
                            "name": "ticketId",
                            "type": "uint256",
                            "internalType": "uint256"
                        },
                        {
                            "name": "owner",
                            "type": "address",
                            "internalType": "address"
                        },
                        {
                            "name": "nonce",
                            "type": "uint256",
                            "internalType": "uint256"
                        },
                        {
                            "name": "deadline",
                            "type": "uint256",
                            "internalType": "uint256"
                        },
                        {
                            "name": "metadataHash",
                            "type": "bytes32",
                            "internalType": "bytes32"
                        }
                    ]
                },
                {
                    "name": "signature",
                    "type": "tuple",
                    "internalType": "struct TicketVerifier.SignatureData",
                    "components": [
                        {
                            "name": "r",
                            "type": "uint256",
                            "internalType": "uint256"
                        },
                        {
                            "name": "s",
                            "type": "uint256",
                            "internalType": "uint256"
                        },
                        {
                            "name": "Qx",
                            "type": "uint256",
                            "internalType": "uint256"
                        },
                        {
                            "name": "Qy",
                            "type": "uint256",
                            "internalType": "uint256"
                        }
                    ]
                }
            ],
            "outputs": [
                {
                    "name": "",
                    "type": "bool",
                    "internalType": "bool"
                }
            ],
            "stateMutability": "nonpayable"
        },
        {
            "type": "function",
            "name": "verifyAccess",
            "inputs": [
                {
                    "name": "ticketId",
                    "type": "uint256",
                    "internalType": "uint256"
                },
                {
                    "name": "owner",
                    "type": "address",
                    "internalType": "address"
                },
                {
                    "name": "nonce",
                    "type": "uint256",
                    "internalType": "uint256"
                },
                {
                    "name": "deadline",
                    "type": "uint256",
                    "internalType": "uint256"
                },
                {
                    "name": "metadataHash",
                    "type": "bytes32",
                    "internalType": "bytes32"
                },
                {
                    "name": "r",
                    "type": "uint256",
                    "internalType": "uint256"
                },
                {
                    "name": "s",
                    "type": "uint256",
                    "internalType": "uint256"
                },
                {
                    "name": "Qx",
                    "type": "uint256",
                    "internalType": "uint256"
                },
                {
                    "name": "Qy",
                    "type": "uint256",
                    "internalType": "uint256"
                }
            ],
            "outputs": [
                {
                    "name": "",
                    "type": "bool",
                    "internalType": "bool"
                }
            ],
            "stateMutability": "nonpayable"
        },
        {
            "type": "event",
            "name": "TicketRejected",
            "inputs": [
                {
                    "name": "owner",
                    "type": "address",
                    "indexed": true,
                    "internalType": "address"
                },
                {
                    "name": "ticketId",
                    "type": "uint256",
                    "indexed": true,
                    "internalType": "uint256"
                },
                {
                    "name": "reason",
                    "type": "string",
                    "indexed": false,
                    "internalType": "string"
                }
            ],
            "anonymous": false
        },
        {
            "type": "event",
            "name": "TicketVerified",
            "inputs": [
                {
                    "name": "owner",
                    "type": "address",
                    "indexed": true,
                    "internalType": "address"
                },
                {
                    "name": "ticketId",
                    "type": "uint256",
                    "indexed": true,
                    "internalType": "uint256"
                },
                {
                    "name": "digest",
                    "type": "bytes32",
                    "indexed": false,
                    "internalType": "bytes32"
                },
                {
                    "name": "timestamp",
                    "type": "uint256",
                    "indexed": false,
                    "internalType": "uint256"
                }
            ],
            "anonymous": false
        },
        {
            "type": "error",
            "name": "Expired",
            "inputs": []
        },
        {
            "type": "error",
            "name": "InvalidPublicKey",
            "inputs": []
        },
        {
            "type": "error",
            "name": "InvalidSignature",
            "inputs": []
        },
        {
            "type": "error",
            "name": "NotOwner",
            "inputs": []
        },
        {
            "type": "error",
            "name": "Replayed",
            "inputs": []
        }
    ],
    "bytecode": {
        "object": "0x608060405234801561000f575f80fd5b5060405161129838038061129883398101604081905261002e9161012d565b600180546001600160a01b0319166001600160a01b038316178155604080518082018252600e81526d2a34b1b5b2ba2b32b934b334b2b960911b60209182015281518083018352928352603160f81b9281019290925280517f8b73c3c69bb8fe3d512ecc4cf759cc79239f7b179b0ffacaa9a75d522b39400f928101929092527f93ab398023282bbbe8643ec643d528b8278428194e3fcc84fe8324e9b3e1767a908201527fc89efdaa54c0f20c7adf612882df0950f5a951637e0307cdcb4c672f298b8bc6606082015246608082018190523060a08301529060c001604051602081830303815290604052805190602001205f81905550505061015a565b5f6020828403121561013d575f80fd5b81516001600160a01b0381168114610153575f80fd5b9392505050565b611131806101675f395ff3fe608060405234801561000f575f80fd5b5060043610610090575f3560e01c80638b5c48fe116100635780638b5c48fe14610128578063a9128c261461014f578063b31deedf14610162578063b393391b14610175578063c0753076146101a0575f80fd5b80632d0335ab146100945780633644e515146100cf5780637ecebe00146100d757806389782d2e146100f6575b5f80fd5b6100bc6100a2366004610f55565b6001600160a01b03165f9081526003602052604090205490565b6040519081526020015b60405180910390f35b6100bc5f5481565b6100bc6100e5366004610f55565b60036020525f908152604090205481565b610118610104366004610f70565b60026020525f908152604090205460ff1681565b60405190151581526020016100c6565b6100bc7ff5ee570ac56743ca9c983b66af891007b708140fbd6ec40cb5575b95bbfae9f181565b61011861015d366004610f87565b6101c2565b610118610170366004610fc9565b6102b5565b600154610188906001600160a01b031681565b6040516001600160a01b0390911681526020016100c6565b6101186101ae366004610f70565b5f9081526002602052604090205460ff1690565b5f6101cc836103b0565b5f6101d6846105e7565b90506101f46101eb6040860160208701610f55565b85358386610738565b5f818152600260209081526040808320805460ff1916600117905560039291610221918801908801610f55565b6001600160a01b0316815260208101919091526040015f90812080549161024783611043565b9091555050833561025e6040860160208701610f55565b6001600160a01b03167fd6ec2bdf3ab9cf4176753797dc798cc20ec9820edfbf7444890027d43af4d09183426040516102a1929190918252602082015260400190565b60405180910390a360019150505b92915050565b6040805160a0810182528a81526001600160a01b038a811660208084019182528385018c815260608086018d815260808088018e815289519182018a528d82529481018c8152818a018c81529382018b81529951635489461360e11b8152985160048a015295519096166024880152915160448701529051606486015290516084850152915160a48401525160c48301525160e482015290516101048201525f90309063a9128c2690610124016020604051808303815f875af115801561037e573d5f803e3d5ffd5b505050506040513d601f19601f820116820180604052508101906103a2919061105b565b9a9950505050505050505050565b806060013542111561042e5780356103ce6040830160208401610f55565b6001600160a01b03165f805160206110dc83398151915260405161040d90602080825260079082015266195e1c1a5c995960ca1b604082015260600190565b60405180910390a3604051630407b05b60e31b815260040160405180910390fd5b61043e6040820160208301610f55565b6001546040516331a9108f60e11b8152833560048201526001600160a01b039283169290911690636352211e90602401602060405180830381865afa158015610489573d5f803e3d5ffd5b505050506040513d601f19601f820116820180604052508101906104ad919061107a565b6001600160a01b03161461052f5780356104cd6040830160208401610f55565b6001600160a01b03165f805160206110dc83398151915260405161050e906020808252600990820152683737ba1037bbb732b960b91b604082015260600190565b60405180910390a36040516330cd747160e01b815260040160405180910390fd5b60035f6105426040840160208501610f55565b6001600160a01b03166001600160a01b031681526020019081526020015f20548160400135146105e457803561057e6040830160208401610f55565b6001600160a01b03165f805160206110dc8339815191526040516105c3906020808252600d908201526c696e76616c6964206e6f6e636560981b604082015260600190565b60405180910390a3604051637b63160160e11b815260040160405180910390fd5b50565b5f807ff5ee570ac56743ca9c983b66af891007b708140fbd6ec40cb5575b95bbfae9f1833561061c6040860160208701610f55565b604080516020810194909452838101929092526001600160a01b0316606083810191909152908501356080838101919091529085013560a083015284013560c082015260e0016040516020818303038152906040528051906020012090505f8054826040516020016106a592919061190160f01b81526002810192909252602282015260420190565b60408051601f1981840301815291815281516020928301205f818152600290935291205490915060ff16156107315783356106e66040860160208701610f55565b6001600160a01b03165f805160206110dc8339815191526040516105c390602080825260139082015272191a59d95cdd08185b1c9958591e481d5cd959606a1b604082015260600190565b9392505050565b604080518082018252908201358152606082013560208201526001600160a01b03851661076482610869565b6001600160a01b0316146107df5783856001600160a01b03165f805160206110dc8339815191526040516107be90602080825260129082015271696e76616c6964207075626c6963206b657960701b604082015260600190565b60405180910390a360405163145a1fdd60e31b815260040160405180910390fd5b826107f18184356020860135856108ad565b6108615784866001600160a01b03165f805160206110dc83398151915260405161084090602080825260119082015270696e76616c6964207369676e617475726560781b604082015260600190565b60405180910390a3604051638baa579f60e01b815260040160405180910390fd5b505050505050565b5f80825f0151836020015160405160200161088e929190918252602082015260400190565b60408051601f1981840301815291905280516020909101209392505050565b5f80841180156108ce575070014551231950b75fc4402da1732fc9bebe1984105b61090b5760405162461bcd60e51b815260206004820152600960248201526834b73b30b634b2103960b91b60448201526064015b60405180910390fd5b5f8311801561092b575070014551231950b75fc4402da1732fc9bebe1983105b6109635760405162461bcd60e51b8152602060048201526009602482015268696e76616c6964207360b81b6044820152606401610902565b61096c82610ac8565b6109b85760405162461bcd60e51b815260206004820152601760248201527f7075626c6963206b6579206e6f74206f6e2063757276650000000000000000006044820152606401610902565b5f6109d58470014551231950b75fc4402da1732fc9bebe19610b4f565b90505f70014551231950b75fc4402da1732fc9bebe1982880990505f70014551231950b75fc4402da1732fc9bebe1983880990505f610a7a610a6b8460405180604001604052807f79be667ef9dcbbac55a06295ce870b07029bfcdb2dce28d959f2815b16f8179881526020017f483ada7726a3c4655da4fbfc0e1108a8fd17b448a68554199c47d08ffb10d4b8815250610c0c565b610a758489610c0c565b610c90565b8051909150158015610a8e57506020810151155b15610a9f575f945050505050610ac0565b8770014551231950b75fc4402da1732fc9bebe1982515f9008149450505050505b949350505050565b80515f90158015610adb57506020820151155b15610ae757505f919050565b81516401000003d019111580610b0757506401000003d019826020015110155b15610b1357505f919050565b5f6401000003d0196020840151800990505f6401000003d01960076401000003d01986516401000003d019885180090908919091149392505050565b5f815f03610b9f5760405162461bcd60e51b815260206004820152601b60248201527f6d6f64496e76657273653a204d4f44554c55535f49535f5a45524f00000000006044820152606401610902565b610ba982846110a9565b5f03610bf75760405162461bcd60e51b815260206004820152601a60248201527f6d6f64496e76657273653a204e4f545f494e5645525449424c450000000000006044820152606401610902565b61073183610c066002856110c8565b84610edb565b604080518082019091525f8082526020820152610c3b70014551231950b75fc4402da1732fc9bebe19846110a9565b604080518082019091525f80825260208201529093509050815b8315610c89576001841615610c7157610c6e8282610c90565b91505b610c7b8182610c90565b9050600184901c9350610c55565b5092915050565b604080518082019091525f80825260208201528251158015610cb457506020830151155b15610cc05750806102af565b8151158015610cd157506020820151155b15610cdd5750816102af565b81518351148015610cfd57506401000003d0198260200151846020015108155b15610d1b5750604080518082019091525f80825260208201526102af565b815183515f91148015610d35575082602001518460200151145b15610dce5783602001515f03610d5f575050604080518082019091525f80825260208201526102af565b5f6401000003d019602086015180089050805f03610d955760405180604001604052805f81526020015f815250925050506102af565b5f6401000003d019808751800960030990505f610db8836401000003d019610b4f565b90506401000003d0198183099350505050610e5a565b5f6401000003d0198551610de8906401000003d0196110c8565b8551089050805f03610e125760405180604001604052805f81526020015f815250925050506102af565b5f6401000003d0196020870151610e2f906401000003d0196110c8565b86602001510890505f610e48836401000003d019610b4f565b90506401000003d01981830993505050505b5f6401000003d019808551875108610e78906401000003d0196110c8565b6401000003d0198485090890505f6401000003d0196020870151610ea2906401000003d0196110c8565b6401000003d01980610eba866401000003d0196110c8565b8a510886090860408051808201909152928352602083015250949350505050565b5f610ee78260016110a9565b90505f610ef483866110a9565b90505b8315610f39576001841615610f1a578280610f1457610f14611095565b81830991505b8280610f2857610f28611095565b8182099050600184901c9350610ef7565b509392505050565b6001600160a01b03811681146105e4575f80fd5b5f60208284031215610f65575f80fd5b813561073181610f41565b5f60208284031215610f80575f80fd5b5035919050565b5f80828403610120811215610f9a575f80fd5b60a0811215610fa7575f80fd5b8392506080609f1982011215610fbb575f80fd5b5060a0830190509250929050565b5f805f805f805f805f6101208a8c031215610fe2575f80fd5b8935985060208a0135610ff481610f41565b989b989a505050506040870135966060810135966080820135965060a0820135955060c0820135945060e08201359350610100909101359150565b634e487b7160e01b5f52601160045260245ffd5b5f600182016110545761105461102f565b5060010190565b5f6020828403121561106b575f80fd5b81518015158114610731575f80fd5b5f6020828403121561108a575f80fd5b815161073181610f41565b634e487b7160e01b5f52601260045260245ffd5b5f826110c357634e487b7160e01b5f52601260045260245ffd5b500690565b818103818111156102af576102af61102f56feb0fb23af3262c9f38ea2dd95f41a95c63744291e12989b8c1750829157d99797a264697066735822122019e9934c2012b3401d5588088122651e65b3d834aaac1129b68dace6c9d6066d64736f6c63430008180033",
        "linkReferences": {}
    },
    "methodIdentifiers": {
        "DOMAIN_SEPARATOR()": "3644e515",
        "TICKET_ACCESS_TYPEHASH()": "8b5c48fe",
        "getNonce(address)": "2d0335ab",
        "isDigestUsed(bytes32)": "c0753076",
        "nonces(address)": "7ecebe00",
        "ticketNFT()": "b393391b",
        "usedDigest(bytes32)": "89782d2e",
        "verifyAccess((uint256,address,uint256,uint256,bytes32),(uint256,uint256,uint256,uint256))": "a9128c26",
        "verifyAccess(uint256,address,uint256,uint256,bytes32,uint256,uint256,uint256,uint256)": "b31deedf"
    },
    "id": 33
}