{"abi":[{"type":"constructor","inputs":[{"name":"_ticketNFT","type":"address","internalType":"address"}],"stateMutability":"nonpayable"},{"type":"function","name":"DOMAIN_SEPARATOR","inputs":[],"outputs":[{"name":"","type":"bytes32","internalType":"bytes32"}],"stateMutability":"view"},{"type":"function","name":"TYPEHASH","inputs":[],"outputs":[{"name":"","type":"bytes32","internalType":"bytes32"}],"stateMutability":"view"},{"type":"function","name":"ticketNFT","inputs":[],"outputs":[{"name":"","type":"address","internalType":"contract TicketNFT"}],"stateMutability":"view"},{"type":"function","name":"usedDigest","inputs":[{"name":"","type":"bytes32","internalType":"bytes32"}],"outputs":[{"name":"","type":"bool","internalType":"bool"}],"stateMutability":"view"},{"type":"function","name":"verifyAccess","inputs":[{"name":"req","type":"tuple","internalType":"struct TicketVerifier.VerificationRequest","components":[{"name":"ticketId","type":"uint256","internalType":"uint256"},{"name":"owner","type":"address","internalType":"address"},{"name":"deadline","type":"uint256","internalType":"uint256"},{"name":"metadataHash","type":"bytes32","internalType":"bytes32"}]},{"name":"sig","type":"tuple","internalType":"struct TicketVerifier.SignatureData","components":[{"name":"r","type":"uint256","internalType":"uint256"},{"name":"s","type":"uint256","internalType":"uint256"},{"name":"Qx","type":"uint256","internalType":"uint256"},{"name":"Qy","type":"uint256","internalType":"uint256"}]}],"outputs":[{"name":"","type":"bool","internalType":"bool"}],"stateMutability":"nonpayable"},{"type":"event","name":"TicketRejected","inputs":[{"name":"ticketId","type":"uint256","indexed":false,"internalType":"uint256"},{"name":"reason","type":"string","indexed":false,"internalType":"string"}],"anonymous":false},{"type":"event","name":"TicketVerified","inputs":[{"name":"owner","type":"address","indexed":true,"internalType":"address"},{"name":"ticketId","type":"uint256","indexed":false,"internalType":"uint256"},{"name":"digest","type":"bytes32","indexed":false,"internalType":"bytes32"}],"anonymous":false},{"type":"error","name":"Expired","inputs":[]},{"type":"error","name":"InvalidPublicKey","inputs":[]},{"type":"error","name":"InvalidSignature","inputs":[]},{"type":"error","name":"NotOwner","inputs":[]},{"type":"error","name":"Replayed","inputs":[]}],"bytecode":{"object":"0x608034610122576001600160401b0390601f610b6b38819003918201601f19168301918483118484101761010e5780849260209460405283398101031261012257516001600160a01b038116908190036101225760018060a01b03195f5416175f5560405160208101907f8b73c3c69bb8fe3d512ecc4cf759cc79239f7b179b0ffacaa9a75d522b39400f82527f93ab398023282bbbe8643ec643d528b8278428194e3fcc84fe8324e9b3e1767a60408201527fc89efdaa54c0f20c7adf612882df0950f5a951637e0307cdcb4c672f298b8bc660608201524660808201523060a082015260a0815260c08101928184109084111761010e5782604052519020600255610a4490816101278239f35b634e487b7160e01b5f52604160045260245ffd5b5f80fdfe6080604090808252600480361015610015575f80fd5b5f3560e01c9182633644e5151461044a575081633b639e6f1461041057816389782d2e146103e4578163b35bfdc614610081575063b393391b14610057575f80fd5b3461007d575f36600319011261007d575f5490516001600160a01b039091168152602090f35b5f80fd5b823461007d573660031901610100811261007d5760801361007d57608036608319011261007d576044358042116103d6575f5482516331a9108f60e11b8152843581860181905260209590926001600160a01b0392602491889082908490829088165afa9081156103cc575f9161036d575b5083806100fe610494565b1691160361035e5761010e610494565b9186519584898801947f98bedf8cc3414a2996ce566792f72a2abcc6d18a5bd91475f7b33a653c5928bd8652878a8a0152166060880152608087015260643560a087015260a0865260c086019567ffffffffffffffff938188108589111761034c5761014090888a5282519020916002549260e082019361190160f01b855260e28301526101028201526042895201968088108589111761034c5787895251902095865f526001895260ff885f20541661034057506101cb610494565b87519060e4359060c4356101de84610464565b808452828c8501528a51928c84019182528b8401528a835260608301928084108885111761032e57838c5251902087169087160361032057506102279060a435608435896104aa565b1561031257855f5260018852865f20600160ff19825416179055835f541692833b1561007d575f8094848a5180978193630a15fa8b60e01b83528b888401525af1801561030857908895949392916102bc575b50505050917f763d86327afbecf1cb7d5b9fc69643f9198fd501b9cb37375f5ced29d52fc601926102a9610494565b1693825191825286820152a25160018152f35b90919280949550116102f7575050845283907f763d86327afbecf1cb7d5b9fc69643f9198fd501b9cb37375f5ced29d52fc60187808061027a565b604190634e487b7160e01b5f52525ffd5b88513d5f823e3d90fd5b8651638baa579f60e01b8152fd5b63145a1fdd60e31b81529050fd5b86604187634e487b7160e01b5f52525ffd5b637b63160160e11b8152fd5b83604184634e487b7160e01b5f52525ffd5b5084516330cd747160e01b8152fd5b9050873d89116103c5575b601f8101601f1916820167ffffffffffffffff8111838210176103b357899183918a528101031261007d5751838116810361007d57886100f3565b83604186634e487b7160e01b5f52525ffd5b503d610378565b87513d5f823e3d90fd5b5051630407b05b60e31b8152fd5b823461007d57602036600319011261007d57602091355f526001825260ff815f20541690519015158152f35b823461007d575f36600319011261007d57602090517f98bedf8cc3414a2996ce566792f72a2abcc6d18a5bd91475f7b33a653c5928bd8152f35b3461007d575f36600319011261007d576020906002548152f35b6040810190811067ffffffffffffffff82111761048057604052565b634e487b7160e01b5f52604160045260245ffd5b6024356001600160a01b038116810361007d5790565b90928315158061070c575b156106db57821515806106b1575b1561066c576104d181610727565b156106275770014551231950b75fc4402da1732fc9bebe198093069182156105e257839070014551231950b75fc4402da1732fc9bec019600181600196905b6105bc575050509181610582859461058a94610590976040519261053384610464565b7f79be667ef9dcbbac55a06295ce870b07029bfcdb2dce28d959f2815b16f8179884527f483ada7726a3c4655da4fbfc0e1108a8fd17b448a68554199c47d08ffb10d4b86020850152096107d3565b9387096107d3565b90610853565b805190811590816105af575b506105a8575f90081490565b5050505f90565b602091500151155f61059c565b818394959293166105d7575b8009869392821c919082610510565b9586829109956105c8565b60405162461bcd60e51b815260206004820152601a60248201527f6d6f64496e76657273653a204e4f545f494e5645525449424c450000000000006044820152606490fd5b60405162461bcd60e51b815260206004820152601760248201527f7075626c6963206b6579206e6f74206f6e2063757276650000000000000000006044820152606490fd5b60405162461bcd60e51b815260206004820152601f60248201527f696e76616c69642073202d206d616c6c6561626c65207369676e6174757265006044820152606490fd5b507f7fffffffffffffffffffffffffffffff5d576e7357a4501ddfe92f46681b20a08311156104c3565b60405162461bcd60e51b815260206004820152600960248201526834b73b30b634b2103960b91b6044820152606490fd5b5070014551231950b75fc4402da1732fc9bebe1984106104b5565b805190811580610778575b610772576401000003d01990818310801590610764575b6105a857600782602081930151948181800909089180091490565b508160208201511015610749565b50505f90565b50602081015115610732565b6401000003d0198091069081156105e2576001916401000003d219918391835b6107af575050505090565b8284166107c5575b8082910992821c92836107a4565b9381858192099490506107b7565b9190915f60206040516107e581610464565b828152015270014551231950b75fc4402da1732fc9bebe1990068060405161080c81610464565b5f81525f602082015293915b610820575050565b60019182821661083d575b8061083591610853565b911c80610818565b9361084b8561083592610853565b94905061082b565b60409182519161086283610464565b5f83525f6020809401528051801580610a03575b6109fb578251908115806109f0575b6109e75714806109cf575b6109bf5780518251808214806109b0575b1561097157505082810180511561096057516401000003d0198181920880156109455781806108d1855193610784565b92800960030909935b6401000003d019809383519051900883038381116109315783908187800908948251918685039385851161093157860151850393858511610931578593849251986109248a610464565b8952089009089082015290565b634e487b7160e01b5f52601160045260245ffd5b50505050905f90519161095783610464565b81835282015290565b505050905f90519161095783610464565b6401000003d019918203828111610931578291088015610945578484015190858401518303838111610931576109a78492610784565b920809936108da565b508483015185850151146108a1565b5050905f90519161095783610464565b5080830151828401516401000003d019910815610890565b50509250505090565b508484015115610885565b505091505090565b50838201511561087656fea26469706673582212209c69d9e392edab3199fd50a1be9db3f5d79d50f00ceb9edaf9848c991318660564736f6c63430008180033","linkReferences":{}},"methodIdentifiers":{"DOMAIN_SEPARATOR()":"3644e515","TYPEHASH()":"3b639e6f","ticketNFT()":"b393391b","usedDigest(bytes32)":"89782d2e","verifyAccess((uint256,address,uint256,bytes32),(uint256,uint256,uint256,uint256))":"b35bfdc6"},"id":34}